{
  "contracts/CombinationManager.sol": {
    "CombinationManager": {
      "abi": [
        {
          "inputs": [
            {
              "internalType": "address",
              "name": "_cardNFT",
              "type": "address"
            }
          ],
          "stateMutability": "nonpayable",
          "type": "constructor"
        },
        {
          "inputs": [
            {
              "internalType": "address",
              "name": "owner",
              "type": "address"
            }
          ],
          "name": "OwnableInvalidOwner",
          "type": "error"
        },
        {
          "inputs": [
            {
              "internalType": "address",
              "name": "account",
              "type": "address"
            }
          ],
          "name": "OwnableUnauthorizedAccount",
          "type": "error"
        },
        {
          "inputs": [],
          "name": "ReentrancyGuardReentrantCall",
          "type": "error"
        },
        {
          "anonymous": false,
          "inputs": [
            {
              "indexed": true,
              "internalType": "uint256",
              "name": "fusedTokenId",
              "type": "uint256"
            },
            {
              "indexed": true,
              "internalType": "uint256",
              "name": "tokenId1",
              "type": "uint256"
            },
            {
              "indexed": true,
              "internalType": "uint256",
              "name": "tokenId2",
              "type": "uint256"
            },
            {
              "indexed": false,
              "internalType": "address",
              "name": "owner",
              "type": "address"
            }
          ],
          "name": "CardUnfused",
          "type": "event"
        },
        {
          "anonymous": false,
          "inputs": [
            {
              "indexed": true,
              "internalType": "uint256",
              "name": "newTokenId",
              "type": "uint256"
            },
            {
              "indexed": true,
              "internalType": "uint256",
              "name": "tokenId1",
              "type": "uint256"
            },
            {
              "indexed": true,
              "internalType": "uint256",
              "name": "tokenId2",
              "type": "uint256"
            },
            {
              "indexed": false,
              "internalType": "address",
              "name": "owner",
              "type": "address"
            },
            {
              "indexed": false,
              "internalType": "string",
              "name": "resultElement",
              "type": "string"
            },
            {
              "indexed": false,
              "internalType": "uint8",
              "name": "resultRarity",
              "type": "uint8"
            }
          ],
          "name": "CardsCombined",
          "type": "event"
        },
        {
          "anonymous": false,
          "inputs": [
            {
              "indexed": true,
              "internalType": "uint256",
              "name": "fusedTokenId",
              "type": "uint256"
            },
            {
              "indexed": true,
              "internalType": "uint256",
              "name": "tokenId1",
              "type": "uint256"
            },
            {
              "indexed": true,
              "internalType": "uint256",
              "name": "tokenId2",
              "type": "uint256"
            },
            {
              "indexed": false,
              "internalType": "address",
              "name": "owner",
              "type": "address"
            }
          ],
          "name": "CardsFused",
          "type": "event"
        },
        {
          "anonymous": false,
          "inputs": [
            {
              "indexed": true,
              "internalType": "address",
              "name": "previousOwner",
              "type": "address"
            },
            {
              "indexed": true,
              "internalType": "address",
              "name": "newOwner",
              "type": "address"
            }
          ],
          "name": "OwnershipTransferred",
          "type": "event"
        },
        {
          "inputs": [],
          "name": "COOLDOWN_BLOCKS",
          "outputs": [
            {
              "internalType": "uint256",
              "name": "",
              "type": "uint256"
            }
          ],
          "stateMutability": "view",
          "type": "function"
        },
        {
          "inputs": [],
          "name": "MAX_GENERATION",
          "outputs": [
            {
              "internalType": "uint256",
              "name": "",
              "type": "uint256"
            }
          ],
          "stateMutability": "view",
          "type": "function"
        },
        {
          "inputs": [],
          "name": "cardNFT",
          "outputs": [
            {
              "internalType": "contract ICardNFT",
              "name": "",
              "type": "address"
            }
          ],
          "stateMutability": "view",
          "type": "function"
        },
        {
          "inputs": [
            {
              "internalType": "uint256",
              "name": "tokenId1",
              "type": "uint256"
            },
            {
              "internalType": "uint256",
              "name": "tokenId2",
              "type": "uint256"
            },
            {
              "internalType": "uint256[]",
              "name": "fuelCards",
              "type": "uint256[]"
            }
          ],
          "name": "combineCards",
          "outputs": [
            {
              "internalType": "uint256",
              "name": "newTokenId",
              "type": "uint256"
            }
          ],
          "stateMutability": "nonpayable",
          "type": "function"
        },
        {
          "inputs": [
            {
              "internalType": "uint256",
              "name": "tokenId1",
              "type": "uint256"
            },
            {
              "internalType": "uint256",
              "name": "tokenId2",
              "type": "uint256"
            }
          ],
          "name": "fuseCards",
          "outputs": [
            {
              "internalType": "uint256",
              "name": "fusedTokenId",
              "type": "uint256"
            }
          ],
          "stateMutability": "nonpayable",
          "type": "function"
        },
        {
          "inputs": [
            {
              "internalType": "uint256",
              "name": "",
              "type": "uint256"
            }
          ],
          "name": "fusedCards",
          "outputs": [
            {
              "internalType": "uint256",
              "name": "tokenId1",
              "type": "uint256"
            },
            {
              "internalType": "uint256",
              "name": "tokenId2",
              "type": "uint256"
            },
            {
              "internalType": "bool",
              "name": "isActive",
              "type": "bool"
            }
          ],
          "stateMutability": "view",
          "type": "function"
        },
        {
          "inputs": [
            {
              "internalType": "uint256",
              "name": "tokenId1",
              "type": "uint256"
            },
            {
              "internalType": "uint256",
              "name": "tokenId2",
              "type": "uint256"
            }
          ],
          "name": "getCombinationPreview",
          "outputs": [
            {
              "internalType": "string",
              "name": "element",
              "type": "string"
            },
            {
              "internalType": "uint16",
              "name": "attack",
              "type": "uint16"
            },
            {
              "internalType": "uint16",
              "name": "defense",
              "type": "uint16"
            },
            {
              "internalType": "uint8",
              "name": "rarity",
              "type": "uint8"
            },
            {
              "internalType": "string",
              "name": "ability",
              "type": "string"
            },
            {
              "internalType": "uint8",
              "name": "generation",
              "type": "uint8"
            },
            {
              "internalType": "string",
              "name": "name",
              "type": "string"
            }
          ],
          "stateMutability": "view",
          "type": "function"
        },
        {
          "inputs": [
            {
              "internalType": "address",
              "name": "player",
              "type": "address"
            }
          ],
          "name": "getPlayerCombinationCount",
          "outputs": [
            {
              "internalType": "uint256",
              "name": "",
              "type": "uint256"
            }
          ],
          "stateMutability": "view",
          "type": "function"
        },
        {
          "inputs": [
            {
              "internalType": "uint256",
              "name": "tokenId1",
              "type": "uint256"
            },
            {
              "internalType": "uint256",
              "name": "tokenId2",
              "type": "uint256"
            }
          ],
          "name": "isValidCombination",
          "outputs": [
            {
              "internalType": "bool",
              "name": "",
              "type": "bool"
            }
          ],
          "stateMutability": "view",
          "type": "function"
        },
        {
          "inputs": [
            {
              "internalType": "address",
              "name": "",
              "type": "address"
            }
          ],
          "name": "lastCombinationBlock",
          "outputs": [
            {
              "internalType": "uint256",
              "name": "",
              "type": "uint256"
            }
          ],
          "stateMutability": "view",
          "type": "function"
        },
        {
          "inputs": [],
          "name": "owner",
          "outputs": [
            {
              "internalType": "address",
              "name": "",
              "type": "address"
            }
          ],
          "stateMutability": "view",
          "type": "function"
        },
        {
          "inputs": [
            {
              "internalType": "address",
              "name": "",
              "type": "address"
            }
          ],
          "name": "playerCombinationCount",
          "outputs": [
            {
              "internalType": "uint256",
              "name": "",
              "type": "uint256"
            }
          ],
          "stateMutability": "view",
          "type": "function"
        },
        {
          "inputs": [],
          "name": "renounceOwnership",
          "outputs": [],
          "stateMutability": "nonpayable",
          "type": "function"
        },
        {
          "inputs": [
            {
              "internalType": "uint256",
              "name": "targetTokenId",
              "type": "uint256"
            },
            {
              "internalType": "uint256",
              "name": "fuelTokenId",
              "type": "uint256"
            }
          ],
          "name": "repairCard",
          "outputs": [],
          "stateMutability": "nonpayable",
          "type": "function"
        },
        {
          "inputs": [
            {
              "internalType": "address",
              "name": "newOwner",
              "type": "address"
            }
          ],
          "name": "transferOwnership",
          "outputs": [],
          "stateMutability": "nonpayable",
          "type": "function"
        },
        {
          "inputs": [
            {
              "internalType": "uint256",
              "name": "fusedTokenId",
              "type": "uint256"
            }
          ],
          "name": "unfuseCard",
          "outputs": [],
          "stateMutability": "nonpayable",
          "type": "function"
        }
      ],
      "evm": {
        "bytecode": {
          "linkReferences": {},
          "object": "6080346100f257601f612cdc38819003918201601f19168301916001600160401b038311848410176100f6578084926020946040528339810103126100f257516001600160a01b038116908190036100f25733156100df575f8054336001600160a01b0319821681178355604051939290916001600160a01b0316907f8be0079c531659141344cd1fd0a4f28419497f9722a3daafe3b4186f6b6457e09080a360017f9b779b17422d0df92223018b32b4d1fa46e071723d6817e2486d003becc55f005560018060a01b03196001541617600155612bd1908161010b8239f35b631e4fbdf760e01b5f525f60045260245ffd5b5f80fd5b634e487b7160e01b5f52604160045260245ffdfe60806040526004361015610011575f80fd5b5f5f3560e01c8063031337dd14611319578063159d2db1146112d357806338d5d7d1146112ab5780635074d57f1461126f5780635253e802146111a657806352ff6baf146112545780635483135414611239578063715018a6146111e257806386198104146111a65780638cd885e014610ead5780638da5cb5b14610e86578063b5316f47146107e9578063b8ef1ca514610591578063cd133b01146101d4578063ebf8a59e146101585763f2fde38b146100ca575f80fd5b34610155576020366003190112610155576004356001600160a01b03811690819003610153576100f8611a57565b801561013f5781546001600160a01b03198116821783556001600160a01b03167f8be0079c531659141344cd1fd0a4f28419497f9722a3daafe3b4186f6b6457e08380a380f35b631e4fbdf760e01b82526004829052602482fd5b505b80fd5b50346101555760ff60e06101d061ffff6101bc8461017e6101783661133c565b90611910565b97959b9291938961019c60409b939b519e8f9e8f8181520190611352565b961660208d01521660408b01521660608901528782036080890152611352565b921660a085015283820360c0850152611352565b0390f35b5034610155576101e33661133c565b916101ec611a7d565b3381526002602052604081205415801561055c575b61020a90611798565b61021c610217848461152e565b6117d6565b6001546040516331a9108f60e11b8152600481018490526001600160a01b0390911690602081602481855afa908115610551579061026c918491610522575b506001600160a01b03163314611818565b803b156101535781809160246040518094819363223df05b60e21b83528860048401525af1801561048d5790829161050d575b50506001546001600160a01b0316803b156101535781809160246040518094819363223df05b60e21b83528960048401525af1801561048d579082916104f8575b50506102ec8383611910565b9194989593925060018060a01b036001541694604051630d5aaa5b60e41b815289600482015288816024818a5afa9081156104ed5789916104cc575b50604051630d5aaa5b60e41b81526004810189905289816024818b5afa9081156104c157918b93918a95938c91610498575b503390429061036893611cea565b60405163728af1d760e01b81529c8d98899861038b989093903360048c01611874565b0381855a94602095f192831561048d578293610454575b602094506040516103b281611376565b818152600286820191848352604081019260018452878752600489526040872091518255516001820155019051151560ff80198354169116179055338352600385526040832061040281546118ee565b9055837f1b51f6394711765b052ed4f913b1b7fcf12d81f19ece0ee262798470919fb09186604051338152a43381526002835260404391205560015f516020612b7c5f395f51905f5255604051908152f35b92506020843d602011610485575b8161046f602093836113c2565b810103126104815760209351926103a2565b5f80fd5b3d9150610462565b6040513d84823e3d90fd5b6104b491503d808e833e6104ac81836113c2565b81019061148e565b505050505090505f61035a565b6040513d8c823e3d90fd5b6104e091503d808b833e6104ac81836113c2565b505050505090505f610328565b6040513d8b823e3d90fd5b81610502916113c2565b61015557805f6102e0565b81610517916113c2565b61015557805f61029f565b610544915060203d60201161054a575b61053c81836113c2565b8101906113fc565b5f61025b565b503d610532565b6040513d85823e3d90fd5b50338152600260205260408120546064810180911161057d57431015610201565b634e487b7160e01b82526011600452602482fd5b5034610155576020366003190112610155576004356105ae611a7d565b6001546040516331a9108f60e11b8152600481018390526001600160a01b0390911690602081602481855afa80156107de576105fb91859161052257506001600160a01b03163314611818565b818352600460205260ff600260408520015416156107a05781835260046020526040832090836040519161062e83611376565b835480845260ff60026001870154966020870197885201541615156040850152813b15610787578291602483926040519485938492633191a51b60e21b845260048401525af1801561048d5761078b575b5060018060a01b03600154168351813b15610787578291602483926040519485938492633191a51b60e21b845260048401525af1801561048d57610772575b5083905260046020528360026040822082815582600182015501558360018060a01b0360015416803b1561015357818091602460405180948193630852cd8d60e31b83528a60048401525af1801561048d57610759575b5050519051917fe511ac1c119629d5bb660f438adca2c8e01b82c6870e17eb27c6c85d99c9e3556020604051338152a460015f516020612b7c5f395f51905f525580f35b81610763916113c2565b61076e57835f610715565b8380fd5b8161077c916113c2565b61076e57835f6106be565b8280fd5b81610795916113c2565b61076e57835f61067f565b60405162461bcd60e51b8152602060048201526016602482015275139bdd0818481d985b1a5908199d5cd9590818d85c9960521b6044820152606490fd5b6040513d86823e3d90fd5b503461015557606036600319011261015557600435602435916044359267ffffffffffffffff841161015357366023850112156101535783600401359267ffffffffffffffff8411610787576024850194602436918660051b01011161078757610851611a7d565b33835260026020526040832054158015610e51575b61086f90611798565b61087c610217838361152e565b6001546040516331a9108f60e11b8152600481018390526001600160a01b039091169490602081602481895afa908115610e2157906108cc91869161052257506001600160a01b03163314611818565b604051630d5aaa5b60e41b815260048101839052958487602481895afa958615610e21576024978697610e2c575b50859060405198898092630d5aaa5b60e41b82528860048301525afa968715610e21578597610dfe575b5060ff6109318888611ab5565b166002811015610b55575b50505061095f939461094e8383611910565b939a92509590949a33914291611cea565b6001549094906001600160a01b0316803b15610b3c57888091602460405180948193630852cd8d60e31b83528c60048401525af180156104ed57908991610b40575b50506001546001600160a01b0316803b15610b3c57888091602460405180948193630852cd8d60e31b83528d60048401525af180156104ed578b93928a8a938a93610b16575b505060015460405163728af1d760e01b81529c6001600160a01b03909116978d978897610a1d979293928c903360048c01611874565b0381875a94602095f19485156107de578495610ac0575b507f2c9421a36e07aea8b59cac354f4578d84d1e2eba2e0124f38876ab378deaab57610a90602097879333885260038a5260408820610a7381546118ee565b905560ff60405193849333855260608d8601526060850190611352565b911660408301520390a43381526002835260404391205560015f516020612b7c5f395f51905f5255604051908152f35b9594506020863d602011610b0e575b81610adc602093836113c2565b8101031261048157945193947f2c9421a36e07aea8b59cac354f4578d84d1e2eba2e0124f38876ab378deaab57610a34565b3d9150610acf565b9093508391949550610b2892506113c2565b610b38579086868b938a5f6109e7565b8780fd5b8880fd5b81610b4a916113c2565b610b3857875f6109a1565b5f190160ff8111610dea5760ff1691828110610da557855b838110610b7a575061093c565b6001546001600160a01b0316610b91828486611850565b6040516331a9108f60e11b815290356004820152602081602481855afa9081156104ed578991610d87575b50336001600160a01b0390911603610d4e57610bd9828486611850565b604051630d5aaa5b60e41b8152903560048201528881602481855afa9081156104ed5760019160ff918b91610d2d575b501603610cf25785610c1c838587611850565b35141580610cdd575b15610c9857610c35828486611850565b35813b15610b3c578891602483926040519485938492630852cd8d60e31b845260048401525af18015610c8d57908891610c74575b5050600101610b6d565b81610c7e916113c2565b610c8957865f610c6a565b8680fd5b6040513d8a823e3d90fd5b60405162461bcd60e51b815260206004820152601960248201527f4675656c2063616e6e6f74206265206d61696e206361726473000000000000006044820152606490fd5b5086610cea838587611850565b351415610c25565b60405162461bcd60e51b8152602060048201526013602482015272233ab2b61036bab9ba1031329021b7b6b6b7b760691b6044820152606490fd5b610d4191503d808d833e6104ac81836113c2565b505050505090505f610c09565b60405162461bcd60e51b8152602060048201526011602482015270139bdd081bdddb995c881bd988199d595b607a1b6044820152606490fd5b610d9f915060203d811161054a5761053c81836113c2565b5f610bbc565b60405162461bcd60e51b815260206004820152601a60248201527f496e73756666696369656e74206675656c2070726f76696465640000000000006044820152606490fd5b634e487b7160e01b86526011600452602486fd5b610e139197503d8087833e6104ac81836113c2565b50505050509050955f610924565b6040513d87823e3d90fd5b86919750610e43903d8084833e6104ac81836113c2565b5050505050905096906108fa565b503383526002602052604083205460648101809111610e7257431015610866565b634e487b7160e01b84526011600452602484fd5b5034610155578060031936011261015557546040516001600160a01b039091168152602090f35b503461048157610ebc3661133c565b610ec7929192611a7d565b6001546040516331a9108f60e11b8152600481018590526001600160a01b039091169190602081602481865afa908115611044575f91611187575b50336001600160a01b039091160361114f576040516331a9108f60e11b815260048101829052602081602481865afa908115611044575f91611130575b50336001600160a01b03909116036110fa578084146110b557604051630d5aaa5b60e41b8152600481018290525f81602481865afa9081156110445760019160ff915f91611094575b50160361104f57813b15610481575f91602483926040519485938492630852cd8d60e31b845260048401525af1801561104457611031575b50600154909182916001600160a01b031690813b1561102d578291602483926040519485938492630e0f043b60e41b845260048401525af1801561048d57611018575b5060015f516020612b7c5f395f51905f525580f35b81611022916113c2565b61015557805f611003565b5050fd5b61103d91505f906113c2565b5f5f610fc0565b6040513d5f823e3d90fd5b60405162461bcd60e51b815260206004820152601a60248201527f526570616972206675656c206d75737420626520436f6d6d6f6e0000000000006044820152606490fd5b6110a891503d805f833e6104ac81836113c2565b505050505090505f610f88565b60405162461bcd60e51b815260206004820152601a60248201527f43616e6e6f742066656564206361726420746f20697473656c660000000000006044820152606490fd5b60405162461bcd60e51b815260206004820152600e60248201526d2737ba10333ab2b61037bbb732b960911b6044820152606490fd5b611149915060203d60201161054a5761053c81836113c2565b5f610f3f565b60405162461bcd60e51b815260206004820152601060248201526f2737ba103a30b933b2ba1037bbb732b960811b6044820152606490fd5b6111a0915060203d60201161054a5761053c81836113c2565b5f610f02565b34610481576020366003190112610481576004356001600160a01b03811690819003610481575f526003602052602060405f2054604051908152f35b34610481575f366003190112610481576111fa611a57565b5f80546001600160a01b0319811682556001600160a01b03167f8be0079c531659141344cd1fd0a4f28419497f9722a3daafe3b4186f6b6457e08280a3005b34610481575f36600319011261048157602060405160648152f35b34610481575f36600319011261048157602060405160058152f35b34610481576020366003190112610481576004356001600160a01b03811690819003610481575f526002602052602060405f2054604051908152f35b34610481575f366003190112610481576001546040516001600160a01b039091168152602090f35b34610481576020366003190112610481576004355f526004602052606060405f2080549060ff600260018301549201541690604051928352602083015215156040820152f35b3461048157602061133261132c3661133c565b9061152e565b6040519015158152f35b6040906003190112610481576004359060243590565b805180835260209291819084018484015e5f828201840152601f01601f1916010190565b6060810190811067ffffffffffffffff82111761139257604052565b634e487b7160e01b5f52604160045260245ffd5b60a0810190811067ffffffffffffffff82111761139257604052565b90601f8019910116810190811067ffffffffffffffff82111761139257604052565b90816020910312610481575180151581036104815790565b9081602091031261048157516001600160a01b03811681036104815790565b81601f820112156104815780519067ffffffffffffffff82116113925760405192611450601f8401601f1916602001856113c2565b8284526020838301011161048157815f9260208093018386015e8301015290565b519060ff8216820361048157565b519061ffff8216820361048157565b60e08183031261048157805167ffffffffffffffff811161048157826114b591830161141b565b926114c260208301611471565b92604083015167ffffffffffffffff811161048157816114e391850161141b565b926114f06060820161147f565b926114fd6080830161147f565b9260a08301519067ffffffffffffffff82116104815761152460c09161152b93860161141b565b9301611471565b90565b8181146117925760015460405163f6aacfb160e01b8152600481018390526001600160a01b039091169290602081602481875afa908115611044575f91611773575b508015611712575b6116c2576040516331a9108f60e11b815260048101839052602081602481875afa908115611044575f916116f3575b506040516331a9108f60e11b81526004810183905290602082602481885afa918215611044575f926116d2575b506001600160a01b0390811691168114801591906116c9575b506116c25760405191630d5aaa5b60e41b835260048301525f82602481865afa918215611044575f9261169d575b505f90602460405180958193630d5aaa5b60e41b835260048301525afa918215611044575f92611674575b5060ff600591161090811591611665575b5061166157600190565b5f90565b6005915060ff1610155f611657565b600591925061168e60ff913d805f833e6104ac81836113c2565b95505050505050929150611646565b5f9192506116b4903d8084833e6104ac81836113c2565b95505050505050919061161b565b5050505f90565b9050155f6115ed565b6116ec91925060203d60201161054a5761053c81836113c2565b905f6115d4565b61170c915060203d60201161054a5761053c81836113c2565b5f6115a7565b5060405163f6aacfb160e01b815260048101829052602081602481875afa908115611044575f91611744575b50611578565b611766915060203d60201161176c575b61175e81836113c2565b8101906113e4565b5f61173e565b503d611754565b61178c915060203d60201161176c5761175e81836113c2565b5f611570565b50505f90565b1561179f57565b60405162461bcd60e51b815260206004820152600f60248201526e436f6f6c646f776e2061637469766560881b6044820152606490fd5b156117dd57565b60405162461bcd60e51b815260206004820152601360248201527224b73b30b634b21031b7b6b134b730ba34b7b760691b6044820152606490fd5b1561181f57565b60405162461bcd60e51b81526020600482015260096024820152682737ba1037bbb732b960b91b6044820152606490fd5b91908110156118605760051b0190565b634e487b7160e01b5f52603260045260245ffd5b96919561ffff6118c360ff97956118dd976101209c9f9e9d9a6118af8b916101408f889a60018060a01b031681528160208201520190611352565b921660408d01528b820360608d0152611352565b941660808901521660a087015285820360c0870152611352565b961660e08301526101008201520152565b5f1981146118fc5760010190565b634e487b7160e01b5f52601160045260245ffd5b9160018060a01b03600154169160405193630d5aaa5b60e41b855260048501525f84602481865afa8015611044575f945f925f905f925f94611a28575b505f90602460405180998193630d5aaa5b60e41b835260048301525afa918215611044575f945f935f955f995f926119ef575b5061198f60019260ff92611ab5565b16019060ff82116118fc5781946119a591611e14565b97889687519a6020890151958460808b0151998484336119c6908383611ace565b9d6040015161ffff16926119d995612a3e565b9a6060015161ffff16926119ec95612a3e565b94565b9095506001995061198f975060ff9650611a1391503d805f833e6104ac81836113c2565b919d50939a9199509197919350909150611980565b92509650505f9250611a4491503d8084833e6104ac81836113c2565b949993969495509093919291905061194d565b5f546001600160a01b03163303611a6a57565b63118cdaa760e01b5f523360045260245ffd5b60025f516020612b7c5f395f51905f525414611aa65760025f516020612b7c5f395f51905f5255565b633ee5aeb560e01b5f5260045ffd5b9060ff811660ff8316115f14611ac9575090565b905090565b9091606460ff9182851693838116948086105f14611ce35781955b1115611cdd5780955b6040519160208301935f85526bffffffffffffffffffffffff199060601b1660408401528560f81b9060f81b1660548301528460f81b9060f81b16605582015260368152611b416056826113c2565b5190200691169060018214808091611cd0575b611cb8578080611cab575b611ca2578080611c95575b611c825780611c75575b611c6d57600282148080611c60575b611c48578080611c3b575b611c325780611c25575b611c135760038214908180611c06575b611bee575080611be1575b611bda5760041480611bcd575b611bc75790565b50600490565b50600460ff821614611bc0565b5050600490565b50600460ff831614611bb3565b91505060149150105f14611c0157600390565b600490565b50600360ff851614611ba8565b905060469150105f14611c0157600390565b50600460ff841614611b98565b50505050600390565b50600360ff851614611b8e565b50905060289150105f14611c5b57600290565b600390565b50600260ff851614611b83565b505050600390565b50600460ff841614611b74565b50905060469150105f14611c5b57600290565b50600360ff851614611b6a565b50505050600290565b50600260ff851614611b5f565b50905060329150105f14611ccb57600190565b600290565b50600160ff851614611b54565b85611af2565b8695611ae9565b9260ff8085169390926064929080851680871015611d5d5787965b1115611d5657865b604080516020810195865260609490941b6bffffffffffffffffffffffff191690840152851660f890811b6054840152908516901b605582015260368152611b416056826113c2565b8096611d0d565b8196611d05565b60405190611d736040836113c2565b60048252634669726560e01b6020830152565b60405190611d956040836113c2565b60058252642bb0ba32b960d91b6020830152565b60405190611db86040836113c2565b600582526408ac2e4e8d60db1b6020830152565b60405190611ddb6040836113c2565b600382526220b4b960e91b6020830152565b60405190611dfc6040836113c2565b60098252684c696768746e696e6760b81b6020830152565b90604051611e21816113a6565b60608152606060208201525f60408201525f60608201526060608082015250611e51611e4b611d64565b83612ab4565b80612a17575b61297757611e66611e4b611d86565b80612966575b6128c857611e7b611e4b611da9565b806128b7575b61281157611e90611e4b611dcc565b80612800575b61275b57611ea5611e4b611ded565b80612744575b6126a357611eca611eba611d64565b611ec2611d86565b908385612b17565b6125ee57611ee1611ed9611da9565b611ec2611d64565b61253857611ef0611ed9611dcc565b6124a757611eff611eba611da9565b61240157611f0e611eba611dcc565b61234f57611f25611f1d611dcc565b611ec2611da9565b6122ab57611f3c611f34611d64565b611ec2611ded565b61220757611f4b611eba611ded565b61216257611f5a611f34611da9565b6120a857611f7990611f6a611dcc565b611f72611ded565b9184612b17565b6120035760405190611f8a826113a6565b815260408051611f9a82826113c2565b600e81526d556e6b6e6f776e20456e7469747960901b602082015260208301525f818301525f6060830152611fd1815191826113c2565b602081527f4d69736d6174636865643a20556e737461626c6520636f6d62696e6174696f6e6020820152608082015290565b50604051612010816113a6565b6040805161201e82826113c2565b60078152662a343ab73232b960c91b60208201528252805161204082826113c2565b600c81526b151a1d5b99195c88131bdc9960a21b602082015260208301526006818301525f6060830152612076815191826113c2565b601881527f536f6e69633a2043616e6e6f7420626520626c6f636b656400000000000000006020820152608082015290565b50506040516120b6816113a6565b604080516120c482826113c2565b60098152684d61676e657469736d60b81b6020820152825280516120e882826113c2565b60118152704d61676e6574696320436f6c6f7373757360781b602082015260208301526002818301526002606083015262796f7560e81b81519161212d6060846113c2565b602383527f436f6e74726f6c3a2050756c6c206f70706f6e656e7420636172647320746f206020840152820152608082015290565b5050604051612170816113a6565b6040805161217e82826113c2565b600581526453746f726d60d81b60208201528252805161219e82826113c2565b600c81526b14dd1bdc9b4812195c985b1960a21b60208201526020830152600381830152600360608301526121d5815191826113c2565b601f81527f4368616f733a2052616e646f6d20656666656374732065616368207475726e006020820152608082015290565b5050604051612215816113a6565b6040805161222382826113c2565b6006815265506c61736d6160d01b60208201528252805161224482826113c2565b600b81526a506c61736d6120436f726560a81b602082015260208301526005818301525f6060830152612279815191826113c2565b601d81527f556e737461626c653a2052616e646f6d2064616d6167652031352d32350000006020820152608082015290565b50506040516122b9816113a6565b604080516122c782826113c2565b6004815263111d5cdd60e21b6020820152825280516122e682826113c2565b600c81526b44757374205068616e746f6d60a01b602082015260208301526001818301526001606083015261231d815191826113c2565b601c81527f426c696e643a2033302520656e656d79206d697373206368616e6365000000006020820152608082015290565b505060405161235d816113a6565b6040805161236b82826113c2565b600381526249636560e81b60208201528252805161238982826113c2565b600e81526d119c9bdcdd0814d95b9d1a5b995b60921b6020820152602083015260018183015260016060830152632035302560e01b8151916123cc6060846113c2565b602483527f467265657a653a20526564756365206f70706f6e656e742073706565642062796020840152820152608082015290565b505060405161240f816113a6565b6040805161241d82826113c2565b60068152654e617475726560d01b60208201528252805161243e82826113c2565b600d81526c2730ba3ab932902bb0b93232b760991b602082015260208301525f8183015260026060830152612475815191826113c2565b601e81527f526567656e65726174653a204865616c203120485020706572207475726e00006020820152608082015290565b50506040516124b5816113a6565b6124bd611ded565b8152604080516124cd82826113c2565b600f81526e2a343ab73232b91029ba3934b5b2b960891b602082015260208301526004818301525f6060830152612506815191826113c2565b601981527f53686f636b3a20333025206368616e636520746f207374756e000000000000006020820152608082015290565b5050604051612546816113a6565b6040805161255482826113c2565b60048152634c61766160e01b60208201528252805161257382826113c2565b600a8152692630bb30902a34ba30b760b11b60208201526020830152600281830152600160608301526a33b2903832b9103a3ab93760a91b8151916125b96060846113c2565b602b83527f4d6f6c74656e3a204275726e206f70706f6e656e7420666f7220322064616d616020840152820152608082015290565b50506040516125fc816113a6565b6040805161260a82826113c2565b6005815264537465616d60d81b60208201528252805161262a82826113c2565b600b81526a537465616d20476f6c656d60a81b602082015260208301526001818301526001606083015267792062792032302560c01b81519161266e6060846113c2565b602883527f4f6273637572653a20526564756365206f70706f6e656e7420616363757261636020840152820152608082015290565b50506040516126b1816113a6565b6126b9611ded565b8152604080516126c982826113c2565b600b81526a2d32bab9902932b137b93760a91b6020820152602083015260048183015260026060830152696c6c20656e656d69657360b01b81519161270f6060846113c2565b602a83527f4f7665726c6f61643a20436861696e206c696768746e696e67206869747320616020840152820152608082015290565b50612756612750611ded565b82612ab4565b611eab565b5050604051612769816113a6565b612771611dcc565b81526040805161278182826113c2565b600d81526c29b5bc9029b7bb32b932b4b3b760991b60208201526020830152600281830152600260608301526b6d756c74616e656f75736c7960a01b8151916127cb6060846113c2565b602c83527f546f726e61646f3a2041747461636b20616c6c206f70706f6e656e74732073696020840152820152608082015290565b5061280c612750611dcc565b611e96565b505060405161281f816113a6565b612827611da9565b81526040805161283782826113c2565b600e81526d53746f6e6520466f72747265737360901b602082015260208301525f81830152600460608301526c672064616d616765206279203360981b8151916128826060846113c2565b602d83527f4469616d6f6e6420536b696e3a2052656475636520616c6c20696e636f6d696e6020840152820152608082015290565b506128c3612750611da9565b611e81565b50506040516128d6816113a6565b6128de611d86565b8152604080516128ee82826113c2565b601081526f088cacae040a6cac2409adedcc2e4c6d60831b602082015260208301525f81830152600360608301526261636b60e81b8151916129316060846113c2565b602383527f546964616c20576176653a205075736820616c6c206f70706f6e656e747320626020840152820152608082015290565b50612972612750611d86565b611e6c565b5050604051612985816113a6565b61298d611d64565b81526040805161299d82826113c2565b601081526f24b73332b937379021b430b6b834b7b760811b602082015260208301526003818301525f606083015264616d61676560d81b8151916129e26060846113c2565b602583527f446f75626c6520466c616d653a204465616c20646f75626c65206275726e20646020840152820152608082015290565b50612a23612750611d64565b611e57565b9061ffff8091169116019061ffff82116118fc57565b60ff617fff612a5f612a6b94612a59612a7098859a98611ab5565b94612a28565b60011c16911690612a28565b612a28565b911680612a88575b5061ffff811661152b5750600190565b908161ffff8216115f14612aab5761ffff160361ffff81116118fc575b5f612a78565b50506001612aa5565b604051612ae06020828180820195805191829101875e81015f838201520301601f1981018352826113c2565b51902090604051612b106020828180820195805191829101875e81015f838201520301601f1981018352826113c2565b5190201490565b92919091612b258285612ab4565b9384612b69575b8415612b3a575b5050505090565b612b4692939450612ab4565b9182612b58575b50505f808080612b33565b612b629250612ab4565b5f80612b4d565b9350612b758184612ab4565b93612b2c56fe9b779b17422d0df92223018b32b4d1fa46e071723d6817e2486d003becc55f00a2646970667358221220d55a85b56c5cf5b3d0dbcdc8d4fd5551e6b853c20e265f024ec3b220a40ad7a064736f6c634300081c0033",
          "opcodes": "PUSH1 0x80 CALLVALUE PUSH2 0xF2 JUMPI PUSH1 0x1F PUSH2 0x2CDC CODESIZE DUP2 SWAP1 SUB SWAP2 DUP3 ADD PUSH1 0x1F NOT AND DUP4 ADD SWAP2 PUSH1 0x1 PUSH1 0x1 PUSH1 0x40 SHL SUB DUP4 GT DUP5 DUP5 LT OR PUSH2 0xF6 JUMPI DUP1 DUP5 SWAP3 PUSH1 0x20 SWAP5 PUSH1 0x40 MSTORE DUP4 CODECOPY DUP2 ADD SUB SLT PUSH2 0xF2 JUMPI MLOAD PUSH1 0x1 PUSH1 0x1 PUSH1 0xA0 SHL SUB DUP2 AND SWAP1 DUP2 SWAP1 SUB PUSH2 0xF2 JUMPI CALLER ISZERO PUSH2 0xDF JUMPI PUSH0 DUP1 SLOAD CALLER PUSH1 0x1 PUSH1 0x1 PUSH1 0xA0 SHL SUB NOT DUP3 AND DUP2 OR DUP4 SSTORE PUSH1 0x40 MLOAD SWAP4 SWAP3 SWAP1 SWAP2 PUSH1 0x1 PUSH1 0x1 PUSH1 0xA0 SHL SUB AND SWAP1 PUSH32 0x8BE0079C531659141344CD1FD0A4F28419497F9722A3DAAFE3B4186F6B6457E0 SWAP1 DUP1 LOG3 PUSH1 0x1 PUSH32 0x9B779B17422D0DF92223018B32B4D1FA46E071723D6817E2486D003BECC55F00 SSTORE PUSH1 0x1 DUP1 PUSH1 0xA0 SHL SUB NOT PUSH1 0x1 SLOAD AND OR PUSH1 0x1 SSTORE PUSH2 0x2BD1 SWAP1 DUP2 PUSH2 0x10B DUP3 CODECOPY RETURN JUMPDEST PUSH4 0x1E4FBDF7 PUSH1 0xE0 SHL PUSH0 MSTORE PUSH0 PUSH1 0x4 MSTORE PUSH1 0x24 PUSH0 REVERT JUMPDEST PUSH0 DUP1 REVERT JUMPDEST PUSH4 0x4E487B71 PUSH1 0xE0 SHL PUSH0 MSTORE PUSH1 0x41 PUSH1 0x4 MSTORE PUSH1 0x24 PUSH0 REVERT INVALID PUSH1 0x80 PUSH1 0x40 MSTORE PUSH1 0x4 CALLDATASIZE LT ISZERO PUSH2 0x11 JUMPI PUSH0 DUP1 REVERT JUMPDEST PUSH0 PUSH0 CALLDATALOAD PUSH1 0xE0 SHR DUP1 PUSH4 0x31337DD EQ PUSH2 0x1319 JUMPI DUP1 PUSH4 0x159D2DB1 EQ PUSH2 0x12D3 JUMPI DUP1 PUSH4 0x38D5D7D1 EQ PUSH2 0x12AB JUMPI DUP1 PUSH4 0x5074D57F EQ PUSH2 0x126F JUMPI DUP1 PUSH4 0x5253E802 EQ PUSH2 0x11A6 JUMPI DUP1 PUSH4 0x52FF6BAF EQ PUSH2 0x1254 JUMPI DUP1 PUSH4 0x54831354 EQ PUSH2 0x1239 JUMPI DUP1 PUSH4 0x715018A6 EQ PUSH2 0x11E2 JUMPI DUP1 PUSH4 0x86198104 EQ PUSH2 0x11A6 JUMPI DUP1 PUSH4 0x8CD885E0 EQ PUSH2 0xEAD JUMPI DUP1 PUSH4 0x8DA5CB5B EQ PUSH2 0xE86 JUMPI DUP1 PUSH4 0xB5316F47 EQ PUSH2 0x7E9 JUMPI DUP1 PUSH4 0xB8EF1CA5 EQ PUSH2 0x591 JUMPI DUP1 PUSH4 0xCD133B01 EQ PUSH2 0x1D4 JUMPI DUP1 PUSH4 0xEBF8A59E EQ PUSH2 0x158 JUMPI PUSH4 0xF2FDE38B EQ PUSH2 0xCA JUMPI PUSH0 DUP1 REVERT JUMPDEST CALLVALUE PUSH2 0x155 JUMPI PUSH1 0x20 CALLDATASIZE PUSH1 0x3 NOT ADD SLT PUSH2 0x155 JUMPI PUSH1 0x4 CALLDATALOAD PUSH1 0x1 PUSH1 0x1 PUSH1 0xA0 SHL SUB DUP2 AND SWAP1 DUP2 SWAP1 SUB PUSH2 0x153 JUMPI PUSH2 0xF8 PUSH2 0x1A57 JUMP JUMPDEST DUP1 ISZERO PUSH2 0x13F JUMPI DUP2 SLOAD PUSH1 0x1 PUSH1 0x1 PUSH1 0xA0 SHL SUB NOT DUP2 AND DUP3 OR DUP4 SSTORE PUSH1 0x1 PUSH1 0x1 PUSH1 0xA0 SHL SUB AND PUSH32 0x8BE0079C531659141344CD1FD0A4F28419497F9722A3DAAFE3B4186F6B6457E0 DUP4 DUP1 LOG3 DUP1 RETURN JUMPDEST PUSH4 0x1E4FBDF7 PUSH1 0xE0 SHL DUP3 MSTORE PUSH1 0x4 DUP3 SWAP1 MSTORE PUSH1 0x24 DUP3 REVERT JUMPDEST POP JUMPDEST DUP1 REVERT JUMPDEST POP CALLVALUE PUSH2 0x155 JUMPI PUSH1 0xFF PUSH1 0xE0 PUSH2 0x1D0 PUSH2 0xFFFF PUSH2 0x1BC DUP5 PUSH2 0x17E PUSH2 0x178 CALLDATASIZE PUSH2 0x133C JUMP JUMPDEST SWAP1 PUSH2 0x1910 JUMP JUMPDEST SWAP8 SWAP6 SWAP12 SWAP3 SWAP2 SWAP4 DUP10 PUSH2 0x19C PUSH1 0x40 SWAP12 SWAP4 SWAP12 MLOAD SWAP15 DUP16 SWAP15 DUP16 DUP2 DUP2 MSTORE ADD SWAP1 PUSH2 0x1352 JUMP JUMPDEST SWAP7 AND PUSH1 0x20 DUP14 ADD MSTORE AND PUSH1 0x40 DUP12 ADD MSTORE AND PUSH1 0x60 DUP10 ADD MSTORE DUP8 DUP3 SUB PUSH1 0x80 DUP10 ADD MSTORE PUSH2 0x1352 JUMP JUMPDEST SWAP3 AND PUSH1 0xA0 DUP6 ADD MSTORE DUP4 DUP3 SUB PUSH1 0xC0 DUP6 ADD MSTORE PUSH2 0x1352 JUMP JUMPDEST SUB SWAP1 RETURN JUMPDEST POP CALLVALUE PUSH2 0x155 JUMPI PUSH2 0x1E3 CALLDATASIZE PUSH2 0x133C JUMP JUMPDEST SWAP2 PUSH2 0x1EC PUSH2 0x1A7D JUMP JUMPDEST CALLER DUP2 MSTORE PUSH1 0x2 PUSH1 0x20 MSTORE PUSH1 0x40 DUP2 KECCAK256 SLOAD ISZERO DUP1 ISZERO PUSH2 0x55C JUMPI JUMPDEST PUSH2 0x20A SWAP1 PUSH2 0x1798 JUMP JUMPDEST PUSH2 0x21C PUSH2 0x217 DUP5 DUP5 PUSH2 0x152E JUMP JUMPDEST PUSH2 0x17D6 JUMP JUMPDEST PUSH1 0x1 SLOAD PUSH1 0x40 MLOAD PUSH4 0x31A9108F PUSH1 0xE1 SHL DUP2 MSTORE PUSH1 0x4 DUP2 ADD DUP5 SWAP1 MSTORE PUSH1 0x1 PUSH1 0x1 PUSH1 0xA0 SHL SUB SWAP1 SWAP2 AND SWAP1 PUSH1 0x20 DUP2 PUSH1 0x24 DUP2 DUP6 GAS STATICCALL SWAP1 DUP2 ISZERO PUSH2 0x551 JUMPI SWAP1 PUSH2 0x26C SWAP2 DUP5 SWAP2 PUSH2 0x522 JUMPI JUMPDEST POP PUSH1 0x1 PUSH1 0x1 PUSH1 0xA0 SHL SUB AND CALLER EQ PUSH2 0x1818 JUMP JUMPDEST DUP1 EXTCODESIZE ISZERO PUSH2 0x153 JUMPI DUP2 DUP1 SWAP2 PUSH1 0x24 PUSH1 0x40 MLOAD DUP1 SWAP5 DUP2 SWAP4 PUSH4 0x223DF05B PUSH1 0xE2 SHL DUP4 MSTORE DUP9 PUSH1 0x4 DUP5 ADD MSTORE GAS CALL DUP1 ISZERO PUSH2 0x48D JUMPI SWAP1 DUP3 SWAP2 PUSH2 0x50D JUMPI JUMPDEST POP POP PUSH1 0x1 SLOAD PUSH1 0x1 PUSH1 0x1 PUSH1 0xA0 SHL SUB AND DUP1 EXTCODESIZE ISZERO PUSH2 0x153 JUMPI DUP2 DUP1 SWAP2 PUSH1 0x24 PUSH1 0x40 MLOAD DUP1 SWAP5 DUP2 SWAP4 PUSH4 0x223DF05B PUSH1 0xE2 SHL DUP4 MSTORE DUP10 PUSH1 0x4 DUP5 ADD MSTORE GAS CALL DUP1 ISZERO PUSH2 0x48D JUMPI SWAP1 DUP3 SWAP2 PUSH2 0x4F8 JUMPI JUMPDEST POP POP PUSH2 0x2EC DUP4 DUP4 PUSH2 0x1910 JUMP JUMPDEST SWAP2 SWAP5 SWAP9 SWAP6 SWAP4 SWAP3 POP PUSH1 0x1 DUP1 PUSH1 0xA0 SHL SUB PUSH1 0x1 SLOAD AND SWAP5 PUSH1 0x40 MLOAD PUSH4 0xD5AAA5B PUSH1 0xE4 SHL DUP2 MSTORE DUP10 PUSH1 0x4 DUP3 ADD MSTORE DUP9 DUP2 PUSH1 0x24 DUP2 DUP11 GAS STATICCALL SWAP1 DUP2 ISZERO PUSH2 0x4ED JUMPI DUP10 SWAP2 PUSH2 0x4CC JUMPI JUMPDEST POP PUSH1 0x40 MLOAD PUSH4 0xD5AAA5B PUSH1 0xE4 SHL DUP2 MSTORE PUSH1 0x4 DUP2 ADD DUP10 SWAP1 MSTORE DUP10 DUP2 PUSH1 0x24 DUP2 DUP12 GAS STATICCALL SWAP1 DUP2 ISZERO PUSH2 0x4C1 JUMPI SWAP2 DUP12 SWAP4 SWAP2 DUP11 SWAP6 SWAP4 DUP13 SWAP2 PUSH2 0x498 JUMPI JUMPDEST POP CALLER SWAP1 TIMESTAMP SWAP1 PUSH2 0x368 SWAP4 PUSH2 0x1CEA JUMP JUMPDEST PUSH1 0x40 MLOAD PUSH4 0x728AF1D7 PUSH1 0xE0 SHL DUP2 MSTORE SWAP13 DUP14 SWAP9 DUP10 SWAP9 PUSH2 0x38B SWAP9 SWAP1 SWAP4 SWAP1 CALLER PUSH1 0x4 DUP13 ADD PUSH2 0x1874 JUMP JUMPDEST SUB DUP2 DUP6 GAS SWAP5 PUSH1 0x20 SWAP6 CALL SWAP3 DUP4 ISZERO PUSH2 0x48D JUMPI DUP3 SWAP4 PUSH2 0x454 JUMPI JUMPDEST PUSH1 0x20 SWAP5 POP PUSH1 0x40 MLOAD PUSH2 0x3B2 DUP2 PUSH2 0x1376 JUMP JUMPDEST DUP2 DUP2 MSTORE PUSH1 0x2 DUP7 DUP3 ADD SWAP2 DUP5 DUP4 MSTORE PUSH1 0x40 DUP2 ADD SWAP3 PUSH1 0x1 DUP5 MSTORE DUP8 DUP8 MSTORE PUSH1 0x4 DUP10 MSTORE PUSH1 0x40 DUP8 KECCAK256 SWAP2 MLOAD DUP3 SSTORE MLOAD PUSH1 0x1 DUP3 ADD SSTORE ADD SWAP1 MLOAD ISZERO ISZERO PUSH1 0xFF DUP1 NOT DUP4 SLOAD AND SWAP2 AND OR SWAP1 SSTORE CALLER DUP4 MSTORE PUSH1 0x3 DUP6 MSTORE PUSH1 0x40 DUP4 KECCAK256 PUSH2 0x402 DUP2 SLOAD PUSH2 0x18EE JUMP JUMPDEST SWAP1 SSTORE DUP4 PUSH32 0x1B51F6394711765B052ED4F913B1B7FCF12D81F19ECE0EE262798470919FB091 DUP7 PUSH1 0x40 MLOAD CALLER DUP2 MSTORE LOG4 CALLER DUP2 MSTORE PUSH1 0x2 DUP4 MSTORE PUSH1 0x40 NUMBER SWAP2 KECCAK256 SSTORE PUSH1 0x1 PUSH0 MLOAD PUSH1 0x20 PUSH2 0x2B7C PUSH0 CODECOPY PUSH0 MLOAD SWAP1 PUSH0 MSTORE SSTORE PUSH1 0x40 MLOAD SWAP1 DUP2 MSTORE RETURN JUMPDEST SWAP3 POP PUSH1 0x20 DUP5 RETURNDATASIZE PUSH1 0x20 GT PUSH2 0x485 JUMPI JUMPDEST DUP2 PUSH2 0x46F PUSH1 0x20 SWAP4 DUP4 PUSH2 0x13C2 JUMP JUMPDEST DUP2 ADD SUB SLT PUSH2 0x481 JUMPI PUSH1 0x20 SWAP4 MLOAD SWAP3 PUSH2 0x3A2 JUMP JUMPDEST PUSH0 DUP1 REVERT JUMPDEST RETURNDATASIZE SWAP2 POP PUSH2 0x462 JUMP JUMPDEST PUSH1 0x40 MLOAD RETURNDATASIZE DUP5 DUP3 RETURNDATACOPY RETURNDATASIZE SWAP1 REVERT JUMPDEST PUSH2 0x4B4 SWAP2 POP RETURNDATASIZE DUP1 DUP15 DUP4 RETURNDATACOPY PUSH2 0x4AC DUP2 DUP4 PUSH2 0x13C2 JUMP JUMPDEST DUP2 ADD SWAP1 PUSH2 0x148E JUMP JUMPDEST POP POP POP POP POP SWAP1 POP PUSH0 PUSH2 0x35A JUMP JUMPDEST PUSH1 0x40 MLOAD RETURNDATASIZE DUP13 DUP3 RETURNDATACOPY RETURNDATASIZE SWAP1 REVERT JUMPDEST PUSH2 0x4E0 SWAP2 POP RETURNDATASIZE DUP1 DUP12 DUP4 RETURNDATACOPY PUSH2 0x4AC DUP2 DUP4 PUSH2 0x13C2 JUMP JUMPDEST POP POP POP POP POP SWAP1 POP PUSH0 PUSH2 0x328 JUMP JUMPDEST PUSH1 0x40 MLOAD RETURNDATASIZE DUP12 DUP3 RETURNDATACOPY RETURNDATASIZE SWAP1 REVERT JUMPDEST DUP2 PUSH2 0x502 SWAP2 PUSH2 0x13C2 JUMP JUMPDEST PUSH2 0x155 JUMPI DUP1 PUSH0 PUSH2 0x2E0 JUMP JUMPDEST DUP2 PUSH2 0x517 SWAP2 PUSH2 0x13C2 JUMP JUMPDEST PUSH2 0x155 JUMPI DUP1 PUSH0 PUSH2 0x29F JUMP JUMPDEST PUSH2 0x544 SWAP2 POP PUSH1 0x20 RETURNDATASIZE PUSH1 0x20 GT PUSH2 0x54A JUMPI JUMPDEST PUSH2 0x53C DUP2 DUP4 PUSH2 0x13C2 JUMP JUMPDEST DUP2 ADD SWAP1 PUSH2 0x13FC JUMP JUMPDEST PUSH0 PUSH2 0x25B JUMP JUMPDEST POP RETURNDATASIZE PUSH2 0x532 JUMP JUMPDEST PUSH1 0x40 MLOAD RETURNDATASIZE DUP6 DUP3 RETURNDATACOPY RETURNDATASIZE SWAP1 REVERT JUMPDEST POP CALLER DUP2 MSTORE PUSH1 0x2 PUSH1 0x20 MSTORE PUSH1 0x40 DUP2 KECCAK256 SLOAD PUSH1 0x64 DUP2 ADD DUP1 SWAP2 GT PUSH2 0x57D JUMPI NUMBER LT ISZERO PUSH2 0x201 JUMP JUMPDEST PUSH4 0x4E487B71 PUSH1 0xE0 SHL DUP3 MSTORE PUSH1 0x11 PUSH1 0x4 MSTORE PUSH1 0x24 DUP3 REVERT JUMPDEST POP CALLVALUE PUSH2 0x155 JUMPI PUSH1 0x20 CALLDATASIZE PUSH1 0x3 NOT ADD SLT PUSH2 0x155 JUMPI PUSH1 0x4 CALLDATALOAD PUSH2 0x5AE PUSH2 0x1A7D JUMP JUMPDEST PUSH1 0x1 SLOAD PUSH1 0x40 MLOAD PUSH4 0x31A9108F PUSH1 0xE1 SHL DUP2 MSTORE PUSH1 0x4 DUP2 ADD DUP4 SWAP1 MSTORE PUSH1 0x1 PUSH1 0x1 PUSH1 0xA0 SHL SUB SWAP1 SWAP2 AND SWAP1 PUSH1 0x20 DUP2 PUSH1 0x24 DUP2 DUP6 GAS STATICCALL DUP1 ISZERO PUSH2 0x7DE JUMPI PUSH2 0x5FB SWAP2 DUP6 SWAP2 PUSH2 0x522 JUMPI POP PUSH1 0x1 PUSH1 0x1 PUSH1 0xA0 SHL SUB AND CALLER EQ PUSH2 0x1818 JUMP JUMPDEST DUP2 DUP4 MSTORE PUSH1 0x4 PUSH1 0x20 MSTORE PUSH1 0xFF PUSH1 0x2 PUSH1 0x40 DUP6 KECCAK256 ADD SLOAD AND ISZERO PUSH2 0x7A0 JUMPI DUP2 DUP4 MSTORE PUSH1 0x4 PUSH1 0x20 MSTORE PUSH1 0x40 DUP4 KECCAK256 SWAP1 DUP4 PUSH1 0x40 MLOAD SWAP2 PUSH2 0x62E DUP4 PUSH2 0x1376 JUMP JUMPDEST DUP4 SLOAD DUP1 DUP5 MSTORE PUSH1 0xFF PUSH1 0x2 PUSH1 0x1 DUP8 ADD SLOAD SWAP7 PUSH1 0x20 DUP8 ADD SWAP8 DUP9 MSTORE ADD SLOAD AND ISZERO ISZERO PUSH1 0x40 DUP6 ADD MSTORE DUP2 EXTCODESIZE ISZERO PUSH2 0x787 JUMPI DUP3 SWAP2 PUSH1 0x24 DUP4 SWAP3 PUSH1 0x40 MLOAD SWAP5 DUP6 SWAP4 DUP5 SWAP3 PUSH4 0x3191A51B PUSH1 0xE2 SHL DUP5 MSTORE PUSH1 0x4 DUP5 ADD MSTORE GAS CALL DUP1 ISZERO PUSH2 0x48D JUMPI PUSH2 0x78B JUMPI JUMPDEST POP PUSH1 0x1 DUP1 PUSH1 0xA0 SHL SUB PUSH1 0x1 SLOAD AND DUP4 MLOAD DUP2 EXTCODESIZE ISZERO PUSH2 0x787 JUMPI DUP3 SWAP2 PUSH1 0x24 DUP4 SWAP3 PUSH1 0x40 MLOAD SWAP5 DUP6 SWAP4 DUP5 SWAP3 PUSH4 0x3191A51B PUSH1 0xE2 SHL DUP5 MSTORE PUSH1 0x4 DUP5 ADD MSTORE GAS CALL DUP1 ISZERO PUSH2 0x48D JUMPI PUSH2 0x772 JUMPI JUMPDEST POP DUP4 SWAP1 MSTORE PUSH1 0x4 PUSH1 0x20 MSTORE DUP4 PUSH1 0x2 PUSH1 0x40 DUP3 KECCAK256 DUP3 DUP2 SSTORE DUP3 PUSH1 0x1 DUP3 ADD SSTORE ADD SSTORE DUP4 PUSH1 0x1 DUP1 PUSH1 0xA0 SHL SUB PUSH1 0x1 SLOAD AND DUP1 EXTCODESIZE ISZERO PUSH2 0x153 JUMPI DUP2 DUP1 SWAP2 PUSH1 0x24 PUSH1 0x40 MLOAD DUP1 SWAP5 DUP2 SWAP4 PUSH4 0x852CD8D PUSH1 0xE3 SHL DUP4 MSTORE DUP11 PUSH1 0x4 DUP5 ADD MSTORE GAS CALL DUP1 ISZERO PUSH2 0x48D JUMPI PUSH2 0x759 JUMPI JUMPDEST POP POP MLOAD SWAP1 MLOAD SWAP2 PUSH32 0xE511AC1C119629D5BB660F438ADCA2C8E01B82C6870E17EB27C6C85D99C9E355 PUSH1 0x20 PUSH1 0x40 MLOAD CALLER DUP2 MSTORE LOG4 PUSH1 0x1 PUSH0 MLOAD PUSH1 0x20 PUSH2 0x2B7C PUSH0 CODECOPY PUSH0 MLOAD SWAP1 PUSH0 MSTORE SSTORE DUP1 RETURN JUMPDEST DUP2 PUSH2 0x763 SWAP2 PUSH2 0x13C2 JUMP JUMPDEST PUSH2 0x76E JUMPI DUP4 PUSH0 PUSH2 0x715 JUMP JUMPDEST DUP4 DUP1 REVERT JUMPDEST DUP2 PUSH2 0x77C SWAP2 PUSH2 0x13C2 JUMP JUMPDEST PUSH2 0x76E JUMPI DUP4 PUSH0 PUSH2 0x6BE JUMP JUMPDEST DUP3 DUP1 REVERT JUMPDEST DUP2 PUSH2 0x795 SWAP2 PUSH2 0x13C2 JUMP JUMPDEST PUSH2 0x76E JUMPI DUP4 PUSH0 PUSH2 0x67F JUMP JUMPDEST PUSH1 0x40 MLOAD PUSH3 0x461BCD PUSH1 0xE5 SHL DUP2 MSTORE PUSH1 0x20 PUSH1 0x4 DUP3 ADD MSTORE PUSH1 0x16 PUSH1 0x24 DUP3 ADD MSTORE PUSH22 0x139BDD0818481D985B1A5908199D5CD9590818D85C99 PUSH1 0x52 SHL PUSH1 0x44 DUP3 ADD MSTORE PUSH1 0x64 SWAP1 REVERT JUMPDEST PUSH1 0x40 MLOAD RETURNDATASIZE DUP7 DUP3 RETURNDATACOPY RETURNDATASIZE SWAP1 REVERT JUMPDEST POP CALLVALUE PUSH2 0x155 JUMPI PUSH1 0x60 CALLDATASIZE PUSH1 0x3 NOT ADD SLT PUSH2 0x155 JUMPI PUSH1 0x4 CALLDATALOAD PUSH1 0x24 CALLDATALOAD SWAP2 PUSH1 0x44 CALLDATALOAD SWAP3 PUSH8 0xFFFFFFFFFFFFFFFF DUP5 GT PUSH2 0x153 JUMPI CALLDATASIZE PUSH1 0x23 DUP6 ADD SLT ISZERO PUSH2 0x153 JUMPI DUP4 PUSH1 0x4 ADD CALLDATALOAD SWAP3 PUSH8 0xFFFFFFFFFFFFFFFF DUP5 GT PUSH2 0x787 JUMPI PUSH1 0x24 DUP6 ADD SWAP5 PUSH1 0x24 CALLDATASIZE SWAP2 DUP7 PUSH1 0x5 SHL ADD ADD GT PUSH2 0x787 JUMPI PUSH2 0x851 PUSH2 0x1A7D JUMP JUMPDEST CALLER DUP4 MSTORE PUSH1 0x2 PUSH1 0x20 MSTORE PUSH1 0x40 DUP4 KECCAK256 SLOAD ISZERO DUP1 ISZERO PUSH2 0xE51 JUMPI JUMPDEST PUSH2 0x86F SWAP1 PUSH2 0x1798 JUMP JUMPDEST PUSH2 0x87C PUSH2 0x217 DUP4 DUP4 PUSH2 0x152E JUMP JUMPDEST PUSH1 0x1 SLOAD PUSH1 0x40 MLOAD PUSH4 0x31A9108F PUSH1 0xE1 SHL DUP2 MSTORE PUSH1 0x4 DUP2 ADD DUP4 SWAP1 MSTORE PUSH1 0x1 PUSH1 0x1 PUSH1 0xA0 SHL SUB SWAP1 SWAP2 AND SWAP5 SWAP1 PUSH1 0x20 DUP2 PUSH1 0x24 DUP2 DUP10 GAS STATICCALL SWAP1 DUP2 ISZERO PUSH2 0xE21 JUMPI SWAP1 PUSH2 0x8CC SWAP2 DUP7 SWAP2 PUSH2 0x522 JUMPI POP PUSH1 0x1 PUSH1 0x1 PUSH1 0xA0 SHL SUB AND CALLER EQ PUSH2 0x1818 JUMP JUMPDEST PUSH1 0x40 MLOAD PUSH4 0xD5AAA5B PUSH1 0xE4 SHL DUP2 MSTORE PUSH1 0x4 DUP2 ADD DUP4 SWAP1 MSTORE SWAP6 DUP5 DUP8 PUSH1 0x24 DUP2 DUP10 GAS STATICCALL SWAP6 DUP7 ISZERO PUSH2 0xE21 JUMPI PUSH1 0x24 SWAP8 DUP7 SWAP8 PUSH2 0xE2C JUMPI JUMPDEST POP DUP6 SWAP1 PUSH1 0x40 MLOAD SWAP9 DUP10 DUP1 SWAP3 PUSH4 0xD5AAA5B PUSH1 0xE4 SHL DUP3 MSTORE DUP9 PUSH1 0x4 DUP4 ADD MSTORE GAS STATICCALL SWAP7 DUP8 ISZERO PUSH2 0xE21 JUMPI DUP6 SWAP8 PUSH2 0xDFE JUMPI JUMPDEST POP PUSH1 0xFF PUSH2 0x931 DUP9 DUP9 PUSH2 0x1AB5 JUMP JUMPDEST AND PUSH1 0x2 DUP2 LT ISZERO PUSH2 0xB55 JUMPI JUMPDEST POP POP POP PUSH2 0x95F SWAP4 SWAP5 PUSH2 0x94E DUP4 DUP4 PUSH2 0x1910 JUMP JUMPDEST SWAP4 SWAP11 SWAP3 POP SWAP6 SWAP1 SWAP5 SWAP11 CALLER SWAP2 TIMESTAMP SWAP2 PUSH2 0x1CEA JUMP JUMPDEST PUSH1 0x1 SLOAD SWAP1 SWAP5 SWAP1 PUSH1 0x1 PUSH1 0x1 PUSH1 0xA0 SHL SUB AND DUP1 EXTCODESIZE ISZERO PUSH2 0xB3C JUMPI DUP9 DUP1 SWAP2 PUSH1 0x24 PUSH1 0x40 MLOAD DUP1 SWAP5 DUP2 SWAP4 PUSH4 0x852CD8D PUSH1 0xE3 SHL DUP4 MSTORE DUP13 PUSH1 0x4 DUP5 ADD MSTORE GAS CALL DUP1 ISZERO PUSH2 0x4ED JUMPI SWAP1 DUP10 SWAP2 PUSH2 0xB40 JUMPI JUMPDEST POP POP PUSH1 0x1 SLOAD PUSH1 0x1 PUSH1 0x1 PUSH1 0xA0 SHL SUB AND DUP1 EXTCODESIZE ISZERO PUSH2 0xB3C JUMPI DUP9 DUP1 SWAP2 PUSH1 0x24 PUSH1 0x40 MLOAD DUP1 SWAP5 DUP2 SWAP4 PUSH4 0x852CD8D PUSH1 0xE3 SHL DUP4 MSTORE DUP14 PUSH1 0x4 DUP5 ADD MSTORE GAS CALL DUP1 ISZERO PUSH2 0x4ED JUMPI DUP12 SWAP4 SWAP3 DUP11 DUP11 SWAP4 DUP11 SWAP4 PUSH2 0xB16 JUMPI JUMPDEST POP POP PUSH1 0x1 SLOAD PUSH1 0x40 MLOAD PUSH4 0x728AF1D7 PUSH1 0xE0 SHL DUP2 MSTORE SWAP13 PUSH1 0x1 PUSH1 0x1 PUSH1 0xA0 SHL SUB SWAP1 SWAP2 AND SWAP8 DUP14 SWAP8 DUP9 SWAP8 PUSH2 0xA1D SWAP8 SWAP3 SWAP4 SWAP3 DUP13 SWAP1 CALLER PUSH1 0x4 DUP13 ADD PUSH2 0x1874 JUMP JUMPDEST SUB DUP2 DUP8 GAS SWAP5 PUSH1 0x20 SWAP6 CALL SWAP5 DUP6 ISZERO PUSH2 0x7DE JUMPI DUP5 SWAP6 PUSH2 0xAC0 JUMPI JUMPDEST POP PUSH32 0x2C9421A36E07AEA8B59CAC354F4578D84D1E2EBA2E0124F38876AB378DEAAB57 PUSH2 0xA90 PUSH1 0x20 SWAP8 DUP8 SWAP4 CALLER DUP9 MSTORE PUSH1 0x3 DUP11 MSTORE PUSH1 0x40 DUP9 KECCAK256 PUSH2 0xA73 DUP2 SLOAD PUSH2 0x18EE JUMP JUMPDEST SWAP1 SSTORE PUSH1 0xFF PUSH1 0x40 MLOAD SWAP4 DUP5 SWAP4 CALLER DUP6 MSTORE PUSH1 0x60 DUP14 DUP7 ADD MSTORE PUSH1 0x60 DUP6 ADD SWAP1 PUSH2 0x1352 JUMP JUMPDEST SWAP2 AND PUSH1 0x40 DUP4 ADD MSTORE SUB SWAP1 LOG4 CALLER DUP2 MSTORE PUSH1 0x2 DUP4 MSTORE PUSH1 0x40 NUMBER SWAP2 KECCAK256 SSTORE PUSH1 0x1 PUSH0 MLOAD PUSH1 0x20 PUSH2 0x2B7C PUSH0 CODECOPY PUSH0 MLOAD SWAP1 PUSH0 MSTORE SSTORE PUSH1 0x40 MLOAD SWAP1 DUP2 MSTORE RETURN JUMPDEST SWAP6 SWAP5 POP PUSH1 0x20 DUP7 RETURNDATASIZE PUSH1 0x20 GT PUSH2 0xB0E JUMPI JUMPDEST DUP2 PUSH2 0xADC PUSH1 0x20 SWAP4 DUP4 PUSH2 0x13C2 JUMP JUMPDEST DUP2 ADD SUB SLT PUSH2 0x481 JUMPI SWAP5 MLOAD SWAP4 SWAP5 PUSH32 0x2C9421A36E07AEA8B59CAC354F4578D84D1E2EBA2E0124F38876AB378DEAAB57 PUSH2 0xA34 JUMP JUMPDEST RETURNDATASIZE SWAP2 POP PUSH2 0xACF JUMP JUMPDEST SWAP1 SWAP4 POP DUP4 SWAP2 SWAP5 SWAP6 POP PUSH2 0xB28 SWAP3 POP PUSH2 0x13C2 JUMP JUMPDEST PUSH2 0xB38 JUMPI SWAP1 DUP7 DUP7 DUP12 SWAP4 DUP11 PUSH0 PUSH2 0x9E7 JUMP JUMPDEST DUP8 DUP1 REVERT JUMPDEST DUP9 DUP1 REVERT JUMPDEST DUP2 PUSH2 0xB4A SWAP2 PUSH2 0x13C2 JUMP JUMPDEST PUSH2 0xB38 JUMPI DUP8 PUSH0 PUSH2 0x9A1 JUMP JUMPDEST PUSH0 NOT ADD PUSH1 0xFF DUP2 GT PUSH2 0xDEA JUMPI PUSH1 0xFF AND SWAP2 DUP3 DUP2 LT PUSH2 0xDA5 JUMPI DUP6 JUMPDEST DUP4 DUP2 LT PUSH2 0xB7A JUMPI POP PUSH2 0x93C JUMP JUMPDEST PUSH1 0x1 SLOAD PUSH1 0x1 PUSH1 0x1 PUSH1 0xA0 SHL SUB AND PUSH2 0xB91 DUP3 DUP5 DUP7 PUSH2 0x1850 JUMP JUMPDEST PUSH1 0x40 MLOAD PUSH4 0x31A9108F PUSH1 0xE1 SHL DUP2 MSTORE SWAP1 CALLDATALOAD PUSH1 0x4 DUP3 ADD MSTORE PUSH1 0x20 DUP2 PUSH1 0x24 DUP2 DUP6 GAS STATICCALL SWAP1 DUP2 ISZERO PUSH2 0x4ED JUMPI DUP10 SWAP2 PUSH2 0xD87 JUMPI JUMPDEST POP CALLER PUSH1 0x1 PUSH1 0x1 PUSH1 0xA0 SHL SUB SWAP1 SWAP2 AND SUB PUSH2 0xD4E JUMPI PUSH2 0xBD9 DUP3 DUP5 DUP7 PUSH2 0x1850 JUMP JUMPDEST PUSH1 0x40 MLOAD PUSH4 0xD5AAA5B PUSH1 0xE4 SHL DUP2 MSTORE SWAP1 CALLDATALOAD PUSH1 0x4 DUP3 ADD MSTORE DUP9 DUP2 PUSH1 0x24 DUP2 DUP6 GAS STATICCALL SWAP1 DUP2 ISZERO PUSH2 0x4ED JUMPI PUSH1 0x1 SWAP2 PUSH1 0xFF SWAP2 DUP12 SWAP2 PUSH2 0xD2D JUMPI JUMPDEST POP AND SUB PUSH2 0xCF2 JUMPI DUP6 PUSH2 0xC1C DUP4 DUP6 DUP8 PUSH2 0x1850 JUMP JUMPDEST CALLDATALOAD EQ ISZERO DUP1 PUSH2 0xCDD JUMPI JUMPDEST ISZERO PUSH2 0xC98 JUMPI PUSH2 0xC35 DUP3 DUP5 DUP7 PUSH2 0x1850 JUMP JUMPDEST CALLDATALOAD DUP2 EXTCODESIZE ISZERO PUSH2 0xB3C JUMPI DUP9 SWAP2 PUSH1 0x24 DUP4 SWAP3 PUSH1 0x40 MLOAD SWAP5 DUP6 SWAP4 DUP5 SWAP3 PUSH4 0x852CD8D PUSH1 0xE3 SHL DUP5 MSTORE PUSH1 0x4 DUP5 ADD MSTORE GAS CALL DUP1 ISZERO PUSH2 0xC8D JUMPI SWAP1 DUP9 SWAP2 PUSH2 0xC74 JUMPI JUMPDEST POP POP PUSH1 0x1 ADD PUSH2 0xB6D JUMP JUMPDEST DUP2 PUSH2 0xC7E SWAP2 PUSH2 0x13C2 JUMP JUMPDEST PUSH2 0xC89 JUMPI DUP7 PUSH0 PUSH2 0xC6A JUMP JUMPDEST DUP7 DUP1 REVERT JUMPDEST PUSH1 0x40 MLOAD RETURNDATASIZE DUP11 DUP3 RETURNDATACOPY RETURNDATASIZE SWAP1 REVERT JUMPDEST PUSH1 0x40 MLOAD PUSH3 0x461BCD PUSH1 0xE5 SHL DUP2 MSTORE PUSH1 0x20 PUSH1 0x4 DUP3 ADD MSTORE PUSH1 0x19 PUSH1 0x24 DUP3 ADD MSTORE PUSH32 0x4675656C2063616E6E6F74206265206D61696E20636172647300000000000000 PUSH1 0x44 DUP3 ADD MSTORE PUSH1 0x64 SWAP1 REVERT JUMPDEST POP DUP7 PUSH2 0xCEA DUP4 DUP6 DUP8 PUSH2 0x1850 JUMP JUMPDEST CALLDATALOAD EQ ISZERO PUSH2 0xC25 JUMP JUMPDEST PUSH1 0x40 MLOAD PUSH3 0x461BCD PUSH1 0xE5 SHL DUP2 MSTORE PUSH1 0x20 PUSH1 0x4 DUP3 ADD MSTORE PUSH1 0x13 PUSH1 0x24 DUP3 ADD MSTORE PUSH19 0x233AB2B61036BAB9BA1031329021B7B6B6B7B7 PUSH1 0x69 SHL PUSH1 0x44 DUP3 ADD MSTORE PUSH1 0x64 SWAP1 REVERT JUMPDEST PUSH2 0xD41 SWAP2 POP RETURNDATASIZE DUP1 DUP14 DUP4 RETURNDATACOPY PUSH2 0x4AC DUP2 DUP4 PUSH2 0x13C2 JUMP JUMPDEST POP POP POP POP POP SWAP1 POP PUSH0 PUSH2 0xC09 JUMP JUMPDEST PUSH1 0x40 MLOAD PUSH3 0x461BCD PUSH1 0xE5 SHL DUP2 MSTORE PUSH1 0x20 PUSH1 0x4 DUP3 ADD MSTORE PUSH1 0x11 PUSH1 0x24 DUP3 ADD MSTORE PUSH17 0x139BDD081BDDDB995C881BD988199D595B PUSH1 0x7A SHL PUSH1 0x44 DUP3 ADD MSTORE PUSH1 0x64 SWAP1 REVERT JUMPDEST PUSH2 0xD9F SWAP2 POP PUSH1 0x20 RETURNDATASIZE DUP2 GT PUSH2 0x54A JUMPI PUSH2 0x53C DUP2 DUP4 PUSH2 0x13C2 JUMP JUMPDEST PUSH0 PUSH2 0xBBC JUMP JUMPDEST PUSH1 0x40 MLOAD PUSH3 0x461BCD PUSH1 0xE5 SHL DUP2 MSTORE PUSH1 0x20 PUSH1 0x4 DUP3 ADD MSTORE PUSH1 0x1A PUSH1 0x24 DUP3 ADD MSTORE PUSH32 0x496E73756666696369656E74206675656C2070726F7669646564000000000000 PUSH1 0x44 DUP3 ADD MSTORE PUSH1 0x64 SWAP1 REVERT JUMPDEST PUSH4 0x4E487B71 PUSH1 0xE0 SHL DUP7 MSTORE PUSH1 0x11 PUSH1 0x4 MSTORE PUSH1 0x24 DUP7 REVERT JUMPDEST PUSH2 0xE13 SWAP2 SWAP8 POP RETURNDATASIZE DUP1 DUP8 DUP4 RETURNDATACOPY PUSH2 0x4AC DUP2 DUP4 PUSH2 0x13C2 JUMP JUMPDEST POP POP POP POP POP SWAP1 POP SWAP6 PUSH0 PUSH2 0x924 JUMP JUMPDEST PUSH1 0x40 MLOAD RETURNDATASIZE DUP8 DUP3 RETURNDATACOPY RETURNDATASIZE SWAP1 REVERT JUMPDEST DUP7 SWAP2 SWAP8 POP PUSH2 0xE43 SWAP1 RETURNDATASIZE DUP1 DUP5 DUP4 RETURNDATACOPY PUSH2 0x4AC DUP2 DUP4 PUSH2 0x13C2 JUMP JUMPDEST POP POP POP POP POP SWAP1 POP SWAP7 SWAP1 PUSH2 0x8FA JUMP JUMPDEST POP CALLER DUP4 MSTORE PUSH1 0x2 PUSH1 0x20 MSTORE PUSH1 0x40 DUP4 KECCAK256 SLOAD PUSH1 0x64 DUP2 ADD DUP1 SWAP2 GT PUSH2 0xE72 JUMPI NUMBER LT ISZERO PUSH2 0x866 JUMP JUMPDEST PUSH4 0x4E487B71 PUSH1 0xE0 SHL DUP5 MSTORE PUSH1 0x11 PUSH1 0x4 MSTORE PUSH1 0x24 DUP5 REVERT JUMPDEST POP CALLVALUE PUSH2 0x155 JUMPI DUP1 PUSH1 0x3 NOT CALLDATASIZE ADD SLT PUSH2 0x155 JUMPI SLOAD PUSH1 0x40 MLOAD PUSH1 0x1 PUSH1 0x1 PUSH1 0xA0 SHL SUB SWAP1 SWAP2 AND DUP2 MSTORE PUSH1 0x20 SWAP1 RETURN JUMPDEST POP CALLVALUE PUSH2 0x481 JUMPI PUSH2 0xEBC CALLDATASIZE PUSH2 0x133C JUMP JUMPDEST PUSH2 0xEC7 SWAP3 SWAP2 SWAP3 PUSH2 0x1A7D JUMP JUMPDEST PUSH1 0x1 SLOAD PUSH1 0x40 MLOAD PUSH4 0x31A9108F PUSH1 0xE1 SHL DUP2 MSTORE PUSH1 0x4 DUP2 ADD DUP6 SWAP1 MSTORE PUSH1 0x1 PUSH1 0x1 PUSH1 0xA0 SHL SUB SWAP1 SWAP2 AND SWAP2 SWAP1 PUSH1 0x20 DUP2 PUSH1 0x24 DUP2 DUP7 GAS STATICCALL SWAP1 DUP2 ISZERO PUSH2 0x1044 JUMPI PUSH0 SWAP2 PUSH2 0x1187 JUMPI JUMPDEST POP CALLER PUSH1 0x1 PUSH1 0x1 PUSH1 0xA0 SHL SUB SWAP1 SWAP2 AND SUB PUSH2 0x114F JUMPI PUSH1 0x40 MLOAD PUSH4 0x31A9108F PUSH1 0xE1 SHL DUP2 MSTORE PUSH1 0x4 DUP2 ADD DUP3 SWAP1 MSTORE PUSH1 0x20 DUP2 PUSH1 0x24 DUP2 DUP7 GAS STATICCALL SWAP1 DUP2 ISZERO PUSH2 0x1044 JUMPI PUSH0 SWAP2 PUSH2 0x1130 JUMPI JUMPDEST POP CALLER PUSH1 0x1 PUSH1 0x1 PUSH1 0xA0 SHL SUB SWAP1 SWAP2 AND SUB PUSH2 0x10FA JUMPI DUP1 DUP5 EQ PUSH2 0x10B5 JUMPI PUSH1 0x40 MLOAD PUSH4 0xD5AAA5B PUSH1 0xE4 SHL DUP2 MSTORE PUSH1 0x4 DUP2 ADD DUP3 SWAP1 MSTORE PUSH0 DUP2 PUSH1 0x24 DUP2 DUP7 GAS STATICCALL SWAP1 DUP2 ISZERO PUSH2 0x1044 JUMPI PUSH1 0x1 SWAP2 PUSH1 0xFF SWAP2 PUSH0 SWAP2 PUSH2 0x1094 JUMPI JUMPDEST POP AND SUB PUSH2 0x104F JUMPI DUP2 EXTCODESIZE ISZERO PUSH2 0x481 JUMPI PUSH0 SWAP2 PUSH1 0x24 DUP4 SWAP3 PUSH1 0x40 MLOAD SWAP5 DUP6 SWAP4 DUP5 SWAP3 PUSH4 0x852CD8D PUSH1 0xE3 SHL DUP5 MSTORE PUSH1 0x4 DUP5 ADD MSTORE GAS CALL DUP1 ISZERO PUSH2 0x1044 JUMPI PUSH2 0x1031 JUMPI JUMPDEST POP PUSH1 0x1 SLOAD SWAP1 SWAP2 DUP3 SWAP2 PUSH1 0x1 PUSH1 0x1 PUSH1 0xA0 SHL SUB AND SWAP1 DUP2 EXTCODESIZE ISZERO PUSH2 0x102D JUMPI DUP3 SWAP2 PUSH1 0x24 DUP4 SWAP3 PUSH1 0x40 MLOAD SWAP5 DUP6 SWAP4 DUP5 SWAP3 PUSH4 0xE0F043B PUSH1 0xE4 SHL DUP5 MSTORE PUSH1 0x4 DUP5 ADD MSTORE GAS CALL DUP1 ISZERO PUSH2 0x48D JUMPI PUSH2 0x1018 JUMPI JUMPDEST POP PUSH1 0x1 PUSH0 MLOAD PUSH1 0x20 PUSH2 0x2B7C PUSH0 CODECOPY PUSH0 MLOAD SWAP1 PUSH0 MSTORE SSTORE DUP1 RETURN JUMPDEST DUP2 PUSH2 0x1022 SWAP2 PUSH2 0x13C2 JUMP JUMPDEST PUSH2 0x155 JUMPI DUP1 PUSH0 PUSH2 0x1003 JUMP JUMPDEST POP POP REVERT JUMPDEST PUSH2 0x103D SWAP2 POP PUSH0 SWAP1 PUSH2 0x13C2 JUMP JUMPDEST PUSH0 PUSH0 PUSH2 0xFC0 JUMP JUMPDEST PUSH1 0x40 MLOAD RETURNDATASIZE PUSH0 DUP3 RETURNDATACOPY RETURNDATASIZE SWAP1 REVERT JUMPDEST PUSH1 0x40 MLOAD PUSH3 0x461BCD PUSH1 0xE5 SHL DUP2 MSTORE PUSH1 0x20 PUSH1 0x4 DUP3 ADD MSTORE PUSH1 0x1A PUSH1 0x24 DUP3 ADD MSTORE PUSH32 0x526570616972206675656C206D75737420626520436F6D6D6F6E000000000000 PUSH1 0x44 DUP3 ADD MSTORE PUSH1 0x64 SWAP1 REVERT JUMPDEST PUSH2 0x10A8 SWAP2 POP RETURNDATASIZE DUP1 PUSH0 DUP4 RETURNDATACOPY PUSH2 0x4AC DUP2 DUP4 PUSH2 0x13C2 JUMP JUMPDEST POP POP POP POP POP SWAP1 POP PUSH0 PUSH2 0xF88 JUMP JUMPDEST PUSH1 0x40 MLOAD PUSH3 0x461BCD PUSH1 0xE5 SHL DUP2 MSTORE PUSH1 0x20 PUSH1 0x4 DUP3 ADD MSTORE PUSH1 0x1A PUSH1 0x24 DUP3 ADD MSTORE PUSH32 0x43616E6E6F742066656564206361726420746F20697473656C66000000000000 PUSH1 0x44 DUP3 ADD MSTORE PUSH1 0x64 SWAP1 REVERT JUMPDEST PUSH1 0x40 MLOAD PUSH3 0x461BCD PUSH1 0xE5 SHL DUP2 MSTORE PUSH1 0x20 PUSH1 0x4 DUP3 ADD MSTORE PUSH1 0xE PUSH1 0x24 DUP3 ADD MSTORE PUSH14 0x2737BA10333AB2B61037BBB732B9 PUSH1 0x91 SHL PUSH1 0x44 DUP3 ADD MSTORE PUSH1 0x64 SWAP1 REVERT JUMPDEST PUSH2 0x1149 SWAP2 POP PUSH1 0x20 RETURNDATASIZE PUSH1 0x20 GT PUSH2 0x54A JUMPI PUSH2 0x53C DUP2 DUP4 PUSH2 0x13C2 JUMP JUMPDEST PUSH0 PUSH2 0xF3F JUMP JUMPDEST PUSH1 0x40 MLOAD PUSH3 0x461BCD PUSH1 0xE5 SHL DUP2 MSTORE PUSH1 0x20 PUSH1 0x4 DUP3 ADD MSTORE PUSH1 0x10 PUSH1 0x24 DUP3 ADD MSTORE PUSH16 0x2737BA103A30B933B2BA1037BBB732B9 PUSH1 0x81 SHL PUSH1 0x44 DUP3 ADD MSTORE PUSH1 0x64 SWAP1 REVERT JUMPDEST PUSH2 0x11A0 SWAP2 POP PUSH1 0x20 RETURNDATASIZE PUSH1 0x20 GT PUSH2 0x54A JUMPI PUSH2 0x53C DUP2 DUP4 PUSH2 0x13C2 JUMP JUMPDEST PUSH0 PUSH2 0xF02 JUMP JUMPDEST CALLVALUE PUSH2 0x481 JUMPI PUSH1 0x20 CALLDATASIZE PUSH1 0x3 NOT ADD SLT PUSH2 0x481 JUMPI PUSH1 0x4 CALLDATALOAD PUSH1 0x1 PUSH1 0x1 PUSH1 0xA0 SHL SUB DUP2 AND SWAP1 DUP2 SWAP1 SUB PUSH2 0x481 JUMPI PUSH0 MSTORE PUSH1 0x3 PUSH1 0x20 MSTORE PUSH1 0x20 PUSH1 0x40 PUSH0 KECCAK256 SLOAD PUSH1 0x40 MLOAD SWAP1 DUP2 MSTORE RETURN JUMPDEST CALLVALUE PUSH2 0x481 JUMPI PUSH0 CALLDATASIZE PUSH1 0x3 NOT ADD SLT PUSH2 0x481 JUMPI PUSH2 0x11FA PUSH2 0x1A57 JUMP JUMPDEST PUSH0 DUP1 SLOAD PUSH1 0x1 PUSH1 0x1 PUSH1 0xA0 SHL SUB NOT DUP2 AND DUP3 SSTORE PUSH1 0x1 PUSH1 0x1 PUSH1 0xA0 SHL SUB AND PUSH32 0x8BE0079C531659141344CD1FD0A4F28419497F9722A3DAAFE3B4186F6B6457E0 DUP3 DUP1 LOG3 STOP JUMPDEST CALLVALUE PUSH2 0x481 JUMPI PUSH0 CALLDATASIZE PUSH1 0x3 NOT ADD SLT PUSH2 0x481 JUMPI PUSH1 0x20 PUSH1 0x40 MLOAD PUSH1 0x64 DUP2 MSTORE RETURN JUMPDEST CALLVALUE PUSH2 0x481 JUMPI PUSH0 CALLDATASIZE PUSH1 0x3 NOT ADD SLT PUSH2 0x481 JUMPI PUSH1 0x20 PUSH1 0x40 MLOAD PUSH1 0x5 DUP2 MSTORE RETURN JUMPDEST CALLVALUE PUSH2 0x481 JUMPI PUSH1 0x20 CALLDATASIZE PUSH1 0x3 NOT ADD SLT PUSH2 0x481 JUMPI PUSH1 0x4 CALLDATALOAD PUSH1 0x1 PUSH1 0x1 PUSH1 0xA0 SHL SUB DUP2 AND SWAP1 DUP2 SWAP1 SUB PUSH2 0x481 JUMPI PUSH0 MSTORE PUSH1 0x2 PUSH1 0x20 MSTORE PUSH1 0x20 PUSH1 0x40 PUSH0 KECCAK256 SLOAD PUSH1 0x40 MLOAD SWAP1 DUP2 MSTORE RETURN JUMPDEST CALLVALUE PUSH2 0x481 JUMPI PUSH0 CALLDATASIZE PUSH1 0x3 NOT ADD SLT PUSH2 0x481 JUMPI PUSH1 0x1 SLOAD PUSH1 0x40 MLOAD PUSH1 0x1 PUSH1 0x1 PUSH1 0xA0 SHL SUB SWAP1 SWAP2 AND DUP2 MSTORE PUSH1 0x20 SWAP1 RETURN JUMPDEST CALLVALUE PUSH2 0x481 JUMPI PUSH1 0x20 CALLDATASIZE PUSH1 0x3 NOT ADD SLT PUSH2 0x481 JUMPI PUSH1 0x4 CALLDATALOAD PUSH0 MSTORE PUSH1 0x4 PUSH1 0x20 MSTORE PUSH1 0x60 PUSH1 0x40 PUSH0 KECCAK256 DUP1 SLOAD SWAP1 PUSH1 0xFF PUSH1 0x2 PUSH1 0x1 DUP4 ADD SLOAD SWAP3 ADD SLOAD AND SWAP1 PUSH1 0x40 MLOAD SWAP3 DUP4 MSTORE PUSH1 0x20 DUP4 ADD MSTORE ISZERO ISZERO PUSH1 0x40 DUP3 ADD MSTORE RETURN JUMPDEST CALLVALUE PUSH2 0x481 JUMPI PUSH1 0x20 PUSH2 0x1332 PUSH2 0x132C CALLDATASIZE PUSH2 0x133C JUMP JUMPDEST SWAP1 PUSH2 0x152E JUMP JUMPDEST PUSH1 0x40 MLOAD SWAP1 ISZERO ISZERO DUP2 MSTORE RETURN JUMPDEST PUSH1 0x40 SWAP1 PUSH1 0x3 NOT ADD SLT PUSH2 0x481 JUMPI PUSH1 0x4 CALLDATALOAD SWAP1 PUSH1 0x24 CALLDATALOAD SWAP1 JUMP JUMPDEST DUP1 MLOAD DUP1 DUP4 MSTORE PUSH1 0x20 SWAP3 SWAP2 DUP2 SWAP1 DUP5 ADD DUP5 DUP5 ADD MCOPY PUSH0 DUP3 DUP3 ADD DUP5 ADD MSTORE PUSH1 0x1F ADD PUSH1 0x1F NOT AND ADD ADD SWAP1 JUMP JUMPDEST PUSH1 0x60 DUP2 ADD SWAP1 DUP2 LT PUSH8 0xFFFFFFFFFFFFFFFF DUP3 GT OR PUSH2 0x1392 JUMPI PUSH1 0x40 MSTORE JUMP JUMPDEST PUSH4 0x4E487B71 PUSH1 0xE0 SHL PUSH0 MSTORE PUSH1 0x41 PUSH1 0x4 MSTORE PUSH1 0x24 PUSH0 REVERT JUMPDEST PUSH1 0xA0 DUP2 ADD SWAP1 DUP2 LT PUSH8 0xFFFFFFFFFFFFFFFF DUP3 GT OR PUSH2 0x1392 JUMPI PUSH1 0x40 MSTORE JUMP JUMPDEST SWAP1 PUSH1 0x1F DUP1 NOT SWAP2 ADD AND DUP2 ADD SWAP1 DUP2 LT PUSH8 0xFFFFFFFFFFFFFFFF DUP3 GT OR PUSH2 0x1392 JUMPI PUSH1 0x40 MSTORE JUMP JUMPDEST SWAP1 DUP2 PUSH1 0x20 SWAP2 SUB SLT PUSH2 0x481 JUMPI MLOAD DUP1 ISZERO ISZERO DUP2 SUB PUSH2 0x481 JUMPI SWAP1 JUMP JUMPDEST SWAP1 DUP2 PUSH1 0x20 SWAP2 SUB SLT PUSH2 0x481 JUMPI MLOAD PUSH1 0x1 PUSH1 0x1 PUSH1 0xA0 SHL SUB DUP2 AND DUP2 SUB PUSH2 0x481 JUMPI SWAP1 JUMP JUMPDEST DUP2 PUSH1 0x1F DUP3 ADD SLT ISZERO PUSH2 0x481 JUMPI DUP1 MLOAD SWAP1 PUSH8 0xFFFFFFFFFFFFFFFF DUP3 GT PUSH2 0x1392 JUMPI PUSH1 0x40 MLOAD SWAP3 PUSH2 0x1450 PUSH1 0x1F DUP5 ADD PUSH1 0x1F NOT AND PUSH1 0x20 ADD DUP6 PUSH2 0x13C2 JUMP JUMPDEST DUP3 DUP5 MSTORE PUSH1 0x20 DUP4 DUP4 ADD ADD GT PUSH2 0x481 JUMPI DUP2 PUSH0 SWAP3 PUSH1 0x20 DUP1 SWAP4 ADD DUP4 DUP7 ADD MCOPY DUP4 ADD ADD MSTORE SWAP1 JUMP JUMPDEST MLOAD SWAP1 PUSH1 0xFF DUP3 AND DUP3 SUB PUSH2 0x481 JUMPI JUMP JUMPDEST MLOAD SWAP1 PUSH2 0xFFFF DUP3 AND DUP3 SUB PUSH2 0x481 JUMPI JUMP JUMPDEST PUSH1 0xE0 DUP2 DUP4 SUB SLT PUSH2 0x481 JUMPI DUP1 MLOAD PUSH8 0xFFFFFFFFFFFFFFFF DUP2 GT PUSH2 0x481 JUMPI DUP3 PUSH2 0x14B5 SWAP2 DUP4 ADD PUSH2 0x141B JUMP JUMPDEST SWAP3 PUSH2 0x14C2 PUSH1 0x20 DUP4 ADD PUSH2 0x1471 JUMP JUMPDEST SWAP3 PUSH1 0x40 DUP4 ADD MLOAD PUSH8 0xFFFFFFFFFFFFFFFF DUP2 GT PUSH2 0x481 JUMPI DUP2 PUSH2 0x14E3 SWAP2 DUP6 ADD PUSH2 0x141B JUMP JUMPDEST SWAP3 PUSH2 0x14F0 PUSH1 0x60 DUP3 ADD PUSH2 0x147F JUMP JUMPDEST SWAP3 PUSH2 0x14FD PUSH1 0x80 DUP4 ADD PUSH2 0x147F JUMP JUMPDEST SWAP3 PUSH1 0xA0 DUP4 ADD MLOAD SWAP1 PUSH8 0xFFFFFFFFFFFFFFFF DUP3 GT PUSH2 0x481 JUMPI PUSH2 0x1524 PUSH1 0xC0 SWAP2 PUSH2 0x152B SWAP4 DUP7 ADD PUSH2 0x141B JUMP JUMPDEST SWAP4 ADD PUSH2 0x1471 JUMP JUMPDEST SWAP1 JUMP JUMPDEST DUP2 DUP2 EQ PUSH2 0x1792 JUMPI PUSH1 0x1 SLOAD PUSH1 0x40 MLOAD PUSH4 0xF6AACFB1 PUSH1 0xE0 SHL DUP2 MSTORE PUSH1 0x4 DUP2 ADD DUP4 SWAP1 MSTORE PUSH1 0x1 PUSH1 0x1 PUSH1 0xA0 SHL SUB SWAP1 SWAP2 AND SWAP3 SWAP1 PUSH1 0x20 DUP2 PUSH1 0x24 DUP2 DUP8 GAS STATICCALL SWAP1 DUP2 ISZERO PUSH2 0x1044 JUMPI PUSH0 SWAP2 PUSH2 0x1773 JUMPI JUMPDEST POP DUP1 ISZERO PUSH2 0x1712 JUMPI JUMPDEST PUSH2 0x16C2 JUMPI PUSH1 0x40 MLOAD PUSH4 0x31A9108F PUSH1 0xE1 SHL DUP2 MSTORE PUSH1 0x4 DUP2 ADD DUP4 SWAP1 MSTORE PUSH1 0x20 DUP2 PUSH1 0x24 DUP2 DUP8 GAS STATICCALL SWAP1 DUP2 ISZERO PUSH2 0x1044 JUMPI PUSH0 SWAP2 PUSH2 0x16F3 JUMPI JUMPDEST POP PUSH1 0x40 MLOAD PUSH4 0x31A9108F PUSH1 0xE1 SHL DUP2 MSTORE PUSH1 0x4 DUP2 ADD DUP4 SWAP1 MSTORE SWAP1 PUSH1 0x20 DUP3 PUSH1 0x24 DUP2 DUP9 GAS STATICCALL SWAP2 DUP3 ISZERO PUSH2 0x1044 JUMPI PUSH0 SWAP3 PUSH2 0x16D2 JUMPI JUMPDEST POP PUSH1 0x1 PUSH1 0x1 PUSH1 0xA0 SHL SUB SWAP1 DUP2 AND SWAP2 AND DUP2 EQ DUP1 ISZERO SWAP2 SWAP1 PUSH2 0x16C9 JUMPI JUMPDEST POP PUSH2 0x16C2 JUMPI PUSH1 0x40 MLOAD SWAP2 PUSH4 0xD5AAA5B PUSH1 0xE4 SHL DUP4 MSTORE PUSH1 0x4 DUP4 ADD MSTORE PUSH0 DUP3 PUSH1 0x24 DUP2 DUP7 GAS STATICCALL SWAP2 DUP3 ISZERO PUSH2 0x1044 JUMPI PUSH0 SWAP3 PUSH2 0x169D JUMPI JUMPDEST POP PUSH0 SWAP1 PUSH1 0x24 PUSH1 0x40 MLOAD DUP1 SWAP6 DUP2 SWAP4 PUSH4 0xD5AAA5B PUSH1 0xE4 SHL DUP4 MSTORE PUSH1 0x4 DUP4 ADD MSTORE GAS STATICCALL SWAP2 DUP3 ISZERO PUSH2 0x1044 JUMPI PUSH0 SWAP3 PUSH2 0x1674 JUMPI JUMPDEST POP PUSH1 0xFF PUSH1 0x5 SWAP2 AND LT SWAP1 DUP2 ISZERO SWAP2 PUSH2 0x1665 JUMPI JUMPDEST POP PUSH2 0x1661 JUMPI PUSH1 0x1 SWAP1 JUMP JUMPDEST PUSH0 SWAP1 JUMP JUMPDEST PUSH1 0x5 SWAP2 POP PUSH1 0xFF AND LT ISZERO PUSH0 PUSH2 0x1657 JUMP JUMPDEST PUSH1 0x5 SWAP2 SWAP3 POP PUSH2 0x168E PUSH1 0xFF SWAP2 RETURNDATASIZE DUP1 PUSH0 DUP4 RETURNDATACOPY PUSH2 0x4AC DUP2 DUP4 PUSH2 0x13C2 JUMP JUMPDEST SWAP6 POP POP POP POP POP POP SWAP3 SWAP2 POP PUSH2 0x1646 JUMP JUMPDEST PUSH0 SWAP2 SWAP3 POP PUSH2 0x16B4 SWAP1 RETURNDATASIZE DUP1 DUP5 DUP4 RETURNDATACOPY PUSH2 0x4AC DUP2 DUP4 PUSH2 0x13C2 JUMP JUMPDEST SWAP6 POP POP POP POP POP POP SWAP2 SWAP1 PUSH2 0x161B JUMP JUMPDEST POP POP POP PUSH0 SWAP1 JUMP JUMPDEST SWAP1 POP ISZERO PUSH0 PUSH2 0x15ED JUMP JUMPDEST PUSH2 0x16EC SWAP2 SWAP3 POP PUSH1 0x20 RETURNDATASIZE PUSH1 0x20 GT PUSH2 0x54A JUMPI PUSH2 0x53C DUP2 DUP4 PUSH2 0x13C2 JUMP JUMPDEST SWAP1 PUSH0 PUSH2 0x15D4 JUMP JUMPDEST PUSH2 0x170C SWAP2 POP PUSH1 0x20 RETURNDATASIZE PUSH1 0x20 GT PUSH2 0x54A JUMPI PUSH2 0x53C DUP2 DUP4 PUSH2 0x13C2 JUMP JUMPDEST PUSH0 PUSH2 0x15A7 JUMP JUMPDEST POP PUSH1 0x40 MLOAD PUSH4 0xF6AACFB1 PUSH1 0xE0 SHL DUP2 MSTORE PUSH1 0x4 DUP2 ADD DUP3 SWAP1 MSTORE PUSH1 0x20 DUP2 PUSH1 0x24 DUP2 DUP8 GAS STATICCALL SWAP1 DUP2 ISZERO PUSH2 0x1044 JUMPI PUSH0 SWAP2 PUSH2 0x1744 JUMPI JUMPDEST POP PUSH2 0x1578 JUMP JUMPDEST PUSH2 0x1766 SWAP2 POP PUSH1 0x20 RETURNDATASIZE PUSH1 0x20 GT PUSH2 0x176C JUMPI JUMPDEST PUSH2 0x175E DUP2 DUP4 PUSH2 0x13C2 JUMP JUMPDEST DUP2 ADD SWAP1 PUSH2 0x13E4 JUMP JUMPDEST PUSH0 PUSH2 0x173E JUMP JUMPDEST POP RETURNDATASIZE PUSH2 0x1754 JUMP JUMPDEST PUSH2 0x178C SWAP2 POP PUSH1 0x20 RETURNDATASIZE PUSH1 0x20 GT PUSH2 0x176C JUMPI PUSH2 0x175E DUP2 DUP4 PUSH2 0x13C2 JUMP JUMPDEST PUSH0 PUSH2 0x1570 JUMP JUMPDEST POP POP PUSH0 SWAP1 JUMP JUMPDEST ISZERO PUSH2 0x179F JUMPI JUMP JUMPDEST PUSH1 0x40 MLOAD PUSH3 0x461BCD PUSH1 0xE5 SHL DUP2 MSTORE PUSH1 0x20 PUSH1 0x4 DUP3 ADD MSTORE PUSH1 0xF PUSH1 0x24 DUP3 ADD MSTORE PUSH15 0x436F6F6C646F776E20616374697665 PUSH1 0x88 SHL PUSH1 0x44 DUP3 ADD MSTORE PUSH1 0x64 SWAP1 REVERT JUMPDEST ISZERO PUSH2 0x17DD JUMPI JUMP JUMPDEST PUSH1 0x40 MLOAD PUSH3 0x461BCD PUSH1 0xE5 SHL DUP2 MSTORE PUSH1 0x20 PUSH1 0x4 DUP3 ADD MSTORE PUSH1 0x13 PUSH1 0x24 DUP3 ADD MSTORE PUSH19 0x24B73B30B634B21031B7B6B134B730BA34B7B7 PUSH1 0x69 SHL PUSH1 0x44 DUP3 ADD MSTORE PUSH1 0x64 SWAP1 REVERT JUMPDEST ISZERO PUSH2 0x181F JUMPI JUMP JUMPDEST PUSH1 0x40 MLOAD PUSH3 0x461BCD PUSH1 0xE5 SHL DUP2 MSTORE PUSH1 0x20 PUSH1 0x4 DUP3 ADD MSTORE PUSH1 0x9 PUSH1 0x24 DUP3 ADD MSTORE PUSH9 0x2737BA1037BBB732B9 PUSH1 0xB9 SHL PUSH1 0x44 DUP3 ADD MSTORE PUSH1 0x64 SWAP1 REVERT JUMPDEST SWAP2 SWAP1 DUP2 LT ISZERO PUSH2 0x1860 JUMPI PUSH1 0x5 SHL ADD SWAP1 JUMP JUMPDEST PUSH4 0x4E487B71 PUSH1 0xE0 SHL PUSH0 MSTORE PUSH1 0x32 PUSH1 0x4 MSTORE PUSH1 0x24 PUSH0 REVERT JUMPDEST SWAP7 SWAP2 SWAP6 PUSH2 0xFFFF PUSH2 0x18C3 PUSH1 0xFF SWAP8 SWAP6 PUSH2 0x18DD SWAP8 PUSH2 0x120 SWAP13 SWAP16 SWAP15 SWAP14 SWAP11 PUSH2 0x18AF DUP12 SWAP2 PUSH2 0x140 DUP16 DUP9 SWAP11 PUSH1 0x1 DUP1 PUSH1 0xA0 SHL SUB AND DUP2 MSTORE DUP2 PUSH1 0x20 DUP3 ADD MSTORE ADD SWAP1 PUSH2 0x1352 JUMP JUMPDEST SWAP3 AND PUSH1 0x40 DUP14 ADD MSTORE DUP12 DUP3 SUB PUSH1 0x60 DUP14 ADD MSTORE PUSH2 0x1352 JUMP JUMPDEST SWAP5 AND PUSH1 0x80 DUP10 ADD MSTORE AND PUSH1 0xA0 DUP8 ADD MSTORE DUP6 DUP3 SUB PUSH1 0xC0 DUP8 ADD MSTORE PUSH2 0x1352 JUMP JUMPDEST SWAP7 AND PUSH1 0xE0 DUP4 ADD MSTORE PUSH2 0x100 DUP3 ADD MSTORE ADD MSTORE JUMP JUMPDEST PUSH0 NOT DUP2 EQ PUSH2 0x18FC JUMPI PUSH1 0x1 ADD SWAP1 JUMP JUMPDEST PUSH4 0x4E487B71 PUSH1 0xE0 SHL PUSH0 MSTORE PUSH1 0x11 PUSH1 0x4 MSTORE PUSH1 0x24 PUSH0 REVERT JUMPDEST SWAP2 PUSH1 0x1 DUP1 PUSH1 0xA0 SHL SUB PUSH1 0x1 SLOAD AND SWAP2 PUSH1 0x40 MLOAD SWAP4 PUSH4 0xD5AAA5B PUSH1 0xE4 SHL DUP6 MSTORE PUSH1 0x4 DUP6 ADD MSTORE PUSH0 DUP5 PUSH1 0x24 DUP2 DUP7 GAS STATICCALL DUP1 ISZERO PUSH2 0x1044 JUMPI PUSH0 SWAP5 PUSH0 SWAP3 PUSH0 SWAP1 PUSH0 SWAP3 PUSH0 SWAP5 PUSH2 0x1A28 JUMPI JUMPDEST POP PUSH0 SWAP1 PUSH1 0x24 PUSH1 0x40 MLOAD DUP1 SWAP10 DUP2 SWAP4 PUSH4 0xD5AAA5B PUSH1 0xE4 SHL DUP4 MSTORE PUSH1 0x4 DUP4 ADD MSTORE GAS STATICCALL SWAP2 DUP3 ISZERO PUSH2 0x1044 JUMPI PUSH0 SWAP5 PUSH0 SWAP4 PUSH0 SWAP6 PUSH0 SWAP10 PUSH0 SWAP3 PUSH2 0x19EF JUMPI JUMPDEST POP PUSH2 0x198F PUSH1 0x1 SWAP3 PUSH1 0xFF SWAP3 PUSH2 0x1AB5 JUMP JUMPDEST AND ADD SWAP1 PUSH1 0xFF DUP3 GT PUSH2 0x18FC JUMPI DUP2 SWAP5 PUSH2 0x19A5 SWAP2 PUSH2 0x1E14 JUMP JUMPDEST SWAP8 DUP9 SWAP7 DUP8 MLOAD SWAP11 PUSH1 0x20 DUP10 ADD MLOAD SWAP6 DUP5 PUSH1 0x80 DUP12 ADD MLOAD SWAP10 DUP5 DUP5 CALLER PUSH2 0x19C6 SWAP1 DUP4 DUP4 PUSH2 0x1ACE JUMP JUMPDEST SWAP14 PUSH1 0x40 ADD MLOAD PUSH2 0xFFFF AND SWAP3 PUSH2 0x19D9 SWAP6 PUSH2 0x2A3E JUMP JUMPDEST SWAP11 PUSH1 0x60 ADD MLOAD PUSH2 0xFFFF AND SWAP3 PUSH2 0x19EC SWAP6 PUSH2 0x2A3E JUMP JUMPDEST SWAP5 JUMP JUMPDEST SWAP1 SWAP6 POP PUSH1 0x1 SWAP10 POP PUSH2 0x198F SWAP8 POP PUSH1 0xFF SWAP7 POP PUSH2 0x1A13 SWAP2 POP RETURNDATASIZE DUP1 PUSH0 DUP4 RETURNDATACOPY PUSH2 0x4AC DUP2 DUP4 PUSH2 0x13C2 JUMP JUMPDEST SWAP2 SWAP14 POP SWAP4 SWAP11 SWAP2 SWAP10 POP SWAP2 SWAP8 SWAP2 SWAP4 POP SWAP1 SWAP2 POP PUSH2 0x1980 JUMP JUMPDEST SWAP3 POP SWAP7 POP POP PUSH0 SWAP3 POP PUSH2 0x1A44 SWAP2 POP RETURNDATASIZE DUP1 DUP5 DUP4 RETURNDATACOPY PUSH2 0x4AC DUP2 DUP4 PUSH2 0x13C2 JUMP JUMPDEST SWAP5 SWAP10 SWAP4 SWAP7 SWAP5 SWAP6 POP SWAP1 SWAP4 SWAP2 SWAP3 SWAP2 SWAP1 POP PUSH2 0x194D JUMP JUMPDEST PUSH0 SLOAD PUSH1 0x1 PUSH1 0x1 PUSH1 0xA0 SHL SUB AND CALLER SUB PUSH2 0x1A6A JUMPI JUMP JUMPDEST PUSH4 0x118CDAA7 PUSH1 0xE0 SHL PUSH0 MSTORE CALLER PUSH1 0x4 MSTORE PUSH1 0x24 PUSH0 REVERT JUMPDEST PUSH1 0x2 PUSH0 MLOAD PUSH1 0x20 PUSH2 0x2B7C PUSH0 CODECOPY PUSH0 MLOAD SWAP1 PUSH0 MSTORE SLOAD EQ PUSH2 0x1AA6 JUMPI PUSH1 0x2 PUSH0 MLOAD PUSH1 0x20 PUSH2 0x2B7C PUSH0 CODECOPY PUSH0 MLOAD SWAP1 PUSH0 MSTORE SSTORE JUMP JUMPDEST PUSH4 0x3EE5AEB5 PUSH1 0xE0 SHL PUSH0 MSTORE PUSH1 0x4 PUSH0 REVERT JUMPDEST SWAP1 PUSH1 0xFF DUP2 AND PUSH1 0xFF DUP4 AND GT PUSH0 EQ PUSH2 0x1AC9 JUMPI POP SWAP1 JUMP JUMPDEST SWAP1 POP SWAP1 JUMP JUMPDEST SWAP1 SWAP2 PUSH1 0x64 PUSH1 0xFF SWAP2 DUP3 DUP6 AND SWAP4 DUP4 DUP2 AND SWAP5 DUP1 DUP7 LT PUSH0 EQ PUSH2 0x1CE3 JUMPI DUP2 SWAP6 JUMPDEST GT ISZERO PUSH2 0x1CDD JUMPI DUP1 SWAP6 JUMPDEST PUSH1 0x40 MLOAD SWAP2 PUSH1 0x20 DUP4 ADD SWAP4 PUSH0 DUP6 MSTORE PUSH12 0xFFFFFFFFFFFFFFFFFFFFFFFF NOT SWAP1 PUSH1 0x60 SHL AND PUSH1 0x40 DUP5 ADD MSTORE DUP6 PUSH1 0xF8 SHL SWAP1 PUSH1 0xF8 SHL AND PUSH1 0x54 DUP4 ADD MSTORE DUP5 PUSH1 0xF8 SHL SWAP1 PUSH1 0xF8 SHL AND PUSH1 0x55 DUP3 ADD MSTORE PUSH1 0x36 DUP2 MSTORE PUSH2 0x1B41 PUSH1 0x56 DUP3 PUSH2 0x13C2 JUMP JUMPDEST MLOAD SWAP1 KECCAK256 MOD SWAP2 AND SWAP1 PUSH1 0x1 DUP3 EQ DUP1 DUP1 SWAP2 PUSH2 0x1CD0 JUMPI JUMPDEST PUSH2 0x1CB8 JUMPI DUP1 DUP1 PUSH2 0x1CAB JUMPI JUMPDEST PUSH2 0x1CA2 JUMPI DUP1 DUP1 PUSH2 0x1C95 JUMPI JUMPDEST PUSH2 0x1C82 JUMPI DUP1 PUSH2 0x1C75 JUMPI JUMPDEST PUSH2 0x1C6D JUMPI PUSH1 0x2 DUP3 EQ DUP1 DUP1 PUSH2 0x1C60 JUMPI JUMPDEST PUSH2 0x1C48 JUMPI DUP1 DUP1 PUSH2 0x1C3B JUMPI JUMPDEST PUSH2 0x1C32 JUMPI DUP1 PUSH2 0x1C25 JUMPI JUMPDEST PUSH2 0x1C13 JUMPI PUSH1 0x3 DUP3 EQ SWAP1 DUP2 DUP1 PUSH2 0x1C06 JUMPI JUMPDEST PUSH2 0x1BEE JUMPI POP DUP1 PUSH2 0x1BE1 JUMPI JUMPDEST PUSH2 0x1BDA JUMPI PUSH1 0x4 EQ DUP1 PUSH2 0x1BCD JUMPI JUMPDEST PUSH2 0x1BC7 JUMPI SWAP1 JUMP JUMPDEST POP PUSH1 0x4 SWAP1 JUMP JUMPDEST POP PUSH1 0x4 PUSH1 0xFF DUP3 AND EQ PUSH2 0x1BC0 JUMP JUMPDEST POP POP PUSH1 0x4 SWAP1 JUMP JUMPDEST POP PUSH1 0x4 PUSH1 0xFF DUP4 AND EQ PUSH2 0x1BB3 JUMP JUMPDEST SWAP2 POP POP PUSH1 0x14 SWAP2 POP LT PUSH0 EQ PUSH2 0x1C01 JUMPI PUSH1 0x3 SWAP1 JUMP JUMPDEST PUSH1 0x4 SWAP1 JUMP JUMPDEST POP PUSH1 0x3 PUSH1 0xFF DUP6 AND EQ PUSH2 0x1BA8 JUMP JUMPDEST SWAP1 POP PUSH1 0x46 SWAP2 POP LT PUSH0 EQ PUSH2 0x1C01 JUMPI PUSH1 0x3 SWAP1 JUMP JUMPDEST POP PUSH1 0x4 PUSH1 0xFF DUP5 AND EQ PUSH2 0x1B98 JUMP JUMPDEST POP POP POP POP PUSH1 0x3 SWAP1 JUMP JUMPDEST POP PUSH1 0x3 PUSH1 0xFF DUP6 AND EQ PUSH2 0x1B8E JUMP JUMPDEST POP SWAP1 POP PUSH1 0x28 SWAP2 POP LT PUSH0 EQ PUSH2 0x1C5B JUMPI PUSH1 0x2 SWAP1 JUMP JUMPDEST PUSH1 0x3 SWAP1 JUMP JUMPDEST POP PUSH1 0x2 PUSH1 0xFF DUP6 AND EQ PUSH2 0x1B83 JUMP JUMPDEST POP POP POP PUSH1 0x3 SWAP1 JUMP JUMPDEST POP PUSH1 0x4 PUSH1 0xFF DUP5 AND EQ PUSH2 0x1B74 JUMP JUMPDEST POP SWAP1 POP PUSH1 0x46 SWAP2 POP LT PUSH0 EQ PUSH2 0x1C5B JUMPI PUSH1 0x2 SWAP1 JUMP JUMPDEST POP PUSH1 0x3 PUSH1 0xFF DUP6 AND EQ PUSH2 0x1B6A JUMP JUMPDEST POP POP POP POP PUSH1 0x2 SWAP1 JUMP JUMPDEST POP PUSH1 0x2 PUSH1 0xFF DUP6 AND EQ PUSH2 0x1B5F JUMP JUMPDEST POP SWAP1 POP PUSH1 0x32 SWAP2 POP LT PUSH0 EQ PUSH2 0x1CCB JUMPI PUSH1 0x1 SWAP1 JUMP JUMPDEST PUSH1 0x2 SWAP1 JUMP JUMPDEST POP PUSH1 0x1 PUSH1 0xFF DUP6 AND EQ PUSH2 0x1B54 JUMP JUMPDEST DUP6 PUSH2 0x1AF2 JUMP JUMPDEST DUP7 SWAP6 PUSH2 0x1AE9 JUMP JUMPDEST SWAP3 PUSH1 0xFF DUP1 DUP6 AND SWAP4 SWAP1 SWAP3 PUSH1 0x64 SWAP3 SWAP1 DUP1 DUP6 AND DUP1 DUP8 LT ISZERO PUSH2 0x1D5D JUMPI DUP8 SWAP7 JUMPDEST GT ISZERO PUSH2 0x1D56 JUMPI DUP7 JUMPDEST PUSH1 0x40 DUP1 MLOAD PUSH1 0x20 DUP2 ADD SWAP6 DUP7 MSTORE PUSH1 0x60 SWAP5 SWAP1 SWAP5 SHL PUSH12 0xFFFFFFFFFFFFFFFFFFFFFFFF NOT AND SWAP1 DUP5 ADD MSTORE DUP6 AND PUSH1 0xF8 SWAP1 DUP2 SHL PUSH1 0x54 DUP5 ADD MSTORE SWAP1 DUP6 AND SWAP1 SHL PUSH1 0x55 DUP3 ADD MSTORE PUSH1 0x36 DUP2 MSTORE PUSH2 0x1B41 PUSH1 0x56 DUP3 PUSH2 0x13C2 JUMP JUMPDEST DUP1 SWAP7 PUSH2 0x1D0D JUMP JUMPDEST DUP2 SWAP7 PUSH2 0x1D05 JUMP JUMPDEST PUSH1 0x40 MLOAD SWAP1 PUSH2 0x1D73 PUSH1 0x40 DUP4 PUSH2 0x13C2 JUMP JUMPDEST PUSH1 0x4 DUP3 MSTORE PUSH4 0x46697265 PUSH1 0xE0 SHL PUSH1 0x20 DUP4 ADD MSTORE JUMP JUMPDEST PUSH1 0x40 MLOAD SWAP1 PUSH2 0x1D95 PUSH1 0x40 DUP4 PUSH2 0x13C2 JUMP JUMPDEST PUSH1 0x5 DUP3 MSTORE PUSH5 0x2BB0BA32B9 PUSH1 0xD9 SHL PUSH1 0x20 DUP4 ADD MSTORE JUMP JUMPDEST PUSH1 0x40 MLOAD SWAP1 PUSH2 0x1DB8 PUSH1 0x40 DUP4 PUSH2 0x13C2 JUMP JUMPDEST PUSH1 0x5 DUP3 MSTORE PUSH5 0x8AC2E4E8D PUSH1 0xDB SHL PUSH1 0x20 DUP4 ADD MSTORE JUMP JUMPDEST PUSH1 0x40 MLOAD SWAP1 PUSH2 0x1DDB PUSH1 0x40 DUP4 PUSH2 0x13C2 JUMP JUMPDEST PUSH1 0x3 DUP3 MSTORE PUSH3 0x20B4B9 PUSH1 0xE9 SHL PUSH1 0x20 DUP4 ADD MSTORE JUMP JUMPDEST PUSH1 0x40 MLOAD SWAP1 PUSH2 0x1DFC PUSH1 0x40 DUP4 PUSH2 0x13C2 JUMP JUMPDEST PUSH1 0x9 DUP3 MSTORE PUSH9 0x4C696768746E696E67 PUSH1 0xB8 SHL PUSH1 0x20 DUP4 ADD MSTORE JUMP JUMPDEST SWAP1 PUSH1 0x40 MLOAD PUSH2 0x1E21 DUP2 PUSH2 0x13A6 JUMP JUMPDEST PUSH1 0x60 DUP2 MSTORE PUSH1 0x60 PUSH1 0x20 DUP3 ADD MSTORE PUSH0 PUSH1 0x40 DUP3 ADD MSTORE PUSH0 PUSH1 0x60 DUP3 ADD MSTORE PUSH1 0x60 PUSH1 0x80 DUP3 ADD MSTORE POP PUSH2 0x1E51 PUSH2 0x1E4B PUSH2 0x1D64 JUMP JUMPDEST DUP4 PUSH2 0x2AB4 JUMP JUMPDEST DUP1 PUSH2 0x2A17 JUMPI JUMPDEST PUSH2 0x2977 JUMPI PUSH2 0x1E66 PUSH2 0x1E4B PUSH2 0x1D86 JUMP JUMPDEST DUP1 PUSH2 0x2966 JUMPI JUMPDEST PUSH2 0x28C8 JUMPI PUSH2 0x1E7B PUSH2 0x1E4B PUSH2 0x1DA9 JUMP JUMPDEST DUP1 PUSH2 0x28B7 JUMPI JUMPDEST PUSH2 0x2811 JUMPI PUSH2 0x1E90 PUSH2 0x1E4B PUSH2 0x1DCC JUMP JUMPDEST DUP1 PUSH2 0x2800 JUMPI JUMPDEST PUSH2 0x275B JUMPI PUSH2 0x1EA5 PUSH2 0x1E4B PUSH2 0x1DED JUMP JUMPDEST DUP1 PUSH2 0x2744 JUMPI JUMPDEST PUSH2 0x26A3 JUMPI PUSH2 0x1ECA PUSH2 0x1EBA PUSH2 0x1D64 JUMP JUMPDEST PUSH2 0x1EC2 PUSH2 0x1D86 JUMP JUMPDEST SWAP1 DUP4 DUP6 PUSH2 0x2B17 JUMP JUMPDEST PUSH2 0x25EE JUMPI PUSH2 0x1EE1 PUSH2 0x1ED9 PUSH2 0x1DA9 JUMP JUMPDEST PUSH2 0x1EC2 PUSH2 0x1D64 JUMP JUMPDEST PUSH2 0x2538 JUMPI PUSH2 0x1EF0 PUSH2 0x1ED9 PUSH2 0x1DCC JUMP JUMPDEST PUSH2 0x24A7 JUMPI PUSH2 0x1EFF PUSH2 0x1EBA PUSH2 0x1DA9 JUMP JUMPDEST PUSH2 0x2401 JUMPI PUSH2 0x1F0E PUSH2 0x1EBA PUSH2 0x1DCC JUMP JUMPDEST PUSH2 0x234F JUMPI PUSH2 0x1F25 PUSH2 0x1F1D PUSH2 0x1DCC JUMP JUMPDEST PUSH2 0x1EC2 PUSH2 0x1DA9 JUMP JUMPDEST PUSH2 0x22AB JUMPI PUSH2 0x1F3C PUSH2 0x1F34 PUSH2 0x1D64 JUMP JUMPDEST PUSH2 0x1EC2 PUSH2 0x1DED JUMP JUMPDEST PUSH2 0x2207 JUMPI PUSH2 0x1F4B PUSH2 0x1EBA PUSH2 0x1DED JUMP JUMPDEST PUSH2 0x2162 JUMPI PUSH2 0x1F5A PUSH2 0x1F34 PUSH2 0x1DA9 JUMP JUMPDEST PUSH2 0x20A8 JUMPI PUSH2 0x1F79 SWAP1 PUSH2 0x1F6A PUSH2 0x1DCC JUMP JUMPDEST PUSH2 0x1F72 PUSH2 0x1DED JUMP JUMPDEST SWAP2 DUP5 PUSH2 0x2B17 JUMP JUMPDEST PUSH2 0x2003 JUMPI PUSH1 0x40 MLOAD SWAP1 PUSH2 0x1F8A DUP3 PUSH2 0x13A6 JUMP JUMPDEST DUP2 MSTORE PUSH1 0x40 DUP1 MLOAD PUSH2 0x1F9A DUP3 DUP3 PUSH2 0x13C2 JUMP JUMPDEST PUSH1 0xE DUP2 MSTORE PUSH14 0x556E6B6E6F776E20456E74697479 PUSH1 0x90 SHL PUSH1 0x20 DUP3 ADD MSTORE PUSH1 0x20 DUP4 ADD MSTORE PUSH0 DUP2 DUP4 ADD MSTORE PUSH0 PUSH1 0x60 DUP4 ADD MSTORE PUSH2 0x1FD1 DUP2 MLOAD SWAP2 DUP3 PUSH2 0x13C2 JUMP JUMPDEST PUSH1 0x20 DUP2 MSTORE PUSH32 0x4D69736D6174636865643A20556E737461626C6520636F6D62696E6174696F6E PUSH1 0x20 DUP3 ADD MSTORE PUSH1 0x80 DUP3 ADD MSTORE SWAP1 JUMP JUMPDEST POP PUSH1 0x40 MLOAD PUSH2 0x2010 DUP2 PUSH2 0x13A6 JUMP JUMPDEST PUSH1 0x40 DUP1 MLOAD PUSH2 0x201E DUP3 DUP3 PUSH2 0x13C2 JUMP JUMPDEST PUSH1 0x7 DUP2 MSTORE PUSH7 0x2A343AB73232B9 PUSH1 0xC9 SHL PUSH1 0x20 DUP3 ADD MSTORE DUP3 MSTORE DUP1 MLOAD PUSH2 0x2040 DUP3 DUP3 PUSH2 0x13C2 JUMP JUMPDEST PUSH1 0xC DUP2 MSTORE PUSH12 0x151A1D5B99195C88131BDC99 PUSH1 0xA2 SHL PUSH1 0x20 DUP3 ADD MSTORE PUSH1 0x20 DUP4 ADD MSTORE PUSH1 0x6 DUP2 DUP4 ADD MSTORE PUSH0 PUSH1 0x60 DUP4 ADD MSTORE PUSH2 0x2076 DUP2 MLOAD SWAP2 DUP3 PUSH2 0x13C2 JUMP JUMPDEST PUSH1 0x18 DUP2 MSTORE PUSH32 0x536F6E69633A2043616E6E6F7420626520626C6F636B65640000000000000000 PUSH1 0x20 DUP3 ADD MSTORE PUSH1 0x80 DUP3 ADD MSTORE SWAP1 JUMP JUMPDEST POP POP PUSH1 0x40 MLOAD PUSH2 0x20B6 DUP2 PUSH2 0x13A6 JUMP JUMPDEST PUSH1 0x40 DUP1 MLOAD PUSH2 0x20C4 DUP3 DUP3 PUSH2 0x13C2 JUMP JUMPDEST PUSH1 0x9 DUP2 MSTORE PUSH9 0x4D61676E657469736D PUSH1 0xB8 SHL PUSH1 0x20 DUP3 ADD MSTORE DUP3 MSTORE DUP1 MLOAD PUSH2 0x20E8 DUP3 DUP3 PUSH2 0x13C2 JUMP JUMPDEST PUSH1 0x11 DUP2 MSTORE PUSH17 0x4D61676E6574696320436F6C6F73737573 PUSH1 0x78 SHL PUSH1 0x20 DUP3 ADD MSTORE PUSH1 0x20 DUP4 ADD MSTORE PUSH1 0x2 DUP2 DUP4 ADD MSTORE PUSH1 0x2 PUSH1 0x60 DUP4 ADD MSTORE PUSH3 0x796F75 PUSH1 0xE8 SHL DUP2 MLOAD SWAP2 PUSH2 0x212D PUSH1 0x60 DUP5 PUSH2 0x13C2 JUMP JUMPDEST PUSH1 0x23 DUP4 MSTORE PUSH32 0x436F6E74726F6C3A2050756C6C206F70706F6E656E7420636172647320746F20 PUSH1 0x20 DUP5 ADD MSTORE DUP3 ADD MSTORE PUSH1 0x80 DUP3 ADD MSTORE SWAP1 JUMP JUMPDEST POP POP PUSH1 0x40 MLOAD PUSH2 0x2170 DUP2 PUSH2 0x13A6 JUMP JUMPDEST PUSH1 0x40 DUP1 MLOAD PUSH2 0x217E DUP3 DUP3 PUSH2 0x13C2 JUMP JUMPDEST PUSH1 0x5 DUP2 MSTORE PUSH5 0x53746F726D PUSH1 0xD8 SHL PUSH1 0x20 DUP3 ADD MSTORE DUP3 MSTORE DUP1 MLOAD PUSH2 0x219E DUP3 DUP3 PUSH2 0x13C2 JUMP JUMPDEST PUSH1 0xC DUP2 MSTORE PUSH12 0x14DD1BDC9B4812195C985B19 PUSH1 0xA2 SHL PUSH1 0x20 DUP3 ADD MSTORE PUSH1 0x20 DUP4 ADD MSTORE PUSH1 0x3 DUP2 DUP4 ADD MSTORE PUSH1 0x3 PUSH1 0x60 DUP4 ADD MSTORE PUSH2 0x21D5 DUP2 MLOAD SWAP2 DUP3 PUSH2 0x13C2 JUMP JUMPDEST PUSH1 0x1F DUP2 MSTORE PUSH32 0x4368616F733A2052616E646F6D20656666656374732065616368207475726E00 PUSH1 0x20 DUP3 ADD MSTORE PUSH1 0x80 DUP3 ADD MSTORE SWAP1 JUMP JUMPDEST POP POP PUSH1 0x40 MLOAD PUSH2 0x2215 DUP2 PUSH2 0x13A6 JUMP JUMPDEST PUSH1 0x40 DUP1 MLOAD PUSH2 0x2223 DUP3 DUP3 PUSH2 0x13C2 JUMP JUMPDEST PUSH1 0x6 DUP2 MSTORE PUSH6 0x506C61736D61 PUSH1 0xD0 SHL PUSH1 0x20 DUP3 ADD MSTORE DUP3 MSTORE DUP1 MLOAD PUSH2 0x2244 DUP3 DUP3 PUSH2 0x13C2 JUMP JUMPDEST PUSH1 0xB DUP2 MSTORE PUSH11 0x506C61736D6120436F7265 PUSH1 0xA8 SHL PUSH1 0x20 DUP3 ADD MSTORE PUSH1 0x20 DUP4 ADD MSTORE PUSH1 0x5 DUP2 DUP4 ADD MSTORE PUSH0 PUSH1 0x60 DUP4 ADD MSTORE PUSH2 0x2279 DUP2 MLOAD SWAP2 DUP3 PUSH2 0x13C2 JUMP JUMPDEST PUSH1 0x1D DUP2 MSTORE PUSH32 0x556E737461626C653A2052616E646F6D2064616D6167652031352D3235000000 PUSH1 0x20 DUP3 ADD MSTORE PUSH1 0x80 DUP3 ADD MSTORE SWAP1 JUMP JUMPDEST POP POP PUSH1 0x40 MLOAD PUSH2 0x22B9 DUP2 PUSH2 0x13A6 JUMP JUMPDEST PUSH1 0x40 DUP1 MLOAD PUSH2 0x22C7 DUP3 DUP3 PUSH2 0x13C2 JUMP JUMPDEST PUSH1 0x4 DUP2 MSTORE PUSH4 0x111D5CDD PUSH1 0xE2 SHL PUSH1 0x20 DUP3 ADD MSTORE DUP3 MSTORE DUP1 MLOAD PUSH2 0x22E6 DUP3 DUP3 PUSH2 0x13C2 JUMP JUMPDEST PUSH1 0xC DUP2 MSTORE PUSH12 0x44757374205068616E746F6D PUSH1 0xA0 SHL PUSH1 0x20 DUP3 ADD MSTORE PUSH1 0x20 DUP4 ADD MSTORE PUSH1 0x1 DUP2 DUP4 ADD MSTORE PUSH1 0x1 PUSH1 0x60 DUP4 ADD MSTORE PUSH2 0x231D DUP2 MLOAD SWAP2 DUP3 PUSH2 0x13C2 JUMP JUMPDEST PUSH1 0x1C DUP2 MSTORE PUSH32 0x426C696E643A2033302520656E656D79206D697373206368616E636500000000 PUSH1 0x20 DUP3 ADD MSTORE PUSH1 0x80 DUP3 ADD MSTORE SWAP1 JUMP JUMPDEST POP POP PUSH1 0x40 MLOAD PUSH2 0x235D DUP2 PUSH2 0x13A6 JUMP JUMPDEST PUSH1 0x40 DUP1 MLOAD PUSH2 0x236B DUP3 DUP3 PUSH2 0x13C2 JUMP JUMPDEST PUSH1 0x3 DUP2 MSTORE PUSH3 0x496365 PUSH1 0xE8 SHL PUSH1 0x20 DUP3 ADD MSTORE DUP3 MSTORE DUP1 MLOAD PUSH2 0x2389 DUP3 DUP3 PUSH2 0x13C2 JUMP JUMPDEST PUSH1 0xE DUP2 MSTORE PUSH14 0x119C9BDCDD0814D95B9D1A5B995B PUSH1 0x92 SHL PUSH1 0x20 DUP3 ADD MSTORE PUSH1 0x20 DUP4 ADD MSTORE PUSH1 0x1 DUP2 DUP4 ADD MSTORE PUSH1 0x1 PUSH1 0x60 DUP4 ADD MSTORE PUSH4 0x20353025 PUSH1 0xE0 SHL DUP2 MLOAD SWAP2 PUSH2 0x23CC PUSH1 0x60 DUP5 PUSH2 0x13C2 JUMP JUMPDEST PUSH1 0x24 DUP4 MSTORE PUSH32 0x467265657A653A20526564756365206F70706F6E656E74207370656564206279 PUSH1 0x20 DUP5 ADD MSTORE DUP3 ADD MSTORE PUSH1 0x80 DUP3 ADD MSTORE SWAP1 JUMP JUMPDEST POP POP PUSH1 0x40 MLOAD PUSH2 0x240F DUP2 PUSH2 0x13A6 JUMP JUMPDEST PUSH1 0x40 DUP1 MLOAD PUSH2 0x241D DUP3 DUP3 PUSH2 0x13C2 JUMP JUMPDEST PUSH1 0x6 DUP2 MSTORE PUSH6 0x4E6174757265 PUSH1 0xD0 SHL PUSH1 0x20 DUP3 ADD MSTORE DUP3 MSTORE DUP1 MLOAD PUSH2 0x243E DUP3 DUP3 PUSH2 0x13C2 JUMP JUMPDEST PUSH1 0xD DUP2 MSTORE PUSH13 0x2730BA3AB932902BB0B93232B7 PUSH1 0x99 SHL PUSH1 0x20 DUP3 ADD MSTORE PUSH1 0x20 DUP4 ADD MSTORE PUSH0 DUP2 DUP4 ADD MSTORE PUSH1 0x2 PUSH1 0x60 DUP4 ADD MSTORE PUSH2 0x2475 DUP2 MLOAD SWAP2 DUP3 PUSH2 0x13C2 JUMP JUMPDEST PUSH1 0x1E DUP2 MSTORE PUSH32 0x526567656E65726174653A204865616C203120485020706572207475726E0000 PUSH1 0x20 DUP3 ADD MSTORE PUSH1 0x80 DUP3 ADD MSTORE SWAP1 JUMP JUMPDEST POP POP PUSH1 0x40 MLOAD PUSH2 0x24B5 DUP2 PUSH2 0x13A6 JUMP JUMPDEST PUSH2 0x24BD PUSH2 0x1DED JUMP JUMPDEST DUP2 MSTORE PUSH1 0x40 DUP1 MLOAD PUSH2 0x24CD DUP3 DUP3 PUSH2 0x13C2 JUMP JUMPDEST PUSH1 0xF DUP2 MSTORE PUSH15 0x2A343AB73232B91029BA3934B5B2B9 PUSH1 0x89 SHL PUSH1 0x20 DUP3 ADD MSTORE PUSH1 0x20 DUP4 ADD MSTORE PUSH1 0x4 DUP2 DUP4 ADD MSTORE PUSH0 PUSH1 0x60 DUP4 ADD MSTORE PUSH2 0x2506 DUP2 MLOAD SWAP2 DUP3 PUSH2 0x13C2 JUMP JUMPDEST PUSH1 0x19 DUP2 MSTORE PUSH32 0x53686F636B3A20333025206368616E636520746F207374756E00000000000000 PUSH1 0x20 DUP3 ADD MSTORE PUSH1 0x80 DUP3 ADD MSTORE SWAP1 JUMP JUMPDEST POP POP PUSH1 0x40 MLOAD PUSH2 0x2546 DUP2 PUSH2 0x13A6 JUMP JUMPDEST PUSH1 0x40 DUP1 MLOAD PUSH2 0x2554 DUP3 DUP3 PUSH2 0x13C2 JUMP JUMPDEST PUSH1 0x4 DUP2 MSTORE PUSH4 0x4C617661 PUSH1 0xE0 SHL PUSH1 0x20 DUP3 ADD MSTORE DUP3 MSTORE DUP1 MLOAD PUSH2 0x2573 DUP3 DUP3 PUSH2 0x13C2 JUMP JUMPDEST PUSH1 0xA DUP2 MSTORE PUSH10 0x2630BB30902A34BA30B7 PUSH1 0xB1 SHL PUSH1 0x20 DUP3 ADD MSTORE PUSH1 0x20 DUP4 ADD MSTORE PUSH1 0x2 DUP2 DUP4 ADD MSTORE PUSH1 0x1 PUSH1 0x60 DUP4 ADD MSTORE PUSH11 0x33B2903832B9103A3AB937 PUSH1 0xA9 SHL DUP2 MLOAD SWAP2 PUSH2 0x25B9 PUSH1 0x60 DUP5 PUSH2 0x13C2 JUMP JUMPDEST PUSH1 0x2B DUP4 MSTORE PUSH32 0x4D6F6C74656E3A204275726E206F70706F6E656E7420666F7220322064616D61 PUSH1 0x20 DUP5 ADD MSTORE DUP3 ADD MSTORE PUSH1 0x80 DUP3 ADD MSTORE SWAP1 JUMP JUMPDEST POP POP PUSH1 0x40 MLOAD PUSH2 0x25FC DUP2 PUSH2 0x13A6 JUMP JUMPDEST PUSH1 0x40 DUP1 MLOAD PUSH2 0x260A DUP3 DUP3 PUSH2 0x13C2 JUMP JUMPDEST PUSH1 0x5 DUP2 MSTORE PUSH5 0x537465616D PUSH1 0xD8 SHL PUSH1 0x20 DUP3 ADD MSTORE DUP3 MSTORE DUP1 MLOAD PUSH2 0x262A DUP3 DUP3 PUSH2 0x13C2 JUMP JUMPDEST PUSH1 0xB DUP2 MSTORE PUSH11 0x537465616D20476F6C656D PUSH1 0xA8 SHL PUSH1 0x20 DUP3 ADD MSTORE PUSH1 0x20 DUP4 ADD MSTORE PUSH1 0x1 DUP2 DUP4 ADD MSTORE PUSH1 0x1 PUSH1 0x60 DUP4 ADD MSTORE PUSH8 0x7920627920323025 PUSH1 0xC0 SHL DUP2 MLOAD SWAP2 PUSH2 0x266E PUSH1 0x60 DUP5 PUSH2 0x13C2 JUMP JUMPDEST PUSH1 0x28 DUP4 MSTORE PUSH32 0x4F6273637572653A20526564756365206F70706F6E656E742061636375726163 PUSH1 0x20 DUP5 ADD MSTORE DUP3 ADD MSTORE PUSH1 0x80 DUP3 ADD MSTORE SWAP1 JUMP JUMPDEST POP POP PUSH1 0x40 MLOAD PUSH2 0x26B1 DUP2 PUSH2 0x13A6 JUMP JUMPDEST PUSH2 0x26B9 PUSH2 0x1DED JUMP JUMPDEST DUP2 MSTORE PUSH1 0x40 DUP1 MLOAD PUSH2 0x26C9 DUP3 DUP3 PUSH2 0x13C2 JUMP JUMPDEST PUSH1 0xB DUP2 MSTORE PUSH11 0x2D32BAB9902932B137B937 PUSH1 0xA9 SHL PUSH1 0x20 DUP3 ADD MSTORE PUSH1 0x20 DUP4 ADD MSTORE PUSH1 0x4 DUP2 DUP4 ADD MSTORE PUSH1 0x2 PUSH1 0x60 DUP4 ADD MSTORE PUSH10 0x6C6C20656E656D696573 PUSH1 0xB0 SHL DUP2 MLOAD SWAP2 PUSH2 0x270F PUSH1 0x60 DUP5 PUSH2 0x13C2 JUMP JUMPDEST PUSH1 0x2A DUP4 MSTORE PUSH32 0x4F7665726C6F61643A20436861696E206C696768746E696E6720686974732061 PUSH1 0x20 DUP5 ADD MSTORE DUP3 ADD MSTORE PUSH1 0x80 DUP3 ADD MSTORE SWAP1 JUMP JUMPDEST POP PUSH2 0x2756 PUSH2 0x2750 PUSH2 0x1DED JUMP JUMPDEST DUP3 PUSH2 0x2AB4 JUMP JUMPDEST PUSH2 0x1EAB JUMP JUMPDEST POP POP PUSH1 0x40 MLOAD PUSH2 0x2769 DUP2 PUSH2 0x13A6 JUMP JUMPDEST PUSH2 0x2771 PUSH2 0x1DCC JUMP JUMPDEST DUP2 MSTORE PUSH1 0x40 DUP1 MLOAD PUSH2 0x2781 DUP3 DUP3 PUSH2 0x13C2 JUMP JUMPDEST PUSH1 0xD DUP2 MSTORE PUSH13 0x29B5BC9029B7BB32B932B4B3B7 PUSH1 0x99 SHL PUSH1 0x20 DUP3 ADD MSTORE PUSH1 0x20 DUP4 ADD MSTORE PUSH1 0x2 DUP2 DUP4 ADD MSTORE PUSH1 0x2 PUSH1 0x60 DUP4 ADD MSTORE PUSH12 0x6D756C74616E656F75736C79 PUSH1 0xA0 SHL DUP2 MLOAD SWAP2 PUSH2 0x27CB PUSH1 0x60 DUP5 PUSH2 0x13C2 JUMP JUMPDEST PUSH1 0x2C DUP4 MSTORE PUSH32 0x546F726E61646F3A2041747461636B20616C6C206F70706F6E656E7473207369 PUSH1 0x20 DUP5 ADD MSTORE DUP3 ADD MSTORE PUSH1 0x80 DUP3 ADD MSTORE SWAP1 JUMP JUMPDEST POP PUSH2 0x280C PUSH2 0x2750 PUSH2 0x1DCC JUMP JUMPDEST PUSH2 0x1E96 JUMP JUMPDEST POP POP PUSH1 0x40 MLOAD PUSH2 0x281F DUP2 PUSH2 0x13A6 JUMP JUMPDEST PUSH2 0x2827 PUSH2 0x1DA9 JUMP JUMPDEST DUP2 MSTORE PUSH1 0x40 DUP1 MLOAD PUSH2 0x2837 DUP3 DUP3 PUSH2 0x13C2 JUMP JUMPDEST PUSH1 0xE DUP2 MSTORE PUSH14 0x53746F6E6520466F727472657373 PUSH1 0x90 SHL PUSH1 0x20 DUP3 ADD MSTORE PUSH1 0x20 DUP4 ADD MSTORE PUSH0 DUP2 DUP4 ADD MSTORE PUSH1 0x4 PUSH1 0x60 DUP4 ADD MSTORE PUSH13 0x672064616D6167652062792033 PUSH1 0x98 SHL DUP2 MLOAD SWAP2 PUSH2 0x2882 PUSH1 0x60 DUP5 PUSH2 0x13C2 JUMP JUMPDEST PUSH1 0x2D DUP4 MSTORE PUSH32 0x4469616D6F6E6420536B696E3A2052656475636520616C6C20696E636F6D696E PUSH1 0x20 DUP5 ADD MSTORE DUP3 ADD MSTORE PUSH1 0x80 DUP3 ADD MSTORE SWAP1 JUMP JUMPDEST POP PUSH2 0x28C3 PUSH2 0x2750 PUSH2 0x1DA9 JUMP JUMPDEST PUSH2 0x1E81 JUMP JUMPDEST POP POP PUSH1 0x40 MLOAD PUSH2 0x28D6 DUP2 PUSH2 0x13A6 JUMP JUMPDEST PUSH2 0x28DE PUSH2 0x1D86 JUMP JUMPDEST DUP2 MSTORE PUSH1 0x40 DUP1 MLOAD PUSH2 0x28EE DUP3 DUP3 PUSH2 0x13C2 JUMP JUMPDEST PUSH1 0x10 DUP2 MSTORE PUSH16 0x88CACAE040A6CAC2409ADEDCC2E4C6D PUSH1 0x83 SHL PUSH1 0x20 DUP3 ADD MSTORE PUSH1 0x20 DUP4 ADD MSTORE PUSH0 DUP2 DUP4 ADD MSTORE PUSH1 0x3 PUSH1 0x60 DUP4 ADD MSTORE PUSH3 0x61636B PUSH1 0xE8 SHL DUP2 MLOAD SWAP2 PUSH2 0x2931 PUSH1 0x60 DUP5 PUSH2 0x13C2 JUMP JUMPDEST PUSH1 0x23 DUP4 MSTORE PUSH32 0x546964616C20576176653A205075736820616C6C206F70706F6E656E74732062 PUSH1 0x20 DUP5 ADD MSTORE DUP3 ADD MSTORE PUSH1 0x80 DUP3 ADD MSTORE SWAP1 JUMP JUMPDEST POP PUSH2 0x2972 PUSH2 0x2750 PUSH2 0x1D86 JUMP JUMPDEST PUSH2 0x1E6C JUMP JUMPDEST POP POP PUSH1 0x40 MLOAD PUSH2 0x2985 DUP2 PUSH2 0x13A6 JUMP JUMPDEST PUSH2 0x298D PUSH2 0x1D64 JUMP JUMPDEST DUP2 MSTORE PUSH1 0x40 DUP1 MLOAD PUSH2 0x299D DUP3 DUP3 PUSH2 0x13C2 JUMP JUMPDEST PUSH1 0x10 DUP2 MSTORE PUSH16 0x24B73332B937379021B430B6B834B7B7 PUSH1 0x81 SHL PUSH1 0x20 DUP3 ADD MSTORE PUSH1 0x20 DUP4 ADD MSTORE PUSH1 0x3 DUP2 DUP4 ADD MSTORE PUSH0 PUSH1 0x60 DUP4 ADD MSTORE PUSH5 0x616D616765 PUSH1 0xD8 SHL DUP2 MLOAD SWAP2 PUSH2 0x29E2 PUSH1 0x60 DUP5 PUSH2 0x13C2 JUMP JUMPDEST PUSH1 0x25 DUP4 MSTORE PUSH32 0x446F75626C6520466C616D653A204465616C20646F75626C65206275726E2064 PUSH1 0x20 DUP5 ADD MSTORE DUP3 ADD MSTORE PUSH1 0x80 DUP3 ADD MSTORE SWAP1 JUMP JUMPDEST POP PUSH2 0x2A23 PUSH2 0x2750 PUSH2 0x1D64 JUMP JUMPDEST PUSH2 0x1E57 JUMP JUMPDEST SWAP1 PUSH2 0xFFFF DUP1 SWAP2 AND SWAP2 AND ADD SWAP1 PUSH2 0xFFFF DUP3 GT PUSH2 0x18FC JUMPI JUMP JUMPDEST PUSH1 0xFF PUSH2 0x7FFF PUSH2 0x2A5F PUSH2 0x2A6B SWAP5 PUSH2 0x2A59 PUSH2 0x2A70 SWAP9 DUP6 SWAP11 SWAP9 PUSH2 0x1AB5 JUMP JUMPDEST SWAP5 PUSH2 0x2A28 JUMP JUMPDEST PUSH1 0x1 SHR AND SWAP2 AND SWAP1 PUSH2 0x2A28 JUMP JUMPDEST PUSH2 0x2A28 JUMP JUMPDEST SWAP2 AND DUP1 PUSH2 0x2A88 JUMPI JUMPDEST POP PUSH2 0xFFFF DUP2 AND PUSH2 0x152B JUMPI POP PUSH1 0x1 SWAP1 JUMP JUMPDEST SWAP1 DUP2 PUSH2 0xFFFF DUP3 AND GT PUSH0 EQ PUSH2 0x2AAB JUMPI PUSH2 0xFFFF AND SUB PUSH2 0xFFFF DUP2 GT PUSH2 0x18FC JUMPI JUMPDEST PUSH0 PUSH2 0x2A78 JUMP JUMPDEST POP POP PUSH1 0x1 PUSH2 0x2AA5 JUMP JUMPDEST PUSH1 0x40 MLOAD PUSH2 0x2AE0 PUSH1 0x20 DUP3 DUP2 DUP1 DUP3 ADD SWAP6 DUP1 MLOAD SWAP2 DUP3 SWAP2 ADD DUP8 MCOPY DUP2 ADD PUSH0 DUP4 DUP3 ADD MSTORE SUB ADD PUSH1 0x1F NOT DUP2 ADD DUP4 MSTORE DUP3 PUSH2 0x13C2 JUMP JUMPDEST MLOAD SWAP1 KECCAK256 SWAP1 PUSH1 0x40 MLOAD PUSH2 0x2B10 PUSH1 0x20 DUP3 DUP2 DUP1 DUP3 ADD SWAP6 DUP1 MLOAD SWAP2 DUP3 SWAP2 ADD DUP8 MCOPY DUP2 ADD PUSH0 DUP4 DUP3 ADD MSTORE SUB ADD PUSH1 0x1F NOT DUP2 ADD DUP4 MSTORE DUP3 PUSH2 0x13C2 JUMP JUMPDEST MLOAD SWAP1 KECCAK256 EQ SWAP1 JUMP JUMPDEST SWAP3 SWAP2 SWAP1 SWAP2 PUSH2 0x2B25 DUP3 DUP6 PUSH2 0x2AB4 JUMP JUMPDEST SWAP4 DUP5 PUSH2 0x2B69 JUMPI JUMPDEST DUP5 ISZERO PUSH2 0x2B3A JUMPI JUMPDEST POP POP POP POP SWAP1 JUMP JUMPDEST PUSH2 0x2B46 SWAP3 SWAP4 SWAP5 POP PUSH2 0x2AB4 JUMP JUMPDEST SWAP2 DUP3 PUSH2 0x2B58 JUMPI JUMPDEST POP POP PUSH0 DUP1 DUP1 DUP1 PUSH2 0x2B33 JUMP JUMPDEST PUSH2 0x2B62 SWAP3 POP PUSH2 0x2AB4 JUMP JUMPDEST PUSH0 DUP1 PUSH2 0x2B4D JUMP JUMPDEST SWAP4 POP PUSH2 0x2B75 DUP2 DUP5 PUSH2 0x2AB4 JUMP JUMPDEST SWAP4 PUSH2 0x2B2C JUMP INVALID SWAP12 PUSH24 0x9B17422D0DF92223018B32B4D1FA46E071723D6817E2486D STOP EXTCODESIZE 0xEC 0xC5 PUSH0 STOP LOG2 PUSH5 0x6970667358 0x22 SLT KECCAK256 0xD5 GAS DUP6 0xB5 PUSH13 0x5CF5B3D0DBCDC8D4FD5551E6B8 MSTORE8 0xC2 0xE 0x26 PUSH0 MUL 0x4E 0xC3 0xB2 KECCAK256 LOG4 EXP 0xD7 LOG0 PUSH5 0x736F6C6343 STOP ADDMOD SHR STOP CALLER "
        },
        "methodIdentifiers": {
          "COOLDOWN_BLOCKS()": "54831354",
          "MAX_GENERATION()": "52ff6baf",
          "cardNFT()": "38d5d7d1",
          "combineCards(uint256,uint256,uint256[])": "b5316f47",
          "fuseCards(uint256,uint256)": "cd133b01",
          "fusedCards(uint256)": "159d2db1",
          "getCombinationPreview(uint256,uint256)": "ebf8a59e",
          "getPlayerCombinationCount(address)": "86198104",
          "isValidCombination(uint256,uint256)": "031337dd",
          "lastCombinationBlock(address)": "5074d57f",
          "owner()": "8da5cb5b",
          "playerCombinationCount(address)": "5253e802",
          "renounceOwnership()": "715018a6",
          "repairCard(uint256,uint256)": "8cd885e0",
          "transferOwnership(address)": "f2fde38b",
          "unfuseCard(uint256)": "b8ef1ca5"
        }
      }
    }
  }
}