{
  "contracts/libraries/RarityLogic.sol": {
    "RarityLogic": {
      "abi": [
        {
          "inputs": [],
          "name": "COMMON",
          "outputs": [
            {
              "internalType": "uint8",
              "name": "",
              "type": "uint8"
            }
          ],
          "stateMutability": "view",
          "type": "function"
        },
        {
          "inputs": [],
          "name": "EPIC",
          "outputs": [
            {
              "internalType": "uint8",
              "name": "",
              "type": "uint8"
            }
          ],
          "stateMutability": "view",
          "type": "function"
        },
        {
          "inputs": [],
          "name": "LEGENDARY",
          "outputs": [
            {
              "internalType": "uint8",
              "name": "",
              "type": "uint8"
            }
          ],
          "stateMutability": "view",
          "type": "function"
        },
        {
          "inputs": [],
          "name": "RARE",
          "outputs": [
            {
              "internalType": "uint8",
              "name": "",
              "type": "uint8"
            }
          ],
          "stateMutability": "view",
          "type": "function"
        }
      ],
      "evm": {
        "bytecode": {
          "linkReferences": {},
          "object": "6080806040523460175760cf9081601c823930815050f35b5f80fdfe60808060405260043610156011575f80fd5b5f3560e01c90816346e6a86c14608657508063816171c01460715780638467db1c14605c5763e140d1e1146043575f80fd5b5f366003190112605857602060405160048152f35b5f80fd5b5f366003190112605857602060405160038152f35b5f366003190112605857602060405160028152f35b5f36600319011260585780600160209252f3fea2646970667358221220a4f8ae24a4d59cf6f1c76b2fcfbcc126d93cb4600f4729090b27b987cff2ac2f64736f6c634300081c0033",
          "opcodes": "PUSH1 0x80 DUP1 PUSH1 0x40 MSTORE CALLVALUE PUSH1 0x17 JUMPI PUSH1 0xCF SWAP1 DUP2 PUSH1 0x1C DUP3 CODECOPY ADDRESS DUP2 POP POP RETURN JUMPDEST PUSH0 DUP1 REVERT INVALID PUSH1 0x80 DUP1 PUSH1 0x40 MSTORE PUSH1 0x4 CALLDATASIZE LT ISZERO PUSH1 0x11 JUMPI PUSH0 DUP1 REVERT JUMPDEST PUSH0 CALLDATALOAD PUSH1 0xE0 SHR SWAP1 DUP2 PUSH4 0x46E6A86C EQ PUSH1 0x86 JUMPI POP DUP1 PUSH4 0x816171C0 EQ PUSH1 0x71 JUMPI DUP1 PUSH4 0x8467DB1C EQ PUSH1 0x5C JUMPI PUSH4 0xE140D1E1 EQ PUSH1 0x43 JUMPI PUSH0 DUP1 REVERT JUMPDEST PUSH0 CALLDATASIZE PUSH1 0x3 NOT ADD SLT PUSH1 0x58 JUMPI PUSH1 0x20 PUSH1 0x40 MLOAD PUSH1 0x4 DUP2 MSTORE RETURN JUMPDEST PUSH0 DUP1 REVERT JUMPDEST PUSH0 CALLDATASIZE PUSH1 0x3 NOT ADD SLT PUSH1 0x58 JUMPI PUSH1 0x20 PUSH1 0x40 MLOAD PUSH1 0x3 DUP2 MSTORE RETURN JUMPDEST PUSH0 CALLDATASIZE PUSH1 0x3 NOT ADD SLT PUSH1 0x58 JUMPI PUSH1 0x20 PUSH1 0x40 MLOAD PUSH1 0x2 DUP2 MSTORE RETURN JUMPDEST PUSH0 CALLDATASIZE PUSH1 0x3 NOT ADD SLT PUSH1 0x58 JUMPI DUP1 PUSH1 0x1 PUSH1 0x20 SWAP3 MSTORE RETURN INVALID LOG2 PUSH5 0x6970667358 0x22 SLT KECCAK256 LOG4 0xF8 0xAE 0x24 LOG4 0xD5 SWAP13 0xF6 CALL 0xC7 PUSH12 0x2FCFBCC126D93CB4600F4729 MULMOD SIGNEXTEND 0x27 0xB9 DUP8 0xCF CALLCODE 0xAC 0x2F PUSH5 0x736F6C6343 STOP ADDMOD SHR STOP CALLER "
        },
        "methodIdentifiers": {
          "COMMON()": "46e6a86c",
          "EPIC()": "8467db1c",
          "LEGENDARY()": "e140d1e1",
          "RARE()": "816171c0"
        }
      }
    }
  }
}