{
  "_format": "hh-sol-artifact-1",
  "contractName": "CardNFT",
  "sourceName": "contracts/CardNFT.sol",
  "abi": [
    {
      "inputs": [],
      "stateMutability": "nonpayable",
      "type": "constructor"
    },
    {
      "inputs": [
        {
          "internalType": "address",
          "name": "sender",
          "type": "address"
        },
        {
          "internalType": "uint256",
          "name": "tokenId",
          "type": "uint256"
        },
        {
          "internalType": "address",
          "name": "owner",
          "type": "address"
        }
      ],
      "name": "ERC721IncorrectOwner",
      "type": "error"
    },
    {
      "inputs": [
        {
          "internalType": "address",
          "name": "operator",
          "type": "address"
        },
        {
          "internalType": "uint256",
          "name": "tokenId",
          "type": "uint256"
        }
      ],
      "name": "ERC721InsufficientApproval",
      "type": "error"
    },
    {
      "inputs": [
        {
          "internalType": "address",
          "name": "approver",
          "type": "address"
        }
      ],
      "name": "ERC721InvalidApprover",
      "type": "error"
    },
    {
      "inputs": [
        {
          "internalType": "address",
          "name": "operator",
          "type": "address"
        }
      ],
      "name": "ERC721InvalidOperator",
      "type": "error"
    },
    {
      "inputs": [
        {
          "internalType": "address",
          "name": "owner",
          "type": "address"
        }
      ],
      "name": "ERC721InvalidOwner",
      "type": "error"
    },
    {
      "inputs": [
        {
          "internalType": "address",
          "name": "receiver",
          "type": "address"
        }
      ],
      "name": "ERC721InvalidReceiver",
      "type": "error"
    },
    {
      "inputs": [
        {
          "internalType": "address",
          "name": "sender",
          "type": "address"
        }
      ],
      "name": "ERC721InvalidSender",
      "type": "error"
    },
    {
      "inputs": [
        {
          "internalType": "uint256",
          "name": "tokenId",
          "type": "uint256"
        }
      ],
      "name": "ERC721NonexistentToken",
      "type": "error"
    },
    {
      "inputs": [
        {
          "internalType": "address",
          "name": "owner",
          "type": "address"
        }
      ],
      "name": "OwnableInvalidOwner",
      "type": "error"
    },
    {
      "inputs": [
        {
          "internalType": "address",
          "name": "account",
          "type": "address"
        }
      ],
      "name": "OwnableUnauthorizedAccount",
      "type": "error"
    },
    {
      "anonymous": false,
      "inputs": [
        {
          "indexed": true,
          "internalType": "address",
          "name": "owner",
          "type": "address"
        },
        {
          "indexed": true,
          "internalType": "address",
          "name": "approved",
          "type": "address"
        },
        {
          "indexed": true,
          "internalType": "uint256",
          "name": "tokenId",
          "type": "uint256"
        }
      ],
      "name": "Approval",
      "type": "event"
    },
    {
      "anonymous": false,
      "inputs": [
        {
          "indexed": true,
          "internalType": "address",
          "name": "owner",
          "type": "address"
        },
        {
          "indexed": true,
          "internalType": "address",
          "name": "operator",
          "type": "address"
        },
        {
          "indexed": false,
          "internalType": "bool",
          "name": "approved",
          "type": "bool"
        }
      ],
      "name": "ApprovalForAll",
      "type": "event"
    },
    {
      "anonymous": false,
      "inputs": [
        {
          "indexed": true,
          "internalType": "uint256",
          "name": "tokenId",
          "type": "uint256"
        }
      ],
      "name": "CardBurned",
      "type": "event"
    },
    {
      "anonymous": false,
      "inputs": [
        {
          "indexed": true,
          "internalType": "uint256",
          "name": "tokenId",
          "type": "uint256"
        },
        {
          "indexed": true,
          "internalType": "address",
          "name": "owner",
          "type": "address"
        },
        {
          "indexed": false,
          "internalType": "string",
          "name": "name",
          "type": "string"
        },
        {
          "indexed": false,
          "internalType": "uint8",
          "name": "rarity",
          "type": "uint8"
        },
        {
          "indexed": false,
          "internalType": "string",
          "name": "element",
          "type": "string"
        }
      ],
      "name": "CardMinted",
      "type": "event"
    },
    {
      "anonymous": false,
      "inputs": [
        {
          "indexed": true,
          "internalType": "address",
          "name": "previousOwner",
          "type": "address"
        },
        {
          "indexed": true,
          "internalType": "address",
          "name": "newOwner",
          "type": "address"
        }
      ],
      "name": "OwnershipTransferred",
      "type": "event"
    },
    {
      "anonymous": false,
      "inputs": [
        {
          "indexed": true,
          "internalType": "uint8",
          "name": "rarity",
          "type": "uint8"
        },
        {
          "indexed": false,
          "internalType": "uint256",
          "name": "newSupply",
          "type": "uint256"
        }
      ],
      "name": "SupplyUpdated",
      "type": "event"
    },
    {
      "anonymous": false,
      "inputs": [
        {
          "indexed": true,
          "internalType": "address",
          "name": "from",
          "type": "address"
        },
        {
          "indexed": true,
          "internalType": "address",
          "name": "to",
          "type": "address"
        },
        {
          "indexed": true,
          "internalType": "uint256",
          "name": "tokenId",
          "type": "uint256"
        }
      ],
      "name": "Transfer",
      "type": "event"
    },
    {
      "inputs": [
        {
          "internalType": "address",
          "name": "to",
          "type": "address"
        },
        {
          "internalType": "uint256",
          "name": "tokenId",
          "type": "uint256"
        }
      ],
      "name": "approve",
      "outputs": [],
      "stateMutability": "nonpayable",
      "type": "function"
    },
    {
      "inputs": [
        {
          "internalType": "address",
          "name": "owner",
          "type": "address"
        }
      ],
      "name": "balanceOf",
      "outputs": [
        {
          "internalType": "uint256",
          "name": "",
          "type": "uint256"
        }
      ],
      "stateMutability": "view",
      "type": "function"
    },
    {
      "inputs": [
        {
          "internalType": "uint256",
          "name": "tokenId",
          "type": "uint256"
        }
      ],
      "name": "burn",
      "outputs": [],
      "stateMutability": "nonpayable",
      "type": "function"
    },
    {
      "inputs": [
        {
          "internalType": "uint256",
          "name": "tokenId",
          "type": "uint256"
        }
      ],
      "name": "getApproved",
      "outputs": [
        {
          "internalType": "address",
          "name": "",
          "type": "address"
        }
      ],
      "stateMutability": "view",
      "type": "function"
    },
    {
      "inputs": [
        {
          "internalType": "uint256",
          "name": "tokenId",
          "type": "uint256"
        }
      ],
      "name": "getCardAttributes",
      "outputs": [
        {
          "internalType": "string",
          "name": "name",
          "type": "string"
        },
        {
          "internalType": "uint8",
          "name": "rarity",
          "type": "uint8"
        },
        {
          "internalType": "string",
          "name": "element",
          "type": "string"
        },
        {
          "internalType": "uint16",
          "name": "attack",
          "type": "uint16"
        },
        {
          "internalType": "uint16",
          "name": "defense",
          "type": "uint16"
        },
        {
          "internalType": "string",
          "name": "ability",
          "type": "string"
        },
        {
          "internalType": "uint8",
          "name": "generation",
          "type": "uint8"
        }
      ],
      "stateMutability": "view",
      "type": "function"
    },
    {
      "inputs": [
        {
          "internalType": "string",
          "name": "element",
          "type": "string"
        }
      ],
      "name": "getTotalSupplyByElement",
      "outputs": [
        {
          "internalType": "uint256",
          "name": "",
          "type": "uint256"
        }
      ],
      "stateMutability": "view",
      "type": "function"
    },
    {
      "inputs": [
        {
          "internalType": "uint8",
          "name": "rarity",
          "type": "uint8"
        }
      ],
      "name": "getTotalSupplyByRarity",
      "outputs": [
        {
          "internalType": "uint256",
          "name": "",
          "type": "uint256"
        }
      ],
      "stateMutability": "view",
      "type": "function"
    },
    {
      "inputs": [
        {
          "internalType": "address",
          "name": "owner",
          "type": "address"
        },
        {
          "internalType": "address",
          "name": "operator",
          "type": "address"
        }
      ],
      "name": "isApprovedForAll",
      "outputs": [
        {
          "internalType": "bool",
          "name": "",
          "type": "bool"
        }
      ],
      "stateMutability": "view",
      "type": "function"
    },
    {
      "inputs": [
        {
          "internalType": "address",
          "name": "",
          "type": "address"
        }
      ],
      "name": "isManager",
      "outputs": [
        {
          "internalType": "bool",
          "name": "",
          "type": "bool"
        }
      ],
      "stateMutability": "view",
      "type": "function"
    },
    {
      "inputs": [
        {
          "internalType": "address",
          "name": "to",
          "type": "address"
        },
        {
          "internalType": "string",
          "name": "name",
          "type": "string"
        },
        {
          "internalType": "uint8",
          "name": "rarity",
          "type": "uint8"
        },
        {
          "internalType": "string",
          "name": "element",
          "type": "string"
        },
        {
          "internalType": "uint16",
          "name": "attack",
          "type": "uint16"
        },
        {
          "internalType": "uint16",
          "name": "defense",
          "type": "uint16"
        },
        {
          "internalType": "string",
          "name": "ability",
          "type": "string"
        }
      ],
      "name": "mintCard",
      "outputs": [
        {
          "internalType": "uint256",
          "name": "",
          "type": "uint256"
        }
      ],
      "stateMutability": "nonpayable",
      "type": "function"
    },
    {
      "inputs": [
        {
          "internalType": "address",
          "name": "to",
          "type": "address"
        },
        {
          "internalType": "string",
          "name": "name",
          "type": "string"
        },
        {
          "internalType": "uint8",
          "name": "rarity",
          "type": "uint8"
        },
        {
          "internalType": "string",
          "name": "element",
          "type": "string"
        },
        {
          "internalType": "uint16",
          "name": "attack",
          "type": "uint16"
        },
        {
          "internalType": "uint16",
          "name": "defense",
          "type": "uint16"
        },
        {
          "internalType": "string",
          "name": "ability",
          "type": "string"
        },
        {
          "internalType": "uint8",
          "name": "generation",
          "type": "uint8"
        }
      ],
      "name": "mintCardWithGen",
      "outputs": [
        {
          "internalType": "uint256",
          "name": "",
          "type": "uint256"
        }
      ],
      "stateMutability": "nonpayable",
      "type": "function"
    },
    {
      "inputs": [],
      "name": "name",
      "outputs": [
        {
          "internalType": "string",
          "name": "",
          "type": "string"
        }
      ],
      "stateMutability": "view",
      "type": "function"
    },
    {
      "inputs": [],
      "name": "owner",
      "outputs": [
        {
          "internalType": "address",
          "name": "",
          "type": "address"
        }
      ],
      "stateMutability": "view",
      "type": "function"
    },
    {
      "inputs": [
        {
          "internalType": "uint256",
          "name": "tokenId",
          "type": "uint256"
        }
      ],
      "name": "ownerOf",
      "outputs": [
        {
          "internalType": "address",
          "name": "",
          "type": "address"
        }
      ],
      "stateMutability": "view",
      "type": "function"
    },
    {
      "inputs": [],
      "name": "renounceOwnership",
      "outputs": [],
      "stateMutability": "nonpayable",
      "type": "function"
    },
    {
      "inputs": [
        {
          "internalType": "address",
          "name": "from",
          "type": "address"
        },
        {
          "internalType": "address",
          "name": "to",
          "type": "address"
        },
        {
          "internalType": "uint256",
          "name": "tokenId",
          "type": "uint256"
        }
      ],
      "name": "safeTransferFrom",
      "outputs": [],
      "stateMutability": "nonpayable",
      "type": "function"
    },
    {
      "inputs": [
        {
          "internalType": "address",
          "name": "from",
          "type": "address"
        },
        {
          "internalType": "address",
          "name": "to",
          "type": "address"
        },
        {
          "internalType": "uint256",
          "name": "tokenId",
          "type": "uint256"
        },
        {
          "internalType": "bytes",
          "name": "data",
          "type": "bytes"
        }
      ],
      "name": "safeTransferFrom",
      "outputs": [],
      "stateMutability": "nonpayable",
      "type": "function"
    },
    {
      "inputs": [
        {
          "internalType": "address",
          "name": "operator",
          "type": "address"
        },
        {
          "internalType": "bool",
          "name": "approved",
          "type": "bool"
        }
      ],
      "name": "setApprovalForAll",
      "outputs": [],
      "stateMutability": "nonpayable",
      "type": "function"
    },
    {
      "inputs": [
        {
          "internalType": "address",
          "name": "manager",
          "type": "address"
        },
        {
          "internalType": "bool",
          "name": "status",
          "type": "bool"
        }
      ],
      "name": "setManager",
      "outputs": [],
      "stateMutability": "nonpayable",
      "type": "function"
    },
    {
      "inputs": [
        {
          "internalType": "bytes4",
          "name": "interfaceId",
          "type": "bytes4"
        }
      ],
      "name": "supportsInterface",
      "outputs": [
        {
          "internalType": "bool",
          "name": "",
          "type": "bool"
        }
      ],
      "stateMutability": "view",
      "type": "function"
    },
    {
      "inputs": [],
      "name": "symbol",
      "outputs": [
        {
          "internalType": "string",
          "name": "",
          "type": "string"
        }
      ],
      "stateMutability": "view",
      "type": "function"
    },
    {
      "inputs": [
        {
          "internalType": "uint256",
          "name": "tokenId",
          "type": "uint256"
        }
      ],
      "name": "tokenURI",
      "outputs": [
        {
          "internalType": "string",
          "name": "",
          "type": "string"
        }
      ],
      "stateMutability": "view",
      "type": "function"
    },
    {
      "inputs": [],
      "name": "totalMinted",
      "outputs": [
        {
          "internalType": "uint256",
          "name": "",
          "type": "uint256"
        }
      ],
      "stateMutability": "view",
      "type": "function"
    },
    {
      "inputs": [
        {
          "internalType": "address",
          "name": "from",
          "type": "address"
        },
        {
          "internalType": "address",
          "name": "to",
          "type": "address"
        },
        {
          "internalType": "uint256",
          "name": "tokenId",
          "type": "uint256"
        }
      ],
      "name": "transferFrom",
      "outputs": [],
      "stateMutability": "nonpayable",
      "type": "function"
    },
    {
      "inputs": [
        {
          "internalType": "address",
          "name": "newOwner",
          "type": "address"
        }
      ],
      "name": "transferOwnership",
      "outputs": [],
      "stateMutability": "nonpayable",
      "type": "function"
    }
  ],
  "bytecode": "0x60806040523461036b57604080519081016001600160401b03811182821017610281576040908152600a82526911d85b59519a50d85c9960b21b602083015280519081016001600160401b0381118282101761028157604052600381526247464360e81b602082015281516001600160401b038111610281575f54600181811c91168015610361575b602082101461026357601f81116102ff575b50602092601f82116001146102a057928192935f92610295575b50508160011b915f199060031b1c1916175f555b80516001600160401b03811161028157600154600181811c91168015610277575b602082101461026357601f8111610200575b50602091601f82116001146101a0579181925f92610195575b50508160011b915f199060031b1c1916176001555b33156101825760068054336001600160a01b03198216811790925560405191906001600160a01b03167f8be0079c531659141344cd1fd0a4f28419497f9722a3daafe3b4186f6b6457e05f80a361206d90816103708239f35b631e4fbdf760e01b5f525f60045260245ffd5b015190505f80610114565b601f1982169260015f52805f20915f5b8581106101e8575083600195106101d0575b505050811b01600155610129565b01515f1960f88460031b161c191690555f80806101c2565b919260206001819286850151815501940192016101b0565b60015f527fb10e2d527612073b26eecdfd717e6a320cf44b4afac2b0732d9fcbe2b7fa0cf6601f830160051c81019160208410610259575b601f0160051c01905b81811061024e57506100fb565b5f8155600101610241565b9091508190610238565b634e487b7160e01b5f52602260045260245ffd5b90607f16906100e9565b634e487b7160e01b5f52604160045260245ffd5b015190505f806100b4565b601f198216935f8052805f20915f5b8681106102e757508360019596106102cf575b505050811b015f556100c8565b01515f1960f88460031b161c191690555f80806102c2565b919260206001819286850151815501940192016102af565b5f80527f290decd9548b62a8d60345a988386fc84ba6bc95484008f6362f93160ef3e563601f830160051c81019160208410610357575b601f0160051c01905b81811061034c575061009a565b5f815560010161033f565b9091508190610336565b90607f1690610088565b5f80fdfe6080806040526004361015610012575f80fd5b5f905f3560e01c90816301ffc9a7146117a95750806306fdde0314611707578063081812fc146116cb578063095ea7b3146115e157806323b872dd146115ca5780633d7aa077146110e457806342842e0e146110b557806342966c6814610e5e5780636352211e14610e2e57806370a0823114610ddd578063715018a614610d825780638da5cb5b14610d5a57806395d89b4114610c7c578063a22cb46514610bd6578063a2309ff814610bb9578063a5e90eee14610b7b578063a9e3227414610b46578063ab71aa4314610af1578063b88d4fde14610a84578063c87b56dd14610a2b578063d5aaa5b0146108d8578063e1547e0f14610253578063e985e9c5146101fb578063f2fde38b146101725763f3ae241514610131575f80fd5b3461016f57602036600319011261016f5760209060ff906040906001600160a01b0361015b611838565b168152600b84522054166040519015158152f35b80fd5b503461016f57602036600319011261016f5761018c611838565b610194611dd6565b6001600160a01b031680156101e757600680546001600160a01b0319811683179091556001600160a01b03167f8be0079c531659141344cd1fd0a4f28419497f9722a3daafe3b4186f6b6457e05f80a380f35b631e4fbdf760e01b82526004829052602482fd5b503461016f57604036600319011261016f576040610217611838565b9161022061184e565b9260018060a01b031681526005602052209060018060a01b03165f52602052602060ff60405f2054166040519015158152f35b503461016f5761010036600319011261016f5761026e611838565b6024356001600160401b0381116108d45761028d90369060040161192b565b610295611949565b916064356001600160401b0381116108d0576102b590369060040161192b565b936102be611959565b926102c761196a565b9560c4356001600160401b0381116108cc576102e790369060040161192b565b9260e4359660ff88168098036108c85761031860ff9260018060a01b036006541633149081156108b1575b50611c0f565b16946001861015806108a6575b156108705761ffff169687151580610863575b1561082e57610348600754611dc8565b96876007556020986040519661035e8b896118b9565b5f88526001600160a01b03811697881561081b576001600160a01b036103848c84611d04565b16610808578a6103949233611dfd565b604051926103a18461189e565b8584528a840189815260408501908682526060860193845261ffff608087019316835260a0860198895260c086019485528b5f5260088d5260405f2095518051906001600160401b0382116106ca578e906103fc89546119aa565b601f81116107da575b5081601f8411600114610772575091806104389260ff95945f926105fd575b50508160011b915f199060031b1c19161790565b87555b511660ff60018701911660ff1982541617905560028501905180516001600160401b0381116106ca578d61046f84546119aa565b90601f8211610743575b50508d80601f83116001146106de575081906104a9935f926105fd5750508160011b915f199060031b1c19161790565b90555b61ffff6003850192511663ffff00008354925160101b169163ffffffff1916171790556004820194519485516001600160401b0381116106ca5789966104f283546119aa565b8c601f8211610690575b50508b90601f83116001146106085760ff6105bd956105aa989561054a865f5160206120185f395f51905f529c9a9785976005975f926105fd5750508160011b915f199060031b1c19161790565b90555b51169201911660ff19825416179055875f5260098a5260405f206105718154611dc8565b90556040518a81835180838601835e8101600a8152030190206105948154611dc8565b9055604051938493606085526060850190611814565b90888b8501528382036040850152611814565b0390a3805f52600983527ff34a5a92a6a55542fbe5787aadd7c498e790b53740631c282e654cc428770d478360405f2054604051908152a2604051908152f35b015190505f80610424565b5f8481528d8120929190601f198516908f5b828210610674575050956105aa989560018660ff9660059688965f5160206120185f395f51905f529f9d9a6105bd9d1061065c575b505050811b01905561054d565b01515f1960f88460031b161c191690555f808061064f565b8484015186558f9c50600190950194938401939081019061061a565b6106b991855f52815f2090601f860160051c82019286106106c0575b601f0160051c0190611c6c565b5f8c6104fc565b90915081906106ac565b634e487b7160e01b5f52604160045260245ffd5b9192601f198416855f52835f20935f905b82821061072b575050908460019594939210610713575b505050811b0190556104ac565b01515f1960f88460031b161c191690555f8080610706565b806001869782949787015181550196019401906106ef565b61076b91855f52815f2090601f850160051c82019285106106c057601f0160051c0190611c6c565b5f8e610479565b9190601f1984168a5f52835f20935f905b8282106107c257505091600193918560ff979694106107aa575b505050811b01875561043b565b01515f1960f88460031b161c191690555f808061079d565b80600186978294978701518155019601940190610783565b610802908a5f52835f20601f860160051c8101918587106106c057601f0160051c0190611c6c565b5f610405565b6339e3563760e11b5f525f60045260245ffd5b633250574960e11b5f525f60045260245ffd5b60405162461bcd60e51b815260206004820152600d60248201526c496e76616c696420737461747360981b6044820152606490fd5b5061ffff81161515610338565b60405162461bcd60e51b815260206004820152600e60248201526d496e76616c69642072617269747960901b6044820152606490fd5b506004861115610325565b849150604090338152600b6020522054165f610312565b5f80fd5b8380fd5b8480fd5b8280fd5b503461016f57602036600319011261016f57600435808252600260205260408220546001600160a01b0316156109f257816040916109bd93526008602052206040516109238161189e565b61092c826119e2565b81526109e8608060a0836109d060ff600188015416966020830197885261ffff8060ff80600561095e600287016119e2565b95604089019687528460038201549b8a8260608f9d019c168c52019b60101c168b528c61098d600483016119e2565b9a8b910152015416998a60c0820152519a5116925194511695511692604051998a9960e08b5260e08b0190611814565b9160208a015288820360408a0152611814565b926060870152608086015284820360a0860152611814565b9060c08301520390f35b60405162461bcd60e51b81526020600482015260116024820152702737b732bc34b9ba32b73a103a37b5b2b760791b6044820152606490fd5b346108c85760203660031901126108c857610a47600435611cd0565b505f604051610a576020826118b9565b52610a80604051610a696020826118b9565b5f8152604051918291602083526020830190611814565b0390f35b346108c85760803660031901126108c857610a9d611838565b610aa561184e565b90604435606435926001600160401b0384116108c857366023850112156108c857610add610aef9436906024816004013591016118f5565b92610ae9838383611a82565b33611f32565b005b346108c85760203660031901126108c8576004356001600160401b0381116108c857602080610b258193369060040161192b565b604051928184925191829101835e8101600a81520301902054604051908152f35b346108c85760203660031901126108c85760043560ff81168091036108c8575f526009602052602060405f2054604051908152f35b346108c857610aef610b8c3661197b565b90610b95611dd6565b60018060a01b03165f52600b60205260405f209060ff801983541691151516179055565b346108c8575f3660031901126108c8576020600754604051908152f35b346108c857610be43661197b565b903315610c69576001600160a01b0316908115610c5657335f52600560205260405f20825f52602052610c268160405f209060ff801983541691151516179055565b60405190151581527f17307eab39ab6107e8899845ad3d59bd9653f200f220920489ca2b5937696c3160203392a3005b50630b61174360e31b5f5260045260245ffd5b63a9fbf51f60e01b5f525f60045260245ffd5b346108c8575f3660031901126108c8576040515f600154610c9c816119aa565b8084529060018116908115610d365750600114610cd8575b610a8083610cc4818503826118b9565b604051918291602083526020830190611814565b60015f9081527fb10e2d527612073b26eecdfd717e6a320cf44b4afac2b0732d9fcbe2b7fa0cf6939250905b808210610d1c57509091508101602001610cc4610cb4565b919260018160209254838588010152019101909291610d04565b60ff191660208086019190915291151560051b84019091019150610cc49050610cb4565b346108c8575f3660031901126108c8576006546040516001600160a01b039091168152602090f35b346108c8575f3660031901126108c857610d9a611dd6565b600680546001600160a01b031981169091555f906001600160a01b03167f8be0079c531659141344cd1fd0a4f28419497f9722a3daafe3b4186f6b6457e08280a3005b346108c85760203660031901126108c8576001600160a01b03610dfe611838565b168015610e1b575f526003602052602060405f2054604051908152f35b6322718ad960e21b5f525f60045260245ffd5b346108c85760203660031901126108c8576020610e4c600435611cd0565b6040516001600160a01b039091168152f35b346108c85760203660031901126108c85760043560018060a01b03600654163314801561109d575b610e8f90611c0f565b805f52600860205260405f2060208060405192610eab8461189e565b610eb4816119e2565b845260ff6001820154169382810194855260c060ff6005610ed7600286016119e2565b946040850195865261ffff6003820154818116606088015260101c166080860152610f04600482016119e2565b60a086015201541691015260ff8451165f526009825260405f20610f288154611c4c565b905551604051928184925191829101835e8101600a815203019020610f4d8154611c4c565b9055815f5260086020525f600560408220610f6781611c82565b826001820155610f7960028201611c82565b826003820155610f8b60048201611c82565b01555f828152600260205260409020546001600160a01b0316801590811561106a575b5f84815260026020526040812080546001600160a01b03191690558490827fddf252ad1be2c89b69c2b068fc378daa952ba7f163c4a11628f55a4df523b3ef8280a45061105757602060ff7ff34a5a92a6a55542fbe5787aadd7c498e790b53740631c282e654cc428770d4792604051947f0a7045c74bf1b0cbff07375fb21ff7c04ea187a00d2a75b20764f01fb5a241695f80a2511692835f526009825260405f20548152a2005b50637e27328960e01b5f5260045260245ffd5b5f84815260046020526040902080546001600160a01b0319169055805f52600360205260405f205f198154019055610fae565b50335f908152600b602052604090205460ff16610e86565b346108c857610aef6110c636611864565b90604051926110d66020856118b9565b5f8452610ae9838383611a82565b346108c85760e03660031901126108c8576110fd611838565b6024356001600160401b0381116108c85761111c90369060040161192b565b90611125611949565b6064356001600160401b0381116108c85761114490369060040161192b565b9161114d611959565b9161115661196a565b9460c4356001600160401b0381116108c85761117860ff91369060040161192b565b9260018060a01b0360065416331480156115b3575b61119690611c0f565b16936001851015806115a8575b156108705761ffff16948515158061159b575b1561082e576111c6600754611dc8565b9586600755602097604051956111dc8a886118b9565b5f87526001600160a01b03811696871561081b576001600160a01b036112028b84611d04565b1661080857896112129233611dfd565b6040519161121f8361189e565b84835289830191888352604084018581526060850192835261ffff608086019216825260a0850197885260c08501935f85528b5f5260088d5260405f2095518051906001600160401b0382116106ca578e9061127b89546119aa565b601f811161156d575b5081601f8411600114611505575091806112b69260ff95945f926105fd5750508160011b915f199060031b1c19161790565b87555b511660ff60018701911660ff1982541617905560028501905180516001600160401b0381116106ca578d6112ed84546119aa565b90601f82116114d6575b50508d80601f831160011461147157508190611327935f926114665750508160011b915f199060031b1c19161790565b90555b61ffff6003850192511663ffff00008354925160101b169163ffffffff1916171790556004820194519485516001600160401b0381116106ca57899661137083546119aa565b8c601f8211611437575b50508b90601f83116001146113c85760ff6105bd956105aa989561054a865f5160206120185f395f51905f529c9a9785976005975f926105fd5750508160011b915f199060031b1c19161790565b5f8481528d8120929190601f198516908f5b82821061141b575050956105aa989560018660ff9660059688965f5160206120185f395f51905f529f9d9a6105bd9d1061065c57505050811b01905561054d565b8484015186558f9c5060019095019493840193908101906113da565b61145f91855f52815f2090601f860160051c82019286106106c057601f0160051c0190611c6c565b8c8c61137a565b015190508f80610424565b9192601f198416855f52835f20935f905b8282106114be5750509084600195949392106114a6575b505050811b01905561132a565b01515f1960f88460031b161c191690558e8080611499565b80600186978294978701518155019601940190611482565b6114fe91855f52815f2090601f850160051c82019285106106c057601f0160051c0190611c6c565b8e8e6112f7565b9190601f1984168a5f52835f20935f905b82821061155557505091600193918560ff9796941061153d575b505050811b0187556112b9565b01515f1960f88460031b161c191690555f8080611530565b80600186978294978701518155019601940190611516565b611595908a5f52835f20601f860160051c8101918587106106c057601f0160051c0190611c6c565b5f611284565b5061ffff871615156111b6565b5060048511156111a3565b50335f908152600b6020526040902054821661118d565b346108c857610aef6115db36611864565b91611a82565b346108c85760403660031901126108c8576115fa611838565b60243561160681611cd0565b331515806116b8575b8061168b575b6116785781906001600160a01b0384811691167f8c5be1e5ebec7d5bd14f71427d1e84f3dd0314c0f7b2291e5b200ac8c7c3b9255f80a45f90815260046020526040902080546001600160a01b0319166001600160a01b03909216919091179055005b63a9fbf51f60e01b5f523360045260245ffd5b506001600160a01b0381165f90815260056020908152604080832033845290915290205460ff1615611615565b506001600160a01b03811633141561160f565b346108c85760203660031901126108c8576004356116e881611cd0565b505f526004602052602060018060a01b0360405f205416604051908152f35b346108c8575f3660031901126108c8576040515f5f54611726816119aa565b8084529060018116908115610d36575060011461174d57610a8083610cc4818503826118b9565b5f8080527f290decd9548b62a8d60345a988386fc84ba6bc95484008f6362f93160ef3e563939250905b80821061178f57509091508101602001610cc4610cb4565b919260018160209254838588010152019101909291611777565b346108c85760203660031901126108c8576004359063ffffffff60e01b82168092036108c8576020916380ac58cd60e01b8114908115611803575b81156117f2575b5015158152f35b6301ffc9a760e01b149050836117eb565b635b5e139f60e01b811491506117e4565b805180835260209291819084018484015e5f828201840152601f01601f1916010190565b600435906001600160a01b03821682036108c857565b602435906001600160a01b03821682036108c857565b60609060031901126108c8576004356001600160a01b03811681036108c857906024356001600160a01b03811681036108c8579060443590565b60e081019081106001600160401b038211176106ca57604052565b90601f801991011681019081106001600160401b038211176106ca57604052565b6001600160401b0381116106ca57601f01601f191660200190565b929192611901826118da565b9161190f60405193846118b9565b8294818452818301116108c8578281602093845f960137010152565b9080601f830112156108c857816020611946933591016118f5565b90565b6044359060ff821682036108c857565b6084359061ffff821682036108c857565b60a4359061ffff821682036108c857565b60409060031901126108c8576004356001600160a01b03811681036108c8579060243580151581036108c85790565b90600182811c921680156119d8575b60208310146119c457565b634e487b7160e01b5f52602260045260245ffd5b91607f16916119b9565b9060405191825f8254926119f5846119aa565b8084529360018116908115611a605750600114611a1c575b50611a1a925003836118b9565b565b90505f9291925260205f20905f915b818310611a44575050906020611a1a928201015f611a0d565b6020919350806001915483858901015201910190918492611a2b565b905060209250611a1a94915060ff191682840152151560051b8201015f611a0d565b6001600160a01b039091169190821561081b575f828152600260205260409020546001600160a01b031692829033151580611b7a575b5084611b47575b805f52600360205260405f2060018154019055815f52600260205260405f20816bffffffffffffffffffffffff60a01b825416179055847fddf252ad1be2c89b69c2b068fc378daa952ba7f163c4a11628f55a4df523b3ef5f80a46001600160a01b0316808303611b2f57505050565b6364283d7b60e01b5f5260045260245260445260645ffd5b5f82815260046020526040902080546001600160a01b0319169055845f52600360205260405f205f198154019055611abf565b90915080611bbe575b15611b905782905f611ab8565b8284611ba857637e27328960e01b5f5260045260245ffd5b63177e802f60e01b5f523360045260245260445ffd5b503384148015611bed575b80611b8357505f838152600460205260409020546001600160a01b03163314611b83565b505f84815260056020908152604080832033845290915290205460ff16611bc9565b15611c1657565b60405162461bcd60e51b815260206004820152600e60248201526d139bdd08185d5d1a1bdc9a5e995960921b6044820152606490fd5b8015611c58575f190190565b634e487b7160e01b5f52601160045260245ffd5b818110611c77575050565b5f8155600101611c6c565b611c8c81546119aa565b9081611c96575050565b81601f5f9311600114611ca7575055565b81835260208320611cc391601f0160051c810190600101611c6c565b8082528160208120915555565b5f818152600260205260409020546001600160a01b0316908115611cf2575090565b637e27328960e01b5f5260045260245ffd5b5f828152600260205260409020546001600160a01b0316919082611d95575b6001600160a01b031680611d7d575b815f52600260205260405f20816bffffffffffffffffffffffff60a01b825416179055827fddf252ad1be2c89b69c2b068fc378daa952ba7f163c4a11628f55a4df523b3ef5f80a490565b805f52600360205260405f2060018154019055611d32565b5f82815260046020526040902080546001600160a01b0319169055825f52600360205260405f205f198154019055611d23565b5f198114611c585760010190565b6006546001600160a01b03163303611dea57565b63118cdaa760e01b5f523360045260245ffd5b9291813b611e0c575b50505050565b604051630a85bd0160e11b81526001600160a01b0394851660048201525f60248201526044810191909152608060648201529216919060209082908190611e57906084830190611814565b03815f865af15f9181611eed575b50611eba57503d15611eb3573d611e7b816118da565b90611e8960405192836118b9565b81523d5f602083013e5b80519081611eae5782633250574960e11b5f5260045260245ffd5b602001fd5b6060611e93565b6001600160e01b03191663757a42ff60e11b01611edb57505f808080611e06565b633250574960e11b5f5260045260245ffd5b9091506020813d602011611f2a575b81611f09602093836118b9565b810103126108c857516001600160e01b0319811681036108c857905f611e65565b3d9150611efc565b823b611f40575b5050505050565b604051630a85bd0160e11b81526001600160a01b039182166004820152918116602483015260448201939093526080606482015291169160209082908190611f8c906084830190611814565b03815f865af15f9181611fd2575b50611fb057503d15611eb3573d611e7b816118da565b6001600160e01b03191663757a42ff60e11b01611edb57505f80808080611f39565b9091506020813d60201161200f575b81611fee602093836118b9565b810103126108c857516001600160e01b0319811681036108c857905f611f9a565b3d9150611fe156fef6330338eeb1d1562653bd6be0025feb32293c887fe579cace284b627f64b10ea2646970667358221220ed5b82699325f14970b539b029cfebbba4ecdf427365254dba4fe39f5ce36e2564736f6c634300081c0033",
  "linkReferences": {},
  "deployedLinkReferences": {}
}