{
  "_format": "hh-sol-artifact-1",
  "contractName": "CombinationManager",
  "sourceName": "contracts/CombinationManager.sol",
  "abi": [
    {
      "inputs": [
        {
          "internalType": "address",
          "name": "_cardNFT",
          "type": "address"
        }
      ],
      "stateMutability": "nonpayable",
      "type": "constructor"
    },
    {
      "inputs": [
        {
          "internalType": "address",
          "name": "owner",
          "type": "address"
        }
      ],
      "name": "OwnableInvalidOwner",
      "type": "error"
    },
    {
      "inputs": [
        {
          "internalType": "address",
          "name": "account",
          "type": "address"
        }
      ],
      "name": "OwnableUnauthorizedAccount",
      "type": "error"
    },
    {
      "inputs": [],
      "name": "ReentrancyGuardReentrantCall",
      "type": "error"
    },
    {
      "anonymous": false,
      "inputs": [
        {
          "indexed": true,
          "internalType": "uint256",
          "name": "fusedTokenId",
          "type": "uint256"
        },
        {
          "indexed": true,
          "internalType": "uint256",
          "name": "tokenId1",
          "type": "uint256"
        },
        {
          "indexed": true,
          "internalType": "uint256",
          "name": "tokenId2",
          "type": "uint256"
        },
        {
          "indexed": false,
          "internalType": "address",
          "name": "owner",
          "type": "address"
        }
      ],
      "name": "CardUnfused",
      "type": "event"
    },
    {
      "anonymous": false,
      "inputs": [
        {
          "indexed": true,
          "internalType": "uint256",
          "name": "newTokenId",
          "type": "uint256"
        },
        {
          "indexed": true,
          "internalType": "uint256",
          "name": "tokenId1",
          "type": "uint256"
        },
        {
          "indexed": true,
          "internalType": "uint256",
          "name": "tokenId2",
          "type": "uint256"
        },
        {
          "indexed": false,
          "internalType": "address",
          "name": "owner",
          "type": "address"
        },
        {
          "indexed": false,
          "internalType": "string",
          "name": "resultElement",
          "type": "string"
        },
        {
          "indexed": false,
          "internalType": "uint8",
          "name": "resultRarity",
          "type": "uint8"
        }
      ],
      "name": "CardsCombined",
      "type": "event"
    },
    {
      "anonymous": false,
      "inputs": [
        {
          "indexed": true,
          "internalType": "uint256",
          "name": "fusedTokenId",
          "type": "uint256"
        },
        {
          "indexed": true,
          "internalType": "uint256",
          "name": "tokenId1",
          "type": "uint256"
        },
        {
          "indexed": true,
          "internalType": "uint256",
          "name": "tokenId2",
          "type": "uint256"
        },
        {
          "indexed": false,
          "internalType": "address",
          "name": "owner",
          "type": "address"
        }
      ],
      "name": "CardsFused",
      "type": "event"
    },
    {
      "anonymous": false,
      "inputs": [
        {
          "indexed": true,
          "internalType": "address",
          "name": "previousOwner",
          "type": "address"
        },
        {
          "indexed": true,
          "internalType": "address",
          "name": "newOwner",
          "type": "address"
        }
      ],
      "name": "OwnershipTransferred",
      "type": "event"
    },
    {
      "inputs": [],
      "name": "COOLDOWN_BLOCKS",
      "outputs": [
        {
          "internalType": "uint256",
          "name": "",
          "type": "uint256"
        }
      ],
      "stateMutability": "view",
      "type": "function"
    },
    {
      "inputs": [],
      "name": "MAX_GENERATION",
      "outputs": [
        {
          "internalType": "uint256",
          "name": "",
          "type": "uint256"
        }
      ],
      "stateMutability": "view",
      "type": "function"
    },
    {
      "inputs": [],
      "name": "cardNFT",
      "outputs": [
        {
          "internalType": "contract ICardNFT",
          "name": "",
          "type": "address"
        }
      ],
      "stateMutability": "view",
      "type": "function"
    },
    {
      "inputs": [
        {
          "internalType": "uint256",
          "name": "tokenId1",
          "type": "uint256"
        },
        {
          "internalType": "uint256",
          "name": "tokenId2",
          "type": "uint256"
        },
        {
          "internalType": "uint256[]",
          "name": "fuelCards",
          "type": "uint256[]"
        }
      ],
      "name": "combineCards",
      "outputs": [
        {
          "internalType": "uint256",
          "name": "newTokenId",
          "type": "uint256"
        }
      ],
      "stateMutability": "nonpayable",
      "type": "function"
    },
    {
      "inputs": [
        {
          "internalType": "uint256",
          "name": "tokenId1",
          "type": "uint256"
        },
        {
          "internalType": "uint256",
          "name": "tokenId2",
          "type": "uint256"
        }
      ],
      "name": "fuseCards",
      "outputs": [
        {
          "internalType": "uint256",
          "name": "fusedTokenId",
          "type": "uint256"
        }
      ],
      "stateMutability": "nonpayable",
      "type": "function"
    },
    {
      "inputs": [
        {
          "internalType": "uint256",
          "name": "",
          "type": "uint256"
        }
      ],
      "name": "fusedCards",
      "outputs": [
        {
          "internalType": "uint256",
          "name": "tokenId1",
          "type": "uint256"
        },
        {
          "internalType": "uint256",
          "name": "tokenId2",
          "type": "uint256"
        },
        {
          "internalType": "bool",
          "name": "isActive",
          "type": "bool"
        }
      ],
      "stateMutability": "view",
      "type": "function"
    },
    {
      "inputs": [
        {
          "internalType": "uint256",
          "name": "tokenId1",
          "type": "uint256"
        },
        {
          "internalType": "uint256",
          "name": "tokenId2",
          "type": "uint256"
        }
      ],
      "name": "getCombinationPreview",
      "outputs": [
        {
          "internalType": "string",
          "name": "element",
          "type": "string"
        },
        {
          "internalType": "uint16",
          "name": "attack",
          "type": "uint16"
        },
        {
          "internalType": "uint16",
          "name": "defense",
          "type": "uint16"
        },
        {
          "internalType": "uint8",
          "name": "rarity",
          "type": "uint8"
        },
        {
          "internalType": "string",
          "name": "ability",
          "type": "string"
        },
        {
          "internalType": "uint8",
          "name": "generation",
          "type": "uint8"
        }
      ],
      "stateMutability": "view",
      "type": "function"
    },
    {
      "inputs": [
        {
          "internalType": "address",
          "name": "player",
          "type": "address"
        }
      ],
      "name": "getPlayerCombinationCount",
      "outputs": [
        {
          "internalType": "uint256",
          "name": "",
          "type": "uint256"
        }
      ],
      "stateMutability": "view",
      "type": "function"
    },
    {
      "inputs": [
        {
          "internalType": "uint256",
          "name": "",
          "type": "uint256"
        }
      ],
      "name": "isLocked",
      "outputs": [
        {
          "internalType": "bool",
          "name": "",
          "type": "bool"
        }
      ],
      "stateMutability": "view",
      "type": "function"
    },
    {
      "inputs": [
        {
          "internalType": "uint256",
          "name": "tokenId1",
          "type": "uint256"
        },
        {
          "internalType": "uint256",
          "name": "tokenId2",
          "type": "uint256"
        }
      ],
      "name": "isValidCombination",
      "outputs": [
        {
          "internalType": "bool",
          "name": "",
          "type": "bool"
        }
      ],
      "stateMutability": "view",
      "type": "function"
    },
    {
      "inputs": [
        {
          "internalType": "address",
          "name": "",
          "type": "address"
        }
      ],
      "name": "lastCombinationBlock",
      "outputs": [
        {
          "internalType": "uint256",
          "name": "",
          "type": "uint256"
        }
      ],
      "stateMutability": "view",
      "type": "function"
    },
    {
      "inputs": [],
      "name": "owner",
      "outputs": [
        {
          "internalType": "address",
          "name": "",
          "type": "address"
        }
      ],
      "stateMutability": "view",
      "type": "function"
    },
    {
      "inputs": [
        {
          "internalType": "address",
          "name": "",
          "type": "address"
        }
      ],
      "name": "playerCombinationCount",
      "outputs": [
        {
          "internalType": "uint256",
          "name": "",
          "type": "uint256"
        }
      ],
      "stateMutability": "view",
      "type": "function"
    },
    {
      "inputs": [],
      "name": "renounceOwnership",
      "outputs": [],
      "stateMutability": "nonpayable",
      "type": "function"
    },
    {
      "inputs": [
        {
          "internalType": "address",
          "name": "newOwner",
          "type": "address"
        }
      ],
      "name": "transferOwnership",
      "outputs": [],
      "stateMutability": "nonpayable",
      "type": "function"
    },
    {
      "inputs": [
        {
          "internalType": "uint256",
          "name": "fusedTokenId",
          "type": "uint256"
        }
      ],
      "name": "unfuseCard",
      "outputs": [],
      "stateMutability": "nonpayable",
      "type": "function"
    }
  ],
  "bytecode": "0x6080346100f257601f61258638819003918201601f19168301916001600160401b038311848410176100f6578084926020946040528339810103126100f257516001600160a01b038116908190036100f25733156100df575f8054336001600160a01b0319821681178355604051939290916001600160a01b0316907f8be0079c531659141344cd1fd0a4f28419497f9722a3daafe3b4186f6b6457e09080a360017f9b779b17422d0df92223018b32b4d1fa46e071723d6817e2486d003becc55f005560018060a01b0319600154161760015561247b908161010b8239f35b631e4fbdf760e01b5f525f60045260245ffd5b5f80fd5b634e487b7160e01b5f52604160045260245ffdfe60806040526004361015610011575f80fd5b5f3560e01c8063031337dd14610f49578063159d2db114610f0357806338d5d7d114610edb5780635074d57f14610e9f5780635253e80214610dd657806352ff6baf14610e845780635483135414610e69578063715018a614610e125780638619810414610dd65780638da5cb5b14610daf578063b5316f4714610732578063b8ef1ca51461054c578063cd133b01146101ef578063ebf8a59e14610185578063f2fde38b146100fc5763f6aacfb1146100c9575f80fd5b346100f85760203660031901126100f8576004355f526005602052602060ff60405f2054166040519015158152f35b5f80fd5b346100f85760203660031901126100f8576004356001600160a01b038116908190036100f85761012a6115c0565b8015610172575f80546001600160a01b03198116831782556001600160a01b0316907f8be0079c531659141344cd1fd0a4f28419497f9722a3daafe3b4186f6b6457e09080a3005b631e4fbdf760e01b5f525f60045260245ffd5b346100f8576101c461ffff60ff806101e46101a86101a236610f6c565b90611481565b97928960409a9295969a519b8c9b60c08d5260c08d0190610f82565b961660208b01521660408901521660608701528582036080870152610f82565b911660a08301520390f35b346100f8576101fd36610f6c565b906102066115e6565b335f52600260205260405f2054158015610517575b6102249061132a565b6102366102318383611146565b611368565b6001546040516331a9108f60e11b81526004810183905290602090829060249082906001600160a01b03165afa801561048f57610285915f916104e8575b506001600160a01b031633146113aa565b805f52600560205260405f20600160ff19825416179055815f52600560205260405f20600160ff198254161790556102bd8282611481565b600154604051630d5aaa5b60e41b815260048101899052959896946001600160a01b0390911693505f86602481875afa95861561048f575f966104c5575b50604051630d5aaa5b60e41b815260048101889052955f87602481885afa92831561048f5761033d5f946103969360209a879261049a575b5033914291611853565b94604051936546757365642d60d01b8a8601526103786026868c8c8051918291018484015e810189838201520301601f198101875286610ff2565b60405163e1547e0f60e01b81529c8d998a9889973360048a01611406565b03925af191821561048f575f9261045a575b602093506040516103b881610fa6565b818152600285820191848352604081019260018452865f526004885260405f2091518255516001820155019051151560ff80198354169116179055335f526003845260405f206104088154611473565b9055827f1b51f6394711765b052ed4f913b1b7fcf12d81f19ece0ee262798470919fb09185604051338152a4335f52600282524360405f205560015f5160206124265f395f51905f5255604051908152f35b91506020833d602011610487575b8161047560209383610ff2565b810103126100f85760209251916103a8565b3d9150610468565b6040513d5f823e3d90fd5b6104b79192503d8089833e6104af8183610ff2565b8101906110a6565b50505050509050908e610333565b6104da9196503d805f833e6104af8183610ff2565b5050505050905094896102fb565b61050a915060203d602011610510575b6105028183610ff2565b810190611014565b84610274565b503d6104f8565b50335f52600260205260405f2054606481018091116105385743101561021b565b634e487b7160e01b5f52601160045260245ffd5b346100f85760203660031901126100f8576004356105686115e6565b6001546040516331a9108f60e11b81526004810183905290602090829060249082906001600160a01b03165afa801561048f576105b6915f9161071357506001600160a01b031633146113aa565b805f52600460205260ff600260405f20015416156106d557805f52600460205260405f206040516105e681610fa6565b815480825260ff600260018501549460208501958652015416151560408301525f52600560205260405f2060ff19815416905581515f52600560205260405f2060ff198154169055825f5260046020525f600260408220828155826001820155015560018060a01b0360015416803b156100f8575f8091602460405180948193630852cd8d60e31b83528960048401525af1801561048f576106c5575b50519051917fe511ac1c119629d5bb660f438adca2c8e01b82c6870e17eb27c6c85d99c9e3556020604051338152a460015f5160206124265f395f51905f5255005b5f6106cf91610ff2565b83610683565b60405162461bcd60e51b8152602060048201526016602482015275139bdd0818481d985b1a5908199d5cd9590818d85c9960521b6044820152606490fd5b61072c915060203d602011610510576105028183610ff2565b83610274565b346100f85760603660031901126100f85760443560243560043567ffffffffffffffff83116100f857366023840112156100f85782600401359267ffffffffffffffff84116100f8576024810190602436918660051b0101116100f8576107976115e6565b335f52600260205260405f2054158015610d8e575b6107b59061132a565b6107c26102318484611146565b6001546040516331a9108f60e11b8152600481018490526001600160a01b039091169190602081602481865afa801561048f57610810915f91610d6f57506001600160a01b031633146113aa565b604051630d5aaa5b60e41b815260048101849052945f86602481865afa92831561048f576024965f94610d4a575b505f9060405197888092630d5aaa5b60e41b82528960048301525afa95861561048f575f96610d27575b5060ff610875878561161e565b166002811015610aa7575b5050509082916108936108a49483611481565b939892949991509433914291611853565b6001549093906001600160a01b0316803b156100f8575f8091602460405180948193630852cd8d60e31b83528b60048401525af1801561048f57610a97575b506001546001600160a01b031691823b156100f8575f8093602460405180968193630852cd8d60e31b83528c60048401525af192831561048f5760209461099387935f938d97610a87575b5060018060a01b0360015416956040519365436f6d626f2d60d01b8a8601526109756026868c8c8051918291018484015e810189838201520301601f198101875286610ff2565b60405163e1547e0f60e01b81529d8e998a9889973360048a01611406565b03925af193841561048f575f94610a31575b507f2c9421a36e07aea8b59cac354f4578d84d1e2eba2e0124f38876ab378deaab57610a016020968693335f526003895260405f206109e48154611473565b905560ff60405193849333855260608c8601526060850190610f82565b911660408301520390a4335f52600282524360405f205560015f5160206124265f395f51905f5255604051908152f35b9493506020853d602011610a7f575b81610a4d60209383610ff2565b810103126100f857935192937f2c9421a36e07aea8b59cac354f4578d84d1e2eba2e0124f38876ab378deaab576109a5565b3d9150610a40565b84610a9191610ff2565b8d61092e565b5f610aa191610ff2565b886108e3565b5f190160ff81116105385760ff1691828210610ce2575f5b838110610acc5750610880565b6001546001600160a01b031690610ae48185856113e2565b6040516331a9108f60e11b815290356004820152602081602481865afa90811561048f575f91610cc4575b50336001600160a01b0390911603610c8b57610b2c8185856113e2565b604051630d5aaa5b60e41b8152903560048201525f81602481865afa90811561048f5760019160ff915f91610c6a575b501603610c2f5786610b6f8286866113e2565b35141580610c1a575b15610bd557610b888185856113e2565b35823b156100f8575f92602484926040519586938492630852cd8d60e31b845260048401525af191821561048f57600192610bc5575b5001610abf565b5f610bcf91610ff2565b89610bbe565b60405162461bcd60e51b815260206004820152601960248201527f4675656c2063616e6e6f74206265206d61696e206361726473000000000000006044820152606490fd5b5087610c278286866113e2565b351415610b78565b60405162461bcd60e51b8152602060048201526013602482015272233ab2b61036bab9ba1031329021b7b6b6b7b760691b6044820152606490fd5b610c7e91503d805f833e6104af8183610ff2565b505050505090508c610b5c565b60405162461bcd60e51b8152602060048201526011602482015270139bdd081bdddb995c881bd988199d595b607a1b6044820152606490fd5b610cdc915060203d8111610510576105028183610ff2565b8a610b0f565b60405162461bcd60e51b815260206004820152601a60248201527f496e73756666696369656e74206675656c2070726f76696465640000000000006044820152606490fd5b610d3c9196503d805f833e6104af8183610ff2565b505050505090509486610868565b5f919450610d61903d8084833e6104af8183610ff2565b50505050509050939061083e565b610d88915060203d602011610510576105028183610ff2565b87610274565b50335f52600260205260405f205460648101809111610538574310156107ac565b346100f8575f3660031901126100f8575f546040516001600160a01b039091168152602090f35b346100f85760203660031901126100f8576004356001600160a01b038116908190036100f8575f526003602052602060405f2054604051908152f35b346100f8575f3660031901126100f857610e2a6115c0565b5f80546001600160a01b0319811682556001600160a01b03167f8be0079c531659141344cd1fd0a4f28419497f9722a3daafe3b4186f6b6457e08280a3005b346100f8575f3660031901126100f857602060405160648152f35b346100f8575f3660031901126100f857602060405160058152f35b346100f85760203660031901126100f8576004356001600160a01b038116908190036100f8575f526002602052602060405f2054604051908152f35b346100f8575f3660031901126100f8576001546040516001600160a01b039091168152602090f35b346100f85760203660031901126100f8576004355f526004602052606060405f2080549060ff600260018301549201541690604051928352602083015215156040820152f35b346100f8576020610f62610f5c36610f6c565b90611146565b6040519015158152f35b60409060031901126100f8576004359060243590565b805180835260209291819084018484015e5f828201840152601f01601f1916010190565b6060810190811067ffffffffffffffff821117610fc257604052565b634e487b7160e01b5f52604160045260245ffd5b6080810190811067ffffffffffffffff821117610fc257604052565b90601f8019910116810190811067ffffffffffffffff821117610fc257604052565b908160209103126100f857516001600160a01b03811681036100f85790565b81601f820112156100f85780519067ffffffffffffffff8211610fc25760405192611068601f8401601f191660200185610ff2565b828452602083830101116100f857815f9260208093018386015e8301015290565b519060ff821682036100f857565b519061ffff821682036100f857565b60e0818303126100f857805167ffffffffffffffff81116100f857826110cd918301611033565b926110da60208301611089565b92604083015167ffffffffffffffff81116100f857816110fb918501611033565b9261110860608201611097565b9261111560808301611097565b9260a08301519067ffffffffffffffff82116100f85761113c60c091611143938601611033565b9301611089565b90565b81811461130e57805f52600560205260ff60405f2054168015611314575b61130e576001546040516331a9108f60e11b8152600481018390526001600160a01b039091169290602081602481875afa90811561048f575f916112ef575b506040516331a9108f60e11b81526004810183905290602082602481885afa91821561048f575f926112ce575b506001600160a01b0390811691168114801591906112c5575b506112be5760405191630d5aaa5b60e41b835260048301525f82602481865afa91821561048f575f92611299575b505f90602460405180958193630d5aaa5b60e41b835260048301525afa91821561048f575f92611270575b5060ff600591161090811591611261575b5061125d57600190565b5f90565b6005915060ff1610155f611253565b600591925061128a60ff913d805f833e6104af8183610ff2565b95505050505050929150611242565b5f9192506112b0903d8084833e6104af8183610ff2565b955050505050509190611217565b5050505f90565b9050155f6111e9565b6112e891925060203d602011610510576105028183610ff2565b905f6111d0565b611308915060203d602011610510576105028183610ff2565b5f6111a3565b50505f90565b50815f52600560205260ff60405f205416611164565b1561133157565b60405162461bcd60e51b815260206004820152600f60248201526e436f6f6c646f776e2061637469766560881b6044820152606490fd5b1561136f57565b60405162461bcd60e51b815260206004820152601360248201527224b73b30b634b21031b7b6b134b730ba34b7b760691b6044820152606490fd5b156113b157565b60405162461bcd60e51b81526020600482015260096024820152682737ba1037bbb732b960b91b6044820152606490fd5b91908110156113f25760051b0190565b634e487b7160e01b5f52603260045260245ffd5b96919561ffff61145260ff979561146c978961143e9d9e9d60e09c6101008f889a60018060a01b031681528160208201520190610f82565b921660408d01528b820360608d0152610f82565b941660808901521660a087015285820360c0870152610f82565b9416910152565b5f1981146105385760010190565b909160018060a01b03600154169160405190630d5aaa5b60e41b825260048201525f81602481865afa801561048f575f915f905f965f915f94611593575b505f90602460405180998193630d5aaa5b60e41b835260048301525afa91821561048f575f965f935f955f925f9261155b575b5061150160019260ff9261161e565b16019160ff83116105385782946115179161197d565b97889687519a8460608a015198848433611532908383611637565b9c6020015161ffff16926115459561234c565b996040015161ffff16926115589561234c565b93565b909550611501995060ff96506001925061157f91503d805f833e6104af8183610ff2565b949d929a50929890955092935090506114f2565b92509350505f95506115af91503d8087833e6104af8183610ff2565b9299949692955092939092506114bf565b5f546001600160a01b031633036115d357565b63118cdaa760e01b5f523360045260245ffd5b60025f5160206124265f395f51905f52541461160f5760025f5160206124265f395f51905f5255565b633ee5aeb560e01b5f5260045ffd5b9060ff811660ff8316115f14611632575090565b905090565b9091606460ff9182851693838116948086105f1461184c5781955b11156118465780955b6040519160208301935f85526bffffffffffffffffffffffff199060601b1660408401528560f81b9060f81b1660548301528460f81b9060f81b166055820152603681526116aa605682610ff2565b5190200691169060018214808091611839575b611821578080611814575b61180b5780806117fe575b6117eb57806117de575b6117d6576002821480806117c9575b6117b15780806117a4575b61179b578061178e575b61177c576003821490818061176f575b61175757508061174a575b6117435760041480611736575b6117305790565b50600490565b50600460ff821614611729565b5050600490565b50600460ff83161461171c565b91505060149150105f1461176a57600390565b600490565b50600360ff851614611711565b905060469150105f1461176a57600390565b50600460ff841614611701565b50505050600390565b50600360ff8516146116f7565b50905060289150105f146117c457600290565b600390565b50600260ff8516146116ec565b505050600390565b50600460ff8416146116dd565b50905060469150105f146117c457600290565b50600360ff8516146116d3565b50505050600290565b50600260ff8516146116c8565b50905060329150105f1461183457600190565b600290565b50600160ff8516146116bd565b8561165b565b8695611652565b9260ff80851693909260649290808516808710156118c65787965b11156118bf57865b604080516020810195865260609490941b6bffffffffffffffffffffffff191690840152851660f890811b6054840152908516901b6055820152603681526116aa605682610ff2565b8096611876565b819661186e565b604051906118dc604083610ff2565b60048252634669726560e01b6020830152565b604051906118fe604083610ff2565b60058252642bb0ba32b960d91b6020830152565b60405190611921604083610ff2565b600582526408ac2e4e8d60db1b6020830152565b60405190611944604083610ff2565b600382526220b4b960e91b6020830152565b60405190611965604083610ff2565b60098252684c696768746e696e6760b81b6020830152565b60405161198981610fd6565b606081525f60208201525f60408201526060808201525060405160208101906119cc602082855180838801875e81015f838201520301601f198101835282610ff2565b51902060405160208101906119fb602082875180838a01875e81015f838201520301601f198101835282610ff2565b519020111561233157905b611a17611a116118cd565b836123c2565b80612320575b6122cc57611a2c611a116118cd565b806122bb575b61222d57611a41611a11611912565b8061221c575b61218e57611a56611a11611935565b8061217d575b61211857611a6b611a116118ef565b80612107575b6120b557611a80611a11611912565b806120a4575b61202957611a95611a11611935565b80612018575b611f9257611aaa611a11611912565b80611f81575b611f2d57611abf611a11611935565b80611f1c575b611ea257611ad4611a11611935565b80611e91575b611e4157611ae9611a116118cd565b80611e30575b611db557611afe611a11611956565b80611da4575b611d2957611b13611a11611912565b80611d18575b611c8d57611b28611a11611935565b80611c76575b611bfa57611b3d611a11611956565b9081611be1575b50611b915760405190611b5682610fd6565b81525f60208201525f6040820152604051611b72604082610ff2565b600a815269135a5cdb585d18da195960b21b6020820152606082015290565b50604051611b9e81610fd6565b611ba6611956565b81526004602082015260026040820152604051611bc4604082610ff2565b600881526713dd995c9b1bd85960c21b6020820152606082015290565b611bf49150611bee611956565b906123c2565b5f611b44565b5050604051611c0881610fd6565b60408051611c168282610ff2565b60078152662a343ab73232b960c91b60208201528252600660208301525f81830152611c4481519182610ff2565b601881527f536f6e69633a2043616e6e6f7420626520626c6f636b656400000000000000006020820152606082015290565b50611c88611c82611956565b826123c2565b611b2e565b5050604051611c9b81610fd6565b60408051611ca98282610ff2565b60098152684d61676e657469736d60b81b602082015282526002602083015260028183015262796f7560e81b815191611ce3606084610ff2565b602383527f436f6e74726f6c3a2050756c6c206f70706f6e656e7420636172647320746f206020840152820152606082015290565b50611d24611c82611956565b611b19565b5050604051611d3781610fd6565b60408051611d458282610ff2565b600581526453746f726d60d81b6020820152825260036020830152600381830152611d7281519182610ff2565b601f81527f4368616f733a2052616e646f6d20656666656374732065616368207475726e006020820152606082015290565b50611db0611c826118ef565b611b04565b5050604051611dc381610fd6565b60408051611dd18282610ff2565b6006815265506c61736d6160d01b60208201528252600560208301525f81830152611dfe81519182610ff2565b601d81527f556e737461626c653a2052616e646f6d2064616d6167652031352d32350000006020820152606082015290565b50611e3c611c82611956565b611aef565b5050604051611e4f81610fd6565b611e57611935565b81526002602082015260026040820152604051611e75604082610ff2565b6007815266546f726e61646f60c81b6020820152606082015290565b50611e9d611c82611935565b611ada565b5050604051611eb081610fd6565b60408051611ebe8282610ff2565b6004815263111d5cdd60e21b6020820152825260016020830152600181830152611eea81519182610ff2565b601c81527f426c696e643a2033302520656e656d79206d697373206368616e6365000000006020820152606082015290565b50611f28611c82611912565b611ac5565b5050604051611f3b81610fd6565b611f43611912565b81525f602082015260046040820152604051611f60604082610ff2565b600c81526b2234b0b6b7b7321029b5b4b760a11b6020820152606082015290565b50611f8d611c82611912565b611ab0565b5050604051611fa081610fd6565b60408051611fae8282610ff2565b600381526249636560e81b6020820152825260016020830152600181830152632035302560e01b815191611fe3606084610ff2565b602483527f467265657a653a20526564756365206f70706f6e656e742073706565642062796020840152820152606082015290565b50612024611c826118ef565b611a9b565b505060405161203781610fd6565b604080516120458282610ff2565b60068152654e617475726560d01b602082015282525f602083015260028183015261207281519182610ff2565b601e81527f526567656e65726174653a204865616c203120485020706572207475726e00006020820152606082015290565b506120b0611c826118ef565b611a86565b50506040516120c381610fd6565b6120cb6118ef565b81525f6020820152600360408201526040516120e8604082610ff2565b600a815269546964616c205761766560b01b6020820152606082015290565b50612113611c826118ef565b611a71565b505060405161212681610fd6565b61212e611956565b8152600460208201525f604082015260405161214b604082610ff2565b601981527f53686f636b3a20333025206368616e636520746f207374756e000000000000006020820152606082015290565b50612189611c826118cd565b611a5c565b505060405161219c81610fd6565b604080516121aa8282610ff2565b60048152634c61766160e01b60208201528252600260208301526001818301526a33b2903832b9103a3ab93760a91b8151916121e7606084610ff2565b602b83527f4d6f6c74656e3a204275726e206f70706f6e656e7420666f7220322064616d616020840152820152606082015290565b50612228611c826118cd565b611a47565b505060405161223b81610fd6565b604080516122498282610ff2565b6005815264537465616d60d81b6020820152825260016020830152600181830152696163792062792032302560b01b815191612286606084610ff2565b602a83527f4f6273637572653a20526564756365206f70706f6e656e7427732061636375726020840152820152606082015290565b506122c7611c826118ef565b611a32565b50506040516122da81610fd6565b6122e26118cd565b8152600360208201525f60408201526040516122ff604082610ff2565b600c81526b446f75626c6520466c616d6560a01b6020820152606082015290565b5061232c611c826118cd565b611a1d565b611a06565b9061ffff8091169116019061ffff821161053857565b60ff617fff61236d6123799461236761237e98859a9861161e565b94612336565b60011c16911690612336565b612336565b911680612396575b5061ffff81166111435750600190565b908161ffff8216115f146123b95761ffff160361ffff8111610538575b5f612386565b505060016123b3565b6040516123ee6020828180820195805191829101875e81015f838201520301601f198101835282610ff2565b5190209060405161241e6020828180820195805191829101875e81015f838201520301601f198101835282610ff2565b519020149056fe9b779b17422d0df92223018b32b4d1fa46e071723d6817e2486d003becc55f00a264697066735822122096ba0c8109eedf4f3bdb691685984923839fc718c798eefc1cb30bc02c2cc01764736f6c634300081c0033",
  "linkReferences": {},
  "deployedLinkReferences": {}
}