{
  "_format": "hh-sol-artifact-1",
  "contractName": "CardNFT",
  "sourceName": "contracts/CardNFT.sol",
  "abi": [
    {
      "inputs": [],
      "stateMutability": "nonpayable",
      "type": "constructor"
    },
    {
      "inputs": [
        {
          "internalType": "address",
          "name": "sender",
          "type": "address"
        },
        {
          "internalType": "uint256",
          "name": "tokenId",
          "type": "uint256"
        },
        {
          "internalType": "address",
          "name": "owner",
          "type": "address"
        }
      ],
      "name": "ERC721IncorrectOwner",
      "type": "error"
    },
    {
      "inputs": [
        {
          "internalType": "address",
          "name": "operator",
          "type": "address"
        },
        {
          "internalType": "uint256",
          "name": "tokenId",
          "type": "uint256"
        }
      ],
      "name": "ERC721InsufficientApproval",
      "type": "error"
    },
    {
      "inputs": [
        {
          "internalType": "address",
          "name": "approver",
          "type": "address"
        }
      ],
      "name": "ERC721InvalidApprover",
      "type": "error"
    },
    {
      "inputs": [
        {
          "internalType": "address",
          "name": "operator",
          "type": "address"
        }
      ],
      "name": "ERC721InvalidOperator",
      "type": "error"
    },
    {
      "inputs": [
        {
          "internalType": "address",
          "name": "owner",
          "type": "address"
        }
      ],
      "name": "ERC721InvalidOwner",
      "type": "error"
    },
    {
      "inputs": [
        {
          "internalType": "address",
          "name": "receiver",
          "type": "address"
        }
      ],
      "name": "ERC721InvalidReceiver",
      "type": "error"
    },
    {
      "inputs": [
        {
          "internalType": "address",
          "name": "sender",
          "type": "address"
        }
      ],
      "name": "ERC721InvalidSender",
      "type": "error"
    },
    {
      "inputs": [
        {
          "internalType": "uint256",
          "name": "tokenId",
          "type": "uint256"
        }
      ],
      "name": "ERC721NonexistentToken",
      "type": "error"
    },
    {
      "inputs": [
        {
          "internalType": "address",
          "name": "owner",
          "type": "address"
        }
      ],
      "name": "OwnableInvalidOwner",
      "type": "error"
    },
    {
      "inputs": [
        {
          "internalType": "address",
          "name": "account",
          "type": "address"
        }
      ],
      "name": "OwnableUnauthorizedAccount",
      "type": "error"
    },
    {
      "anonymous": false,
      "inputs": [
        {
          "indexed": true,
          "internalType": "address",
          "name": "owner",
          "type": "address"
        },
        {
          "indexed": true,
          "internalType": "address",
          "name": "approved",
          "type": "address"
        },
        {
          "indexed": true,
          "internalType": "uint256",
          "name": "tokenId",
          "type": "uint256"
        }
      ],
      "name": "Approval",
      "type": "event"
    },
    {
      "anonymous": false,
      "inputs": [
        {
          "indexed": true,
          "internalType": "address",
          "name": "owner",
          "type": "address"
        },
        {
          "indexed": true,
          "internalType": "address",
          "name": "operator",
          "type": "address"
        },
        {
          "indexed": false,
          "internalType": "bool",
          "name": "approved",
          "type": "bool"
        }
      ],
      "name": "ApprovalForAll",
      "type": "event"
    },
    {
      "anonymous": false,
      "inputs": [
        {
          "indexed": true,
          "internalType": "uint256",
          "name": "tokenId",
          "type": "uint256"
        }
      ],
      "name": "CardBurned",
      "type": "event"
    },
    {
      "anonymous": false,
      "inputs": [
        {
          "indexed": true,
          "internalType": "uint256",
          "name": "tokenId",
          "type": "uint256"
        },
        {
          "indexed": true,
          "internalType": "address",
          "name": "owner",
          "type": "address"
        },
        {
          "indexed": false,
          "internalType": "string",
          "name": "name",
          "type": "string"
        },
        {
          "indexed": false,
          "internalType": "uint8",
          "name": "rarity",
          "type": "uint8"
        },
        {
          "indexed": false,
          "internalType": "string",
          "name": "element",
          "type": "string"
        }
      ],
      "name": "CardMinted",
      "type": "event"
    },
    {
      "anonymous": false,
      "inputs": [
        {
          "indexed": true,
          "internalType": "address",
          "name": "previousOwner",
          "type": "address"
        },
        {
          "indexed": true,
          "internalType": "address",
          "name": "newOwner",
          "type": "address"
        }
      ],
      "name": "OwnershipTransferred",
      "type": "event"
    },
    {
      "anonymous": false,
      "inputs": [
        {
          "indexed": true,
          "internalType": "uint8",
          "name": "rarity",
          "type": "uint8"
        },
        {
          "indexed": false,
          "internalType": "uint256",
          "name": "newSupply",
          "type": "uint256"
        }
      ],
      "name": "SupplyUpdated",
      "type": "event"
    },
    {
      "anonymous": false,
      "inputs": [
        {
          "indexed": true,
          "internalType": "address",
          "name": "from",
          "type": "address"
        },
        {
          "indexed": true,
          "internalType": "address",
          "name": "to",
          "type": "address"
        },
        {
          "indexed": true,
          "internalType": "uint256",
          "name": "tokenId",
          "type": "uint256"
        }
      ],
      "name": "Transfer",
      "type": "event"
    },
    {
      "inputs": [
        {
          "internalType": "address",
          "name": "to",
          "type": "address"
        },
        {
          "internalType": "uint256",
          "name": "tokenId",
          "type": "uint256"
        }
      ],
      "name": "approve",
      "outputs": [],
      "stateMutability": "nonpayable",
      "type": "function"
    },
    {
      "inputs": [
        {
          "internalType": "address",
          "name": "owner",
          "type": "address"
        }
      ],
      "name": "balanceOf",
      "outputs": [
        {
          "internalType": "uint256",
          "name": "",
          "type": "uint256"
        }
      ],
      "stateMutability": "view",
      "type": "function"
    },
    {
      "inputs": [
        {
          "internalType": "uint256",
          "name": "tokenId",
          "type": "uint256"
        }
      ],
      "name": "burn",
      "outputs": [],
      "stateMutability": "nonpayable",
      "type": "function"
    },
    {
      "inputs": [
        {
          "internalType": "uint256",
          "name": "tokenId",
          "type": "uint256"
        }
      ],
      "name": "getApproved",
      "outputs": [
        {
          "internalType": "address",
          "name": "",
          "type": "address"
        }
      ],
      "stateMutability": "view",
      "type": "function"
    },
    {
      "inputs": [],
      "name": "getBaseImageURI",
      "outputs": [
        {
          "internalType": "string",
          "name": "",
          "type": "string"
        }
      ],
      "stateMutability": "view",
      "type": "function"
    },
    {
      "inputs": [
        {
          "internalType": "uint256",
          "name": "tokenId",
          "type": "uint256"
        }
      ],
      "name": "getCardAttributes",
      "outputs": [
        {
          "internalType": "string",
          "name": "name",
          "type": "string"
        },
        {
          "internalType": "uint8",
          "name": "rarity",
          "type": "uint8"
        },
        {
          "internalType": "string",
          "name": "element",
          "type": "string"
        },
        {
          "internalType": "uint16",
          "name": "attack",
          "type": "uint16"
        },
        {
          "internalType": "uint16",
          "name": "defense",
          "type": "uint16"
        },
        {
          "internalType": "string",
          "name": "ability",
          "type": "string"
        },
        {
          "internalType": "uint8",
          "name": "generation",
          "type": "uint8"
        }
      ],
      "stateMutability": "view",
      "type": "function"
    },
    {
      "inputs": [
        {
          "internalType": "string",
          "name": "element",
          "type": "string"
        }
      ],
      "name": "getTotalSupplyByElement",
      "outputs": [
        {
          "internalType": "uint256",
          "name": "",
          "type": "uint256"
        }
      ],
      "stateMutability": "view",
      "type": "function"
    },
    {
      "inputs": [
        {
          "internalType": "uint8",
          "name": "rarity",
          "type": "uint8"
        }
      ],
      "name": "getTotalSupplyByRarity",
      "outputs": [
        {
          "internalType": "uint256",
          "name": "",
          "type": "uint256"
        }
      ],
      "stateMutability": "view",
      "type": "function"
    },
    {
      "inputs": [
        {
          "internalType": "address",
          "name": "owner",
          "type": "address"
        },
        {
          "internalType": "address",
          "name": "operator",
          "type": "address"
        }
      ],
      "name": "isApprovedForAll",
      "outputs": [
        {
          "internalType": "bool",
          "name": "",
          "type": "bool"
        }
      ],
      "stateMutability": "view",
      "type": "function"
    },
    {
      "inputs": [
        {
          "internalType": "uint256",
          "name": "",
          "type": "uint256"
        }
      ],
      "name": "isLocked",
      "outputs": [
        {
          "internalType": "bool",
          "name": "",
          "type": "bool"
        }
      ],
      "stateMutability": "view",
      "type": "function"
    },
    {
      "inputs": [
        {
          "internalType": "address",
          "name": "",
          "type": "address"
        }
      ],
      "name": "isManager",
      "outputs": [
        {
          "internalType": "bool",
          "name": "",
          "type": "bool"
        }
      ],
      "stateMutability": "view",
      "type": "function"
    },
    {
      "inputs": [
        {
          "internalType": "uint256",
          "name": "tokenId",
          "type": "uint256"
        }
      ],
      "name": "lockCard",
      "outputs": [],
      "stateMutability": "nonpayable",
      "type": "function"
    },
    {
      "inputs": [
        {
          "internalType": "address",
          "name": "to",
          "type": "address"
        },
        {
          "internalType": "string",
          "name": "name",
          "type": "string"
        },
        {
          "internalType": "uint8",
          "name": "rarity",
          "type": "uint8"
        },
        {
          "internalType": "string",
          "name": "element",
          "type": "string"
        },
        {
          "internalType": "uint16",
          "name": "attack",
          "type": "uint16"
        },
        {
          "internalType": "uint16",
          "name": "defense",
          "type": "uint16"
        },
        {
          "internalType": "string",
          "name": "ability",
          "type": "string"
        }
      ],
      "name": "mintCard",
      "outputs": [
        {
          "internalType": "uint256",
          "name": "",
          "type": "uint256"
        }
      ],
      "stateMutability": "nonpayable",
      "type": "function"
    },
    {
      "inputs": [
        {
          "internalType": "address",
          "name": "to",
          "type": "address"
        },
        {
          "internalType": "string",
          "name": "name",
          "type": "string"
        },
        {
          "internalType": "uint8",
          "name": "rarity",
          "type": "uint8"
        },
        {
          "internalType": "string",
          "name": "element",
          "type": "string"
        },
        {
          "internalType": "uint16",
          "name": "attack",
          "type": "uint16"
        },
        {
          "internalType": "uint16",
          "name": "defense",
          "type": "uint16"
        },
        {
          "internalType": "string",
          "name": "ability",
          "type": "string"
        },
        {
          "internalType": "uint8",
          "name": "generation",
          "type": "uint8"
        }
      ],
      "name": "mintCardWithGen",
      "outputs": [
        {
          "internalType": "uint256",
          "name": "",
          "type": "uint256"
        }
      ],
      "stateMutability": "nonpayable",
      "type": "function"
    },
    {
      "inputs": [
        {
          "internalType": "address",
          "name": "to",
          "type": "address"
        },
        {
          "internalType": "string",
          "name": "name",
          "type": "string"
        },
        {
          "internalType": "uint8",
          "name": "rarity",
          "type": "uint8"
        },
        {
          "internalType": "string",
          "name": "element",
          "type": "string"
        },
        {
          "internalType": "uint16",
          "name": "attack",
          "type": "uint16"
        },
        {
          "internalType": "uint16",
          "name": "defense",
          "type": "uint16"
        },
        {
          "internalType": "string",
          "name": "ability",
          "type": "string"
        },
        {
          "internalType": "uint8",
          "name": "generation",
          "type": "uint8"
        },
        {
          "internalType": "uint256",
          "name": "parentId1",
          "type": "uint256"
        },
        {
          "internalType": "uint256",
          "name": "parentId2",
          "type": "uint256"
        }
      ],
      "name": "mintCardWithGenAndParents",
      "outputs": [
        {
          "internalType": "uint256",
          "name": "",
          "type": "uint256"
        }
      ],
      "stateMutability": "nonpayable",
      "type": "function"
    },
    {
      "inputs": [
        {
          "internalType": "address",
          "name": "to",
          "type": "address"
        },
        {
          "internalType": "string",
          "name": "name",
          "type": "string"
        },
        {
          "internalType": "uint8",
          "name": "rarity",
          "type": "uint8"
        },
        {
          "internalType": "string",
          "name": "element",
          "type": "string"
        },
        {
          "internalType": "uint16",
          "name": "attack",
          "type": "uint16"
        },
        {
          "internalType": "uint16",
          "name": "defense",
          "type": "uint16"
        },
        {
          "internalType": "string",
          "name": "ability",
          "type": "string"
        }
      ],
      "name": "mintSeasonalPromo",
      "outputs": [
        {
          "internalType": "uint256",
          "name": "",
          "type": "uint256"
        }
      ],
      "stateMutability": "nonpayable",
      "type": "function"
    },
    {
      "inputs": [],
      "name": "name",
      "outputs": [
        {
          "internalType": "string",
          "name": "",
          "type": "string"
        }
      ],
      "stateMutability": "view",
      "type": "function"
    },
    {
      "inputs": [],
      "name": "owner",
      "outputs": [
        {
          "internalType": "address",
          "name": "",
          "type": "address"
        }
      ],
      "stateMutability": "view",
      "type": "function"
    },
    {
      "inputs": [
        {
          "internalType": "uint256",
          "name": "tokenId",
          "type": "uint256"
        }
      ],
      "name": "ownerOf",
      "outputs": [
        {
          "internalType": "address",
          "name": "",
          "type": "address"
        }
      ],
      "stateMutability": "view",
      "type": "function"
    },
    {
      "inputs": [
        {
          "internalType": "uint256",
          "name": "tokenId",
          "type": "uint256"
        }
      ],
      "name": "refreshCard",
      "outputs": [],
      "stateMutability": "nonpayable",
      "type": "function"
    },
    {
      "inputs": [],
      "name": "renounceOwnership",
      "outputs": [],
      "stateMutability": "nonpayable",
      "type": "function"
    },
    {
      "inputs": [
        {
          "internalType": "address",
          "name": "from",
          "type": "address"
        },
        {
          "internalType": "address",
          "name": "to",
          "type": "address"
        },
        {
          "internalType": "uint256",
          "name": "tokenId",
          "type": "uint256"
        }
      ],
      "name": "safeTransferFrom",
      "outputs": [],
      "stateMutability": "nonpayable",
      "type": "function"
    },
    {
      "inputs": [
        {
          "internalType": "address",
          "name": "from",
          "type": "address"
        },
        {
          "internalType": "address",
          "name": "to",
          "type": "address"
        },
        {
          "internalType": "uint256",
          "name": "tokenId",
          "type": "uint256"
        },
        {
          "internalType": "bytes",
          "name": "data",
          "type": "bytes"
        }
      ],
      "name": "safeTransferFrom",
      "outputs": [],
      "stateMutability": "nonpayable",
      "type": "function"
    },
    {
      "inputs": [
        {
          "internalType": "address",
          "name": "operator",
          "type": "address"
        },
        {
          "internalType": "bool",
          "name": "approved",
          "type": "bool"
        }
      ],
      "name": "setApprovalForAll",
      "outputs": [],
      "stateMutability": "nonpayable",
      "type": "function"
    },
    {
      "inputs": [
        {
          "internalType": "string",
          "name": "baseImageURI",
          "type": "string"
        }
      ],
      "name": "setBaseImageURI",
      "outputs": [],
      "stateMutability": "nonpayable",
      "type": "function"
    },
    {
      "inputs": [
        {
          "internalType": "address",
          "name": "manager",
          "type": "address"
        },
        {
          "internalType": "bool",
          "name": "status",
          "type": "bool"
        }
      ],
      "name": "setManager",
      "outputs": [],
      "stateMutability": "nonpayable",
      "type": "function"
    },
    {
      "inputs": [
        {
          "internalType": "bytes4",
          "name": "interfaceId",
          "type": "bytes4"
        }
      ],
      "name": "supportsInterface",
      "outputs": [
        {
          "internalType": "bool",
          "name": "",
          "type": "bool"
        }
      ],
      "stateMutability": "view",
      "type": "function"
    },
    {
      "inputs": [],
      "name": "symbol",
      "outputs": [
        {
          "internalType": "string",
          "name": "",
          "type": "string"
        }
      ],
      "stateMutability": "view",
      "type": "function"
    },
    {
      "inputs": [
        {
          "internalType": "uint256",
          "name": "tokenId",
          "type": "uint256"
        }
      ],
      "name": "tokenURI",
      "outputs": [
        {
          "internalType": "string",
          "name": "",
          "type": "string"
        }
      ],
      "stateMutability": "view",
      "type": "function"
    },
    {
      "inputs": [],
      "name": "totalMinted",
      "outputs": [
        {
          "internalType": "uint256",
          "name": "",
          "type": "uint256"
        }
      ],
      "stateMutability": "view",
      "type": "function"
    },
    {
      "inputs": [
        {
          "internalType": "address",
          "name": "from",
          "type": "address"
        },
        {
          "internalType": "address",
          "name": "to",
          "type": "address"
        },
        {
          "internalType": "uint256",
          "name": "tokenId",
          "type": "uint256"
        }
      ],
      "name": "transferFrom",
      "outputs": [],
      "stateMutability": "nonpayable",
      "type": "function"
    },
    {
      "inputs": [
        {
          "internalType": "address",
          "name": "newOwner",
          "type": "address"
        }
      ],
      "name": "transferOwnership",
      "outputs": [],
      "stateMutability": "nonpayable",
      "type": "function"
    },
    {
      "inputs": [
        {
          "internalType": "uint256",
          "name": "tokenId",
          "type": "uint256"
        }
      ],
      "name": "unlockCard",
      "outputs": [],
      "stateMutability": "nonpayable",
      "type": "function"
    }
  ],
  "bytecode": "0x60806040523461036b57604080519081016001600160401b03811182821017610281576040908152600a82526911d85b59519a50d85c9960b21b602083015280519081016001600160401b0381118282101761028157604052600381526247464360e81b602082015281516001600160401b038111610281575f54600181811c91168015610361575b602082101461026357601f81116102ff575b50602092601f82116001146102a057928192935f92610295575b50508160011b915f199060031b1c1916175f555b80516001600160401b03811161028157600154600181811c91168015610277575b602082101461026357601f8111610200575b50602091601f82116001146101a0579181925f92610195575b50508160011b915f199060031b1c1916176001555b33156101825760068054336001600160a01b03198216811790925560405191906001600160a01b03167f8be0079c531659141344cd1fd0a4f28419497f9722a3daafe3b4186f6b6457e05f80a3613bba90816103708239f35b631e4fbdf760e01b5f525f60045260245ffd5b015190505f80610114565b601f1982169260015f52805f20915f5b8581106101e8575083600195106101d0575b505050811b01600155610129565b01515f1960f88460031b161c191690555f80806101c2565b919260206001819286850151815501940192016101b0565b60015f527fb10e2d527612073b26eecdfd717e6a320cf44b4afac2b0732d9fcbe2b7fa0cf6601f830160051c81019160208410610259575b601f0160051c01905b81811061024e57506100fb565b5f8155600101610241565b9091508190610238565b634e487b7160e01b5f52602260045260245ffd5b90607f16906100e9565b634e487b7160e01b5f52604160045260245ffd5b015190505f806100b4565b601f198216935f8052805f20915f5b8681106102e757508360019596106102cf575b505050811b015f556100c8565b01515f1960f88460031b161c191690555f80806102c2565b919260206001819286850151815501940192016102af565b5f80527f290decd9548b62a8d60345a988386fc84ba6bc95484008f6362f93160ef3e563601f830160051c81019160208410610357575b601f0160051c01905b81811061034c575061009a565b5f815560010161033f565b9091508190610336565b90607f1690610088565b5f80fdfe6080806040526004361015610012575f80fd5b5f3560e01c90816301ffc9a714612e175750806306fdde0314612d75578063081812fc14612d39578063095ea7b314612c4f5780631f8cbe5c14612bbd57806323b872dd14612ba65780633d7aa0771461272757806342842e0e146126f857806342966c6814612416578063578d9f8e14611fc45780636352211e14611f9457806370a0823114611f43578063715018a614611ee8578063728af1d7146119d75780638647ca761461187757806388f7c16c146118135780638da5cb5b146117eb57806395d89b411461170d578063a22cb46514611667578063a2309ff81461164a578063a5e90eee1461160c578063a9e32274146115d7578063ab71aa4314611582578063b88d4fde14611515578063c646946c146114b4578063c87b56dd14610bfa578063d5aaa5b014610a31578063e0f043b0146109b2578063e1547e0f146102d4578063e985e9c51461027d578063f2fde38b146101f7578063f3ae2415146101ba5763f6aacfb114610187575f80fd5b346101b65760203660031901126101b6576004355f52600b602052602060ff60405f2054166040519015158152f35b5f80fd5b346101b65760203660031901126101b6576001600160a01b036101db612ea6565b165f52600c602052602060ff60405f2054166040519015158152f35b346101b65760203660031901126101b657610210612ea6565b610218613588565b6001600160a01b0316801561026a57600680546001600160a01b0319811683179091556001600160a01b03167f8be0079c531659141344cd1fd0a4f28419497f9722a3daafe3b4186f6b6457e05f80a3005b631e4fbdf760e01b5f525f60045260245ffd5b346101b65760403660031901126101b657610296612ea6565b61029e612ebc565b9060018060a01b03165f52600560205260405f209060018060a01b03165f52602052602060ff60405f2054166040519015158152f35b346101b6576101003660031901126101b6576102ee612ea6565b6024356001600160401b0381116101b65761030d903690600401612f9a565b90610316612fb8565b6064356001600160401b0381116101b657610335903690600401612f9a565b61033d612fd8565b92610346612fe9565b9460c4356001600160401b0381116101b657610366903690600401612f9a565b9161036f612fc8565b9560018060a01b03600654163314801561099a575b61038d9061334a565b600160ff871610158061098c575b156109565761ffff169586151580610949575b15610914576103be60075461357a565b96876007556020986040516103d38b82612f28565b5f81526001600160a01b03851615610901576001600160a01b036103f78b876134a2565b166108ee57610408908a86336135af565b6040519561041587612f0c565b85875260ff8b880194818b16865260408901928a845260608a0195865261ffff60808b019516855260a08a01521660c08801524360e08801525f6101008801525f610120880152895f5260088b5260405f209387518051906001600160401b03821161079c578d9061048788546130d1565b601f81116108c0575b5081601f8411600114610858575091806104c39260ff95945f926106c9575b50508160011b915f199060031b1c19161790565b86555b511660ff60018601911660ff198254161790555180516001600160401b03811161079c576104f760028601546130d1565b8c601f8211610826575b50508b8c601f83116001146107bb57508190610531935f926107b05750508160011b915f199060031b1c19161790565b60028401555b61ffff6003840192511663ffff00008354925160101b169163ffffffff19161717905560a08401519384516001600160401b03811161079c57889561057f60048501546130d1565b8b601f821161075f575b50508a90601f83116001146106d457610120610681946105d68561066099965f516020613b455f395f51905f529b99966008965f926106c95750508160011b915f199060031b1c19161790565b60048501555b60ff60c08201511660ff60058601911660ff1982541617905560e081015160068501556101008101516007850155015191015560ff88165f5260098a5260405f20610627815461357a565b90556040518a81895180838c01835e8101600a81520301902061064a815461357a565b9055604051938493606085526060850190612e82565b60ff8916848c015283810360408501526001600160a01b0390911696612e82565b0390a360ff81165f52600983527ff34a5a92a6a55542fbe5787aadd7c498e790b53740631c282e654cc428770d478360ff60405f2054936040519485521692a2604051908152f35b015190505f806104af565b90600485015f528b5f20915f5b8d601f1986168210610746575050610681946001855f516020613b455f395f51905f529a9895600895610120956106609c99601f1981161061072e575b505050811b0160048501556105dc565b01515f1960f88460031b161c191690555f808061071e565b8383015185558d9a5060019094019392830192016106e1565b61078b91600487015f52815f2090601f860160051c8201928610610792575b601f0160051c01906133a7565b8b8b610589565b909150819061077e565b634e487b7160e01b5f52604160045260245ffd5b015190508d806104af565b9192601f198416600288015f52835f20935f905b82821061080e5750509084600195949392106107f6575b505050811b016002840155610537565b01515f1960f88460031b161c191690558c80806107e6565b806001869782949787015181550196019401906107cf565b61085191600288015f52815f2090601f850160051c820192851061079257601f0160051c01906133a7565b8c8c610501565b9190601f198416895f52835f20935f905b8282106108a857505091600193918560ff97969410610890575b505050811b0186556104c6565b01515f1960f88460031b161c191690558f8080610883565b80600186978294978701518155019601940190610869565b6108e890895f52835f20601f860160051c81019185871061079257601f0160051c01906133a7565b8f610490565b6339e3563760e11b5f525f60045260245ffd5b633250574960e11b5f525f60045260245ffd5b60405162461bcd60e51b815260206004820152600d60248201526c496e76616c696420737461747360981b6044820152606490fd5b5061ffff881615156103ae565b60405162461bcd60e51b815260206004820152600e60248201526d496e76616c69642072617269747960901b6044820152606490fd5b50600460ff8716111561039b565b50335f908152600c602052604090205460ff16610384565b346101b65760203660031901126101b65760043560018060a01b036006541633148015610a19575b6109e39061334a565b5f81815260026020526040902054610a05906001600160a01b0316151561340b565b5f52600860205243600660405f2001555f80f35b50335f908152600c602052604090205460ff166109da565b346101b65760203660031901126101b6576004355f81815260026020526040902054610a67906001600160a01b0316151561340b565b5f526008602052610b9d60405f20604051610a8181612f0c565b610a8a82613109565b8152610bca60ff6001840154169260208301938452610aab60028201613109565b9260408101938452600382015491606082019161ffff8416835261ffff608082019460101c168452610adf60048301613109565b9560a0820196875261ffff806103e8610b2860ff6005880154169660c0870197885260086006820154918260e08a015260078101546101008a015201546101208801524361344b565b0416945116848082115f14610bf057610b4091613458565b935b61ffff851615610be7575b61ffff809495965116908082115f14610bdd57610b6991613458565b915b83831615610bd4575b839160ff80610bb093519b511691519951965116986040519b8c9b60e08d5260e08d0190612e82565b9160208c01528a820360408c0152612e82565b9416606088015216608086015284820360a0860152612e82565b9060c08301520390f35b60019250610b74565b5050600191610b6b565b60019450610b4d565b5050600193610b42565b346101b65760203660031901126101b6576004355f81815260026020526040902054610c30906001600160a01b0316151561340b565b805f52600860205260405f209060405191610c4a83612f0c565b610c5381613109565b835260ff6001820154169260208101938452610c7160028301613109565b60408201908152600383015491606081019161ffff8416835261ffff608083019460101c168452610ca460048601613109565b9260a0830193845260ff6005870154169460c084019586526006870154988960e086015261ffff806103e8610cf3600860078d01549c6101008b019d8e5201549d6101208a019e8f524361344b565b0416935116838082115f146114aa57610d0b91613458565b925b61ffff84935116908082115f146114a157610d2791613458565b61ffff81941615611498575b61ffff161561148f575b845195604051958660208101985f600d54610d57816130d1565b90600181169081156114775750600114611434575b5081516020819301825e01632e706e6760e01b815203601b1981018852600401610d969088612f28565b5199610da1906137c9565b9a825160ff16610db090613936565b9886519461ffff1690610dc2826137c9565b9661ffff1693610dd1856137c9565b9851955160ff16610de190613936565b92610deb906137c9565b94610df5906137c9565b915160ff16610e03906137c9565b9051916040519586946020860198605b60f81b8a52602187017f7b2274726169745f74797065223a22456c656d656e74222c2276616c7565223a9052601160f91b604188015280516020819201604289015e860162089f4b60ea1b6042820152604581017f7b2274726169745f74797065223a22526172697479222c2276616c7565223a22905281516020819301606583015e0160420162089f4b60ea1b6023820152602681017f7b2274726169745f74797065223a2241747461636b222c22646973706c61795f9052604681017f74797065223a226e756d626572222c2276616c7565223a000000000000000000905281516020819301605d83015e01602301603a8101611f4b60f21b9052603c81017f7b2274726169745f74797065223a22446566656e7365222c22646973706c61799052605c81017f5f74797065223a226e756d626572222c2276616c7565223a0000000000000000905281516020819301607483015e01603a01603a8101611f4b60f21b9052603c81017f7b2274726169745f74797065223a2247656e65726174696f6e222c22646973709052605c81017f6c61795f74797065223a226e756d626572222c2276616c7565223a0000000000905281516020819301607783015e01603a01603d8101611f4b60f21b9052603f81017f7b2274726169745f74797065223a225370656369616c204162696c697479222c905268113b30b63ab2911d1160b91b605f82015281516020819301606883015e01603d0161227d60f01b602b82015203602b01601d19810183526002016110509083612f28565b819980518015158061142a575b61125c575b505050505060405195866020810198805160208192018b5e810160208101605d60f81b905203602001601e198101885260010161109f9088612f28565b604051998a99683d913730b6b2911d1160b91b60208c01528051602081920160298d015e8a016029810161202360f01b905281516020819301602b83015e016029017201116113232b9b1b934b83a34b7b7111d11209606d1b600282015281516020819301601583015e0160020160138101600160fd1b905281516020819301601483015e01601301600181017201032b632b6b2b73a1031b0b932103bb4ba341606d1b905281516020819301601483015e01600101601381016601020aa259017960cd1b905281516020819301601a83015e01601301906e102222a311161134b6b0b3b2911d1160891b6007830152518092601683015e01600701906e11161130ba3a3934b13aba32b9911d60891b600f830152518092601e83015e01600f01600f8101607d60f81b905203600f01601e19810182526001016111e39082612f28565b6111ec90613a0f565b6040518091602082017f646174613a6170706c69636174696f6e2f6a736f6e3b6261736536342c000000905280516020819201603d84015e8101603d81015f905203603d01601f19810182526112429082612f28565b6040518091602082526020820161125891612e82565b0390f35b90919293949a505f52600860205261127660405f20613109565b9180515f52600860205261128c60405f20613109565b91835115611411575b8251156113c4575b516112a7906137c9565b90516112b2906137c9565b92604051958695518091602088015e8501602081017f2c7b2274726169745f74797065223a22506172656e7420436172642031222c229052673b30b63ab2911d1160c11b604082015281516020819301604883015e016020016028810161202360f01b905281516020819301602a83015e0160280161227d60f01b6002820152600481017f2c7b2274726169745f74797065223a22506172656e7420436172642032222c229052673b30b63ab2911d1160c11b602482015281516020819301602c83015e01600201602a810161202360f01b905281516020819301602c83015e01602a0161227d60f01b600282015203600201601d19810182526002016113b99082612f28565b958980808080611062565b9150602061140b60266113d784516137c9565b6040519384916543617264202360d01b828401528051918291018484015e81015f838201520301601f198101835282612f28565b9161129d565b9250602061142460266113d786516137c9565b92611295565b508251151561105d565b9050600d5f525f516020613b655f395f51905f525f905b82821061145f57505082016020018f610d6c565b805460209583018601528b949091019060010161144b565b60ff19168d525080151502830160200190508f610d6c565b60019250610d3d565b60019250610d33565b50506001610d27565b5050600192610d0d565b346101b65760203660031901126101b6576006546001600160a01b0316331480156114fd575b6114e39061334a565b6004355f908152600b60205260409020805460ff19169055005b50335f908152600c602052604090205460ff166114da565b346101b65760803660031901126101b65761152e612ea6565b611536612ebc565b90604435606435926001600160401b0384116101b657366023850112156101b65761156e611580943690602481600401359101612f64565b9261157a8383836131a9565b336136e4565b005b346101b65760203660031901126101b6576004356001600160401b0381116101b6576020806115b681933690600401612f9a565b604051928184925191829101835e8101600a81520301902054604051908152f35b346101b65760203660031901126101b65760043560ff81168091036101b6575f526009602052602060405f2054604051908152f35b346101b65761158061161d366130a2565b90611626613588565b60018060a01b03165f52600c60205260405f209060ff801983541691151516179055565b346101b6575f3660031901126101b6576020600754604051908152f35b346101b657611675366130a2565b9033156116fa576001600160a01b03169081156116e757335f52600560205260405f20825f526020526116b78160405f209060ff801983541691151516179055565b60405190151581527f17307eab39ab6107e8899845ad3d59bd9653f200f220920489ca2b5937696c3160203392a3005b50630b61174360e31b5f5260045260245ffd5b63a9fbf51f60e01b5f525f60045260245ffd5b346101b6575f3660031901126101b6576040515f60015461172d816130d1565b80845290600181169081156117c75750600114611769575b6112588361175581850382612f28565b604051918291602083526020830190612e82565b60015f9081527fb10e2d527612073b26eecdfd717e6a320cf44b4afac2b0732d9fcbe2b7fa0cf6939250905b8082106117ad57509091508101602001611755611745565b919260018160209254838588010152019101909291611795565b60ff191660208086019190915291151560051b840190910191506117559050611745565b346101b6575f3660031901126101b6576006546040516001600160a01b039091168152602090f35b346101b65760203660031901126101b6576006546001600160a01b03163314801561185f575b6118429061334a565b6004355f908152600b60205260409020805460ff19166001179055005b50335f908152600c602052604090205460ff16611839565b346101b65760203660031901126101b6576004356001600160401b0381116101b6576118a7903690600401612f9a565b6118af613588565b80516001600160401b03811161079c576118ca600d546130d1565b601f8111611979575b50602091601f821160011461191157611901925f91836119065750508160011b915f199060031b1c19161790565b600d55005b0151905083806104af565b601f19821692600d5f525f516020613b655f395f51905f52915f5b85811061196157508360019510611949575b505050811b01600d55005b01515f1960f88460031b161c1916905582808061193e565b9192602060018192868501518155019401920161192c565b6119bc90600d5f52601f830160051c5f516020613b655f395f51905f520190602084106119c2575b601f0160051c5f516020613b655f395f51905f5201906133a7565b826118d3565b5f516020613b655f395f51905f5291506119a1565b346101b6576101403660031901126101b6576119f1612ea6565b6024356001600160401b0381116101b657611a10903690600401612f9a565b90611a19612fb8565b6064356001600160401b0381116101b657611a38903690600401612f9a565b611a40612fd8565b92611a49612fe9565b9460c4356001600160401b0381116101b657611a69903690600401612f9a565b91611a72612fc8565b9560018060a01b036006541633148015611ed0575b611a909061334a565b600160ff8716101580611ec2575b156109565761ffff169586151580611eb5575b1561091457611ac160075461357a565b9687600755602098604051611ad68b82612f28565b5f81526001600160a01b03851615610901576001600160a01b03611afa8b876134a2565b166108ee57611b0b908a86336135af565b60405195611b1887612f0c565b85875260ff8b880194818b16865260408901928a845260608a0195865261ffff60808b019516855260a08a01521660c08801524360e08801526101043561010088015261012435610120880152895f5260088b5260405f209387518051906001600160401b03821161079c578d90611b9088546130d1565b601f8111611e87575b5081601f8411600114611e1f57509180611bcb9260ff95945f926106c95750508160011b915f199060031b1c19161790565b86555b511660ff60018601911660ff198254161790555180516001600160401b03811161079c57611bff60028601546130d1565b8c601f8211611ded575b50508b8c601f8311600114611d8257508190611c39935f926107b05750508160011b915f199060031b1c19161790565b60028401555b61ffff6003840192511663ffff00008354925160101b169163ffffffff19161717905560a08401519384516001600160401b03811161079c578895611c8760048501546130d1565b8b601f8211611d50575b50508a90601f8311600114611cde57610120610681946105d68561066099965f516020613b455f395f51905f529b99966008965f926106c95750508160011b915f199060031b1c19161790565b90600485015f528b5f20915f5b8d601f1986168210611d37575050610681946001855f516020613b455f395f51905f529a9895600895610120956106609c99601f1981161061072e57505050811b0160048501556105dc565b8383015185558d9a506001909401939283019201611ceb565b611d7b91600487015f52815f2090601f860160051c820192861061079257601f0160051c01906133a7565b8b8b611c91565b9192601f198416600288015f52835f20935f905b828210611dd5575050908460019594939210611dbd575b505050811b016002840155611c3f565b01515f1960f88460031b161c191690558c8080611dad565b80600186978294978701518155019601940190611d96565b611e1891600288015f52815f2090601f850160051c820192851061079257601f0160051c01906133a7565b8c8c611c09565b9190601f198416895f52835f20935f905b828210611e6f57505091600193918560ff97969410611e57575b505050811b018655611bce565b01515f1960f88460031b161c191690558f8080611e4a565b80600186978294978701518155019601940190611e30565b611eaf90895f52835f20601f860160051c81019185871061079257601f0160051c01906133a7565b8f611b99565b5061ffff88161515611ab1565b50600460ff87161115611a9e565b50335f908152600c602052604090205460ff16611a87565b346101b6575f3660031901126101b657611f00613588565b600680546001600160a01b031981169091555f906001600160a01b03167f8be0079c531659141344cd1fd0a4f28419497f9722a3daafe3b4186f6b6457e08280a3005b346101b65760203660031901126101b6576001600160a01b03611f64612ea6565b168015611f81575f526003602052602060405f2054604051908152f35b6322718ad960e21b5f525f60045260245ffd5b346101b65760203660031901126101b6576020611fb260043561346e565b6040516001600160a01b039091168152f35b346101b657611fd236612ffa565b949091611fdd613588565b600160ff8616101580612408575b156109565761ffff1695861515806123fb575b156109145761200e60075461357a565b95866007556020976040516120238a82612f28565b5f81526001600160a01b03841615610901576001600160a01b036120478a866134a2565b166108ee57612058908985336135af565b6040519461206586612f0c565b8486528986019260ff8916845260408701908882526060880193845261ffff608089019316835260a08801525f60c08801524360e08801525f6101008801525f610120880152895f5260088b5260405f209387518051906001600160401b03821161079c578d906120d688546130d1565b601f81116123cd575b5081601f8411600114612365575091806121119260ff95945f926106c95750508160011b915f199060031b1c19161790565b86555b511660ff60018601911660ff198254161790555180516001600160401b03811161079c5761214560028601546130d1565b8c601f8211612333575b50508b8c601f83116001146122c85750819061217f935f926107b05750508160011b915f199060031b1c19161790565b60028401555b61ffff6003840192511663ffff00008354925160101b169163ffffffff19161717905560a08401519384516001600160401b03811161079c5788956121cd60048501546130d1565b8b601f8211612296575b50508a90601f831160011461222457610120610681946105d68561066099965f516020613b455f395f51905f529b99966008965f926106c95750508160011b915f199060031b1c19161790565b90600485015f528b5f20915f5b8d601f198616821061227d575050610681946001855f516020613b455f395f51905f529a9895600895610120956106609c99601f1981161061072e57505050811b0160048501556105dc565b8383015185558d9a506001909401939283019201612231565b6122c191600487015f52815f2090601f860160051c820192861061079257601f0160051c01906133a7565b8b8b6121d7565b9192601f198416600288015f52835f20935f905b82821061231b575050908460019594939210612303575b505050811b016002840155612185565b01515f1960f88460031b161c191690558c80806122f3565b806001869782949787015181550196019401906122dc565b61235e91600288015f52815f2090601f850160051c820192851061079257601f0160051c01906133a7565b8c8c61214f565b9190601f198416895f52835f20935f905b8282106123b557505091600193918560ff9796941061239d575b505050811b018655612114565b01515f1960f88460031b161c191690558f8080612390565b80600186978294978701518155019601940190612376565b6123f590895f52835f20601f860160051c81019185871061079257601f0160051c01906133a7565b8f6120df565b5061ffff83161515611ffe565b50600460ff86161115611feb565b346101b65760203660031901126101b65760043560018060a01b0360065416331480156126e0575b6124479061334a565b805f52600860205260405f206020806040519261246384612f0c565b61246c81613109565b845260ff60018201541693828101948552610120600861248e60028501613109565b936040840194855261ffff6003820154818116606087015260101c1660808501526124bb60048201613109565b60a085015260ff60058201541660c0850152600681015460e08501526007810154610100850152015491015260ff8451165f526009825260405f206125008154613387565b905551604051928184925191829101835e8101600a8152030190206125258154613387565b9055815f5260086020525f60086040822061253f816133bd565b826001820155612551600282016133bd565b826003820155612563600482016133bd565b8260058201558260068201558260078201550155815f52600b60205260ff60405f20541661269b575f828152600260205260409020546001600160a01b03168015908115612668575b5f84815260026020526040812080546001600160a01b03191690558490827fddf252ad1be2c89b69c2b068fc378daa952ba7f163c4a11628f55a4df523b3ef8280a45061265557602060ff7ff34a5a92a6a55542fbe5787aadd7c498e790b53740631c282e654cc428770d4792604051947f0a7045c74bf1b0cbff07375fb21ff7c04ea187a00d2a75b20764f01fb5a241695f80a2511692835f526009825260405f20548152a2005b50637e27328960e01b5f5260045260245ffd5b5f84815260046020526040902080546001600160a01b0319169055805f52600360205260405f205f1981540190556125ac565b60405162461bcd60e51b815260206004820152601860248201527f43617264206973206c6f636b656420696e20657363726f7700000000000000006044820152606490fd5b50335f908152600c602052604090205460ff1661243e565b346101b65761158061270936612ed2565b9060405192612719602085612f28565b5f845261157a8383836131a9565b346101b65761273536612ffa565b94909160018060a01b036006541633148015612b8e575b6127559061334a565b600160ff8616101580612b80575b156109565761ffff169586151580612b73575b156109145761278660075461357a565b958660075560209760405161279b8a82612f28565b5f81526001600160a01b03841615610901576001600160a01b036127bf8a866134a2565b166108ee576127d0908985336135af565b604051946127dd86612f0c565b8486528986019260ff8916845260408701908882526060880193845261ffff608089019316835260a08801525f60c08801524360e08801525f6101008801525f610120880152895f5260088b5260405f209387518051906001600160401b03821161079c578d9061284e88546130d1565b601f8111612b45575b5081601f8411600114612add575091806128899260ff95945f926106c95750508160011b915f199060031b1c19161790565b86555b511660ff60018601911660ff198254161790555180516001600160401b03811161079c576128bd60028601546130d1565b8c601f8211612aab575b50508b8c601f8311600114612a40575081906128f7935f926107b05750508160011b915f199060031b1c19161790565b60028401555b61ffff6003840192511663ffff00008354925160101b169163ffffffff19161717905560a08401519384516001600160401b03811161079c57889561294560048501546130d1565b8b601f8211612a0e575b50508a90601f831160011461299c57610120610681946105d68561066099965f516020613b455f395f51905f529b99966008965f926106c95750508160011b915f199060031b1c19161790565b90600485015f528b5f20915f5b8d601f19861682106129f5575050610681946001855f516020613b455f395f51905f529a9895600895610120956106609c99601f1981161061072e57505050811b0160048501556105dc565b8383015185558d9a5060019094019392830192016129a9565b612a3991600487015f52815f2090601f860160051c820192861061079257601f0160051c01906133a7565b8b8b61294f565b9192601f198416600288015f52835f20935f905b828210612a93575050908460019594939210612a7b575b505050811b0160028401556128fd565b01515f1960f88460031b161c191690558c8080612a6b565b80600186978294978701518155019601940190612a54565b612ad691600288015f52815f2090601f850160051c820192851061079257601f0160051c01906133a7565b8c8c6128c7565b9190601f198416895f52835f20935f905b828210612b2d57505091600193918560ff97969410612b15575b505050811b01865561288c565b01515f1960f88460031b161c191690558f8080612b08565b80600186978294978701518155019601940190612aee565b612b6d90895f52835f20601f860160051c81019185871061079257601f0160051c01906133a7565b8f612857565b5061ffff83161515612776565b50600460ff86161115612763565b50335f908152600c602052604090205460ff1661274c565b346101b657611580612bb736612ed2565b916131a9565b346101b6575f3660031901126101b6576040515f600d54612bdd816130d1565b80845290600181169081156117c75750600114612c04576112588361175581850382612f28565b600d5f9081525f516020613b655f395f51905f52939250905b808210612c3557509091508101602001611755611745565b919260018160209254838588010152019101909291612c1d565b346101b65760403660031901126101b657612c68612ea6565b602435612c748161346e565b33151580612d26575b80612cf9575b612ce65781906001600160a01b0384811691167f8c5be1e5ebec7d5bd14f71427d1e84f3dd0314c0f7b2291e5b200ac8c7c3b9255f80a45f90815260046020526040902080546001600160a01b0319166001600160a01b03909216919091179055005b63a9fbf51f60e01b5f523360045260245ffd5b506001600160a01b0381165f90815260056020908152604080832033845290915290205460ff1615612c83565b506001600160a01b038116331415612c7d565b346101b65760203660031901126101b657600435612d568161346e565b505f526004602052602060018060a01b0360405f205416604051908152f35b346101b6575f3660031901126101b6576040515f5f54612d94816130d1565b80845290600181169081156117c75750600114612dbb576112588361175581850382612f28565b5f8080527f290decd9548b62a8d60345a988386fc84ba6bc95484008f6362f93160ef3e563939250905b808210612dfd57509091508101602001611755611745565b919260018160209254838588010152019101909291612de5565b346101b65760203660031901126101b6576004359063ffffffff60e01b82168092036101b6576020916380ac58cd60e01b8114908115612e71575b8115612e60575b5015158152f35b6301ffc9a760e01b14905083612e59565b635b5e139f60e01b81149150612e52565b805180835260209291819084018484015e5f828201840152601f01601f1916010190565b600435906001600160a01b03821682036101b657565b602435906001600160a01b03821682036101b657565b60609060031901126101b6576004356001600160a01b03811681036101b657906024356001600160a01b03811681036101b6579060443590565b61014081019081106001600160401b0382111761079c57604052565b90601f801991011681019081106001600160401b0382111761079c57604052565b6001600160401b03811161079c57601f01601f191660200190565b929192612f7082612f49565b91612f7e6040519384612f28565b8294818452818301116101b6578281602093845f960137010152565b9080601f830112156101b657816020612fb593359101612f64565b90565b6044359060ff821682036101b657565b60e4359060ff821682036101b657565b6084359061ffff821682036101b657565b60a4359061ffff821682036101b657565b60e06003198201126101b6576004356001600160a01b03811681036101b657916024356001600160401b0381116101b6578261303891600401612f9a565b9160443560ff811681036101b657916064356001600160401b0381116101b6578261306591600401612f9a565b9160843561ffff811681036101b6579160a43561ffff811681036101b6579160c435906001600160401b0382116101b657612fb591600401612f9a565b60409060031901126101b6576004356001600160a01b03811681036101b6579060243580151581036101b65790565b90600182811c921680156130ff575b60208310146130eb57565b634e487b7160e01b5f52602260045260245ffd5b91607f16916130e0565b9060405191825f82549261311c846130d1565b80845293600181169081156131875750600114613143575b5061314192500383612f28565b565b90505f9291925260205f20905f915b81831061316b575050906020613141928201015f613134565b6020919350806001915483858901015201910190918492613152565b90506020925061314194915060ff191682840152151560051b8201015f613134565b6001600160a01b039091169190821561090157815f52600b60205260ff60405f20541661269b575f828152600260205260409020546001600160a01b0316928290331515806132b5575b5084613282575b805f52600360205260405f2060018154019055815f52600260205260405f20816bffffffffffffffffffffffff60a01b825416179055847fddf252ad1be2c89b69c2b068fc378daa952ba7f163c4a11628f55a4df523b3ef5f80a46001600160a01b031680830361326a57505050565b6364283d7b60e01b5f5260045260245260445260645ffd5b5f82815260046020526040902080546001600160a01b0319169055845f52600360205260405f205f1981540190556131fa565b909150806132f9575b156132cb5782905f6131f3565b82846132e357637e27328960e01b5f5260045260245ffd5b63177e802f60e01b5f523360045260245260445ffd5b503384148015613328575b806132be57505f838152600460205260409020546001600160a01b031633146132be565b505f84815260056020908152604080832033845290915290205460ff16613304565b1561335157565b60405162461bcd60e51b815260206004820152600e60248201526d139bdd08185d5d1a1bdc9a5e995960921b6044820152606490fd5b8015613393575f190190565b634e487b7160e01b5f52601160045260245ffd5b8181106133b2575050565b5f81556001016133a7565b6133c781546130d1565b90816133d1575050565b81601f5f93116001146133e2575055565b818352602083206133fe91601f0160051c8101906001016133a7565b8082528160208120915555565b1561341257565b60405162461bcd60e51b81526020600482015260116024820152702737b732bc34b9ba32b73a103a37b5b2b760791b6044820152606490fd5b9190820391821161339357565b9061ffff8091169116039061ffff821161339357565b5f818152600260205260409020546001600160a01b0316908115613490575090565b637e27328960e01b5f5260045260245ffd5b90805f52600b60205260ff60405f20541661269b575f818152600260205260409020546001600160a01b03169182613547575b6001600160a01b03168061352f575b815f52600260205260405f20816bffffffffffffffffffffffff60a01b825416179055827fddf252ad1be2c89b69c2b068fc378daa952ba7f163c4a11628f55a4df523b3ef5f80a490565b805f52600360205260405f20600181540190556134e4565b5f82815260046020526040902080546001600160a01b0319169055825f52600360205260405f205f1981540190556134d5565b5f1981146133935760010190565b6006546001600160a01b0316330361359c57565b63118cdaa760e01b5f523360045260245ffd5b9291813b6135be575b50505050565b604051630a85bd0160e11b81526001600160a01b0394851660048201525f60248201526044810191909152608060648201529216919060209082908190613609906084830190612e82565b03815f865af15f918161369f575b5061366c57503d15613665573d61362d81612f49565b9061363b6040519283612f28565b81523d5f602083013e5b805190816136605782633250574960e11b5f5260045260245ffd5b602001fd5b6060613645565b6001600160e01b03191663757a42ff60e11b0161368d57505f8080806135b8565b633250574960e11b5f5260045260245ffd5b9091506020813d6020116136dc575b816136bb60209383612f28565b810103126101b657516001600160e01b0319811681036101b657905f613617565b3d91506136ae565b823b6136f2575b5050505050565b604051630a85bd0160e11b81526001600160a01b03918216600482015291811660248301526044820193909352608060648201529116916020908290819061373e906084830190612e82565b03815f865af15f9181613784575b5061376257503d15613665573d61362d81612f49565b6001600160e01b03191663757a42ff60e11b0161368d57505f808080806136eb565b9091506020813d6020116137c1575b816137a060209383612f28565b810103126101b657516001600160e01b0319811681036101b657905f61374c565b3d9150613793565b805f9172184f03e93ff9f4daa797ed6e38ed64bf6a1f0160401b821015613913575b806d04ee2d6d415b85acef8100000000600a9210156138f8575b662386f26fc100008110156138e4575b6305f5e1008110156138d3575b6127108110156138c4575b60648110156138b6575b10156138ab575b600a6021600184019361385085612f49565b9461385e6040519687612f28565b80865261386d601f1991612f49565b013660208701378401015b5f1901916f181899199a1a9b1b9c1cb0b131b232b360811b8282061a83530480156138a657600a9091613878565b505090565b60019091019061383e565b606460029104930192613837565b6127106004910493019261382d565b6305f5e10060089104930192613822565b662386f26fc1000060109104930192613815565b6d04ee2d6d415b85acef810000000060209104930192613805565b506040915072184f03e93ff9f4daa797ed6e38ed64bf6a1f0160401b81046137eb565b60ff16600181146139ea57600281146139c757600381146139a45760041461397d57604051613966604082612f28565b60078152662ab735b737bbb760c91b602082015290565b60405161398b604082612f28565b60098152684c6567656e6461727960b81b602082015290565b506040516139b3604082612f28565b60048152634570696360e01b602082015290565b506040516139d6604082612f28565b60048152635261726560e01b602082015290565b506040516139f9604082612f28565b600681526521b7b6b6b7b760d11b602082015290565b90815115613b2e578151600281018091116133935760039004600281901b91906001600160fe1b0381160361339357604051917f4142434445464748494a4b4c4d4e4f505152535455565758595a616263646566601f527f6768696a6b6c6d6e6f707172737475767778797a303132333435363738392b2f603f52602083018480518101602081018051915f82525b808910613af25750602095969750906003929152510680600114613add57600214613ad0575b50808452830101604052565b603d905f1901535f613ac4565b50603d90815f1982015360011901535f613ac4565b939760036004910198603f8a51818160121c165183538181600c1c16516001840153818160061c16516002840153165160038201530193613a9e565b9050604051613b3e602082612f28565b5f81529056fef6330338eeb1d1562653bd6be0025feb32293c887fe579cace284b627f64b10ed7b6990105719101dabeb77144f2a3385c8033acd3af97e9423a695e81ad1eb5a26469706673582212200ada1d0ff0be18c2d2e8e55fb51b3d2dde9607932ee564aff2ce9310ef35ee6164736f6c634300081c0033",
  "linkReferences": {},
  "deployedLinkReferences": {}
}