{
  "_format": "hh-sol-artifact-1",
  "contractName": "CombinationManager",
  "sourceName": "contracts/CombinationManager.sol",
  "abi": [
    {
      "inputs": [
        {
          "internalType": "address",
          "name": "_cardNFT",
          "type": "address"
        }
      ],
      "stateMutability": "nonpayable",
      "type": "constructor"
    },
    {
      "inputs": [
        {
          "internalType": "address",
          "name": "owner",
          "type": "address"
        }
      ],
      "name": "OwnableInvalidOwner",
      "type": "error"
    },
    {
      "inputs": [
        {
          "internalType": "address",
          "name": "account",
          "type": "address"
        }
      ],
      "name": "OwnableUnauthorizedAccount",
      "type": "error"
    },
    {
      "inputs": [],
      "name": "ReentrancyGuardReentrantCall",
      "type": "error"
    },
    {
      "anonymous": false,
      "inputs": [
        {
          "indexed": true,
          "internalType": "uint256",
          "name": "fusedTokenId",
          "type": "uint256"
        },
        {
          "indexed": true,
          "internalType": "uint256",
          "name": "tokenId1",
          "type": "uint256"
        },
        {
          "indexed": true,
          "internalType": "uint256",
          "name": "tokenId2",
          "type": "uint256"
        },
        {
          "indexed": false,
          "internalType": "address",
          "name": "owner",
          "type": "address"
        }
      ],
      "name": "CardUnfused",
      "type": "event"
    },
    {
      "anonymous": false,
      "inputs": [
        {
          "indexed": true,
          "internalType": "uint256",
          "name": "newTokenId",
          "type": "uint256"
        },
        {
          "indexed": true,
          "internalType": "uint256",
          "name": "tokenId1",
          "type": "uint256"
        },
        {
          "indexed": true,
          "internalType": "uint256",
          "name": "tokenId2",
          "type": "uint256"
        },
        {
          "indexed": false,
          "internalType": "address",
          "name": "owner",
          "type": "address"
        },
        {
          "indexed": false,
          "internalType": "string",
          "name": "resultElement",
          "type": "string"
        },
        {
          "indexed": false,
          "internalType": "uint8",
          "name": "resultRarity",
          "type": "uint8"
        }
      ],
      "name": "CardsCombined",
      "type": "event"
    },
    {
      "anonymous": false,
      "inputs": [
        {
          "indexed": true,
          "internalType": "uint256",
          "name": "fusedTokenId",
          "type": "uint256"
        },
        {
          "indexed": true,
          "internalType": "uint256",
          "name": "tokenId1",
          "type": "uint256"
        },
        {
          "indexed": true,
          "internalType": "uint256",
          "name": "tokenId2",
          "type": "uint256"
        },
        {
          "indexed": false,
          "internalType": "address",
          "name": "owner",
          "type": "address"
        }
      ],
      "name": "CardsFused",
      "type": "event"
    },
    {
      "anonymous": false,
      "inputs": [
        {
          "indexed": true,
          "internalType": "address",
          "name": "previousOwner",
          "type": "address"
        },
        {
          "indexed": true,
          "internalType": "address",
          "name": "newOwner",
          "type": "address"
        }
      ],
      "name": "OwnershipTransferred",
      "type": "event"
    },
    {
      "inputs": [],
      "name": "COOLDOWN_BLOCKS",
      "outputs": [
        {
          "internalType": "uint256",
          "name": "",
          "type": "uint256"
        }
      ],
      "stateMutability": "view",
      "type": "function"
    },
    {
      "inputs": [],
      "name": "MAX_GENERATION",
      "outputs": [
        {
          "internalType": "uint256",
          "name": "",
          "type": "uint256"
        }
      ],
      "stateMutability": "view",
      "type": "function"
    },
    {
      "inputs": [],
      "name": "cardNFT",
      "outputs": [
        {
          "internalType": "contract ICardNFT",
          "name": "",
          "type": "address"
        }
      ],
      "stateMutability": "view",
      "type": "function"
    },
    {
      "inputs": [
        {
          "internalType": "uint256",
          "name": "tokenId1",
          "type": "uint256"
        },
        {
          "internalType": "uint256",
          "name": "tokenId2",
          "type": "uint256"
        },
        {
          "internalType": "uint256[]",
          "name": "fuelCards",
          "type": "uint256[]"
        }
      ],
      "name": "combineCards",
      "outputs": [
        {
          "internalType": "uint256",
          "name": "newTokenId",
          "type": "uint256"
        }
      ],
      "stateMutability": "nonpayable",
      "type": "function"
    },
    {
      "inputs": [
        {
          "internalType": "uint256",
          "name": "tokenId1",
          "type": "uint256"
        },
        {
          "internalType": "uint256",
          "name": "tokenId2",
          "type": "uint256"
        }
      ],
      "name": "fuseCards",
      "outputs": [
        {
          "internalType": "uint256",
          "name": "fusedTokenId",
          "type": "uint256"
        }
      ],
      "stateMutability": "nonpayable",
      "type": "function"
    },
    {
      "inputs": [
        {
          "internalType": "uint256",
          "name": "",
          "type": "uint256"
        }
      ],
      "name": "fusedCards",
      "outputs": [
        {
          "internalType": "uint256",
          "name": "tokenId1",
          "type": "uint256"
        },
        {
          "internalType": "uint256",
          "name": "tokenId2",
          "type": "uint256"
        },
        {
          "internalType": "bool",
          "name": "isActive",
          "type": "bool"
        }
      ],
      "stateMutability": "view",
      "type": "function"
    },
    {
      "inputs": [
        {
          "internalType": "uint256",
          "name": "tokenId1",
          "type": "uint256"
        },
        {
          "internalType": "uint256",
          "name": "tokenId2",
          "type": "uint256"
        }
      ],
      "name": "getCombinationPreview",
      "outputs": [
        {
          "internalType": "string",
          "name": "element",
          "type": "string"
        },
        {
          "internalType": "uint16",
          "name": "attack",
          "type": "uint16"
        },
        {
          "internalType": "uint16",
          "name": "defense",
          "type": "uint16"
        },
        {
          "internalType": "uint8",
          "name": "rarity",
          "type": "uint8"
        },
        {
          "internalType": "string",
          "name": "ability",
          "type": "string"
        },
        {
          "internalType": "uint8",
          "name": "generation",
          "type": "uint8"
        },
        {
          "internalType": "string",
          "name": "name",
          "type": "string"
        }
      ],
      "stateMutability": "view",
      "type": "function"
    },
    {
      "inputs": [
        {
          "internalType": "address",
          "name": "player",
          "type": "address"
        }
      ],
      "name": "getPlayerCombinationCount",
      "outputs": [
        {
          "internalType": "uint256",
          "name": "",
          "type": "uint256"
        }
      ],
      "stateMutability": "view",
      "type": "function"
    },
    {
      "inputs": [
        {
          "internalType": "uint256",
          "name": "tokenId1",
          "type": "uint256"
        },
        {
          "internalType": "uint256",
          "name": "tokenId2",
          "type": "uint256"
        }
      ],
      "name": "isValidCombination",
      "outputs": [
        {
          "internalType": "bool",
          "name": "",
          "type": "bool"
        }
      ],
      "stateMutability": "view",
      "type": "function"
    },
    {
      "inputs": [
        {
          "internalType": "address",
          "name": "",
          "type": "address"
        }
      ],
      "name": "lastCombinationBlock",
      "outputs": [
        {
          "internalType": "uint256",
          "name": "",
          "type": "uint256"
        }
      ],
      "stateMutability": "view",
      "type": "function"
    },
    {
      "inputs": [],
      "name": "owner",
      "outputs": [
        {
          "internalType": "address",
          "name": "",
          "type": "address"
        }
      ],
      "stateMutability": "view",
      "type": "function"
    },
    {
      "inputs": [
        {
          "internalType": "address",
          "name": "",
          "type": "address"
        }
      ],
      "name": "playerCombinationCount",
      "outputs": [
        {
          "internalType": "uint256",
          "name": "",
          "type": "uint256"
        }
      ],
      "stateMutability": "view",
      "type": "function"
    },
    {
      "inputs": [],
      "name": "renounceOwnership",
      "outputs": [],
      "stateMutability": "nonpayable",
      "type": "function"
    },
    {
      "inputs": [
        {
          "internalType": "uint256",
          "name": "targetTokenId",
          "type": "uint256"
        },
        {
          "internalType": "uint256",
          "name": "fuelTokenId",
          "type": "uint256"
        }
      ],
      "name": "repairCard",
      "outputs": [],
      "stateMutability": "nonpayable",
      "type": "function"
    },
    {
      "inputs": [
        {
          "internalType": "address",
          "name": "newOwner",
          "type": "address"
        }
      ],
      "name": "transferOwnership",
      "outputs": [],
      "stateMutability": "nonpayable",
      "type": "function"
    },
    {
      "inputs": [
        {
          "internalType": "uint256",
          "name": "fusedTokenId",
          "type": "uint256"
        }
      ],
      "name": "unfuseCard",
      "outputs": [],
      "stateMutability": "nonpayable",
      "type": "function"
    }
  ],
  "bytecode": "0x6080346100f257601f612cdc38819003918201601f19168301916001600160401b038311848410176100f6578084926020946040528339810103126100f257516001600160a01b038116908190036100f25733156100df575f8054336001600160a01b0319821681178355604051939290916001600160a01b0316907f8be0079c531659141344cd1fd0a4f28419497f9722a3daafe3b4186f6b6457e09080a360017f9b779b17422d0df92223018b32b4d1fa46e071723d6817e2486d003becc55f005560018060a01b03196001541617600155612bd1908161010b8239f35b631e4fbdf760e01b5f525f60045260245ffd5b5f80fd5b634e487b7160e01b5f52604160045260245ffdfe60806040526004361015610011575f80fd5b5f5f3560e01c8063031337dd14611319578063159d2db1146112d357806338d5d7d1146112ab5780635074d57f1461126f5780635253e802146111a657806352ff6baf146112545780635483135414611239578063715018a6146111e257806386198104146111a65780638cd885e014610ead5780638da5cb5b14610e86578063b5316f47146107e9578063b8ef1ca514610591578063cd133b01146101d4578063ebf8a59e146101585763f2fde38b146100ca575f80fd5b34610155576020366003190112610155576004356001600160a01b03811690819003610153576100f8611a57565b801561013f5781546001600160a01b03198116821783556001600160a01b03167f8be0079c531659141344cd1fd0a4f28419497f9722a3daafe3b4186f6b6457e08380a380f35b631e4fbdf760e01b82526004829052602482fd5b505b80fd5b50346101555760ff60e06101d061ffff6101bc8461017e6101783661133c565b90611910565b97959b9291938961019c60409b939b519e8f9e8f8181520190611352565b961660208d01521660408b01521660608901528782036080890152611352565b921660a085015283820360c0850152611352565b0390f35b5034610155576101e33661133c565b916101ec611a7d565b3381526002602052604081205415801561055c575b61020a90611798565b61021c610217848461152e565b6117d6565b6001546040516331a9108f60e11b8152600481018490526001600160a01b0390911690602081602481855afa908115610551579061026c918491610522575b506001600160a01b03163314611818565b803b156101535781809160246040518094819363223df05b60e21b83528860048401525af1801561048d5790829161050d575b50506001546001600160a01b0316803b156101535781809160246040518094819363223df05b60e21b83528960048401525af1801561048d579082916104f8575b50506102ec8383611910565b9194989593925060018060a01b036001541694604051630d5aaa5b60e41b815289600482015288816024818a5afa9081156104ed5789916104cc575b50604051630d5aaa5b60e41b81526004810189905289816024818b5afa9081156104c157918b93918a95938c91610498575b503390429061036893611cea565b60405163728af1d760e01b81529c8d98899861038b989093903360048c01611874565b0381855a94602095f192831561048d578293610454575b602094506040516103b281611376565b818152600286820191848352604081019260018452878752600489526040872091518255516001820155019051151560ff80198354169116179055338352600385526040832061040281546118ee565b9055837f1b51f6394711765b052ed4f913b1b7fcf12d81f19ece0ee262798470919fb09186604051338152a43381526002835260404391205560015f516020612b7c5f395f51905f5255604051908152f35b92506020843d602011610485575b8161046f602093836113c2565b810103126104815760209351926103a2565b5f80fd5b3d9150610462565b6040513d84823e3d90fd5b6104b491503d808e833e6104ac81836113c2565b81019061148e565b505050505090505f61035a565b6040513d8c823e3d90fd5b6104e091503d808b833e6104ac81836113c2565b505050505090505f610328565b6040513d8b823e3d90fd5b81610502916113c2565b61015557805f6102e0565b81610517916113c2565b61015557805f61029f565b610544915060203d60201161054a575b61053c81836113c2565b8101906113fc565b5f61025b565b503d610532565b6040513d85823e3d90fd5b50338152600260205260408120546064810180911161057d57431015610201565b634e487b7160e01b82526011600452602482fd5b5034610155576020366003190112610155576004356105ae611a7d565b6001546040516331a9108f60e11b8152600481018390526001600160a01b0390911690602081602481855afa80156107de576105fb91859161052257506001600160a01b03163314611818565b818352600460205260ff600260408520015416156107a05781835260046020526040832090836040519161062e83611376565b835480845260ff60026001870154966020870197885201541615156040850152813b15610787578291602483926040519485938492633191a51b60e21b845260048401525af1801561048d5761078b575b5060018060a01b03600154168351813b15610787578291602483926040519485938492633191a51b60e21b845260048401525af1801561048d57610772575b5083905260046020528360026040822082815582600182015501558360018060a01b0360015416803b1561015357818091602460405180948193630852cd8d60e31b83528a60048401525af1801561048d57610759575b5050519051917fe511ac1c119629d5bb660f438adca2c8e01b82c6870e17eb27c6c85d99c9e3556020604051338152a460015f516020612b7c5f395f51905f525580f35b81610763916113c2565b61076e57835f610715565b8380fd5b8161077c916113c2565b61076e57835f6106be565b8280fd5b81610795916113c2565b61076e57835f61067f565b60405162461bcd60e51b8152602060048201526016602482015275139bdd0818481d985b1a5908199d5cd9590818d85c9960521b6044820152606490fd5b6040513d86823e3d90fd5b503461015557606036600319011261015557600435602435916044359267ffffffffffffffff841161015357366023850112156101535783600401359267ffffffffffffffff8411610787576024850194602436918660051b01011161078757610851611a7d565b33835260026020526040832054158015610e51575b61086f90611798565b61087c610217838361152e565b6001546040516331a9108f60e11b8152600481018390526001600160a01b039091169490602081602481895afa908115610e2157906108cc91869161052257506001600160a01b03163314611818565b604051630d5aaa5b60e41b815260048101839052958487602481895afa958615610e21576024978697610e2c575b50859060405198898092630d5aaa5b60e41b82528860048301525afa968715610e21578597610dfe575b5060ff6109318888611ab5565b166002811015610b55575b50505061095f939461094e8383611910565b939a92509590949a33914291611cea565b6001549094906001600160a01b0316803b15610b3c57888091602460405180948193630852cd8d60e31b83528c60048401525af180156104ed57908991610b40575b50506001546001600160a01b0316803b15610b3c57888091602460405180948193630852cd8d60e31b83528d60048401525af180156104ed578b93928a8a938a93610b16575b505060015460405163728af1d760e01b81529c6001600160a01b03909116978d978897610a1d979293928c903360048c01611874565b0381875a94602095f19485156107de578495610ac0575b507f2c9421a36e07aea8b59cac354f4578d84d1e2eba2e0124f38876ab378deaab57610a90602097879333885260038a5260408820610a7381546118ee565b905560ff60405193849333855260608d8601526060850190611352565b911660408301520390a43381526002835260404391205560015f516020612b7c5f395f51905f5255604051908152f35b9594506020863d602011610b0e575b81610adc602093836113c2565b8101031261048157945193947f2c9421a36e07aea8b59cac354f4578d84d1e2eba2e0124f38876ab378deaab57610a34565b3d9150610acf565b9093508391949550610b2892506113c2565b610b38579086868b938a5f6109e7565b8780fd5b8880fd5b81610b4a916113c2565b610b3857875f6109a1565b5f190160ff8111610dea5760ff1691828110610da557855b838110610b7a575061093c565b6001546001600160a01b0316610b91828486611850565b6040516331a9108f60e11b815290356004820152602081602481855afa9081156104ed578991610d87575b50336001600160a01b0390911603610d4e57610bd9828486611850565b604051630d5aaa5b60e41b8152903560048201528881602481855afa9081156104ed5760019160ff918b91610d2d575b501603610cf25785610c1c838587611850565b35141580610cdd575b15610c9857610c35828486611850565b35813b15610b3c578891602483926040519485938492630852cd8d60e31b845260048401525af18015610c8d57908891610c74575b5050600101610b6d565b81610c7e916113c2565b610c8957865f610c6a565b8680fd5b6040513d8a823e3d90fd5b60405162461bcd60e51b815260206004820152601960248201527f4675656c2063616e6e6f74206265206d61696e206361726473000000000000006044820152606490fd5b5086610cea838587611850565b351415610c25565b60405162461bcd60e51b8152602060048201526013602482015272233ab2b61036bab9ba1031329021b7b6b6b7b760691b6044820152606490fd5b610d4191503d808d833e6104ac81836113c2565b505050505090505f610c09565b60405162461bcd60e51b8152602060048201526011602482015270139bdd081bdddb995c881bd988199d595b607a1b6044820152606490fd5b610d9f915060203d811161054a5761053c81836113c2565b5f610bbc565b60405162461bcd60e51b815260206004820152601a60248201527f496e73756666696369656e74206675656c2070726f76696465640000000000006044820152606490fd5b634e487b7160e01b86526011600452602486fd5b610e139197503d8087833e6104ac81836113c2565b50505050509050955f610924565b6040513d87823e3d90fd5b86919750610e43903d8084833e6104ac81836113c2565b5050505050905096906108fa565b503383526002602052604083205460648101809111610e7257431015610866565b634e487b7160e01b84526011600452602484fd5b5034610155578060031936011261015557546040516001600160a01b039091168152602090f35b503461048157610ebc3661133c565b610ec7929192611a7d565b6001546040516331a9108f60e11b8152600481018590526001600160a01b039091169190602081602481865afa908115611044575f91611187575b50336001600160a01b039091160361114f576040516331a9108f60e11b815260048101829052602081602481865afa908115611044575f91611130575b50336001600160a01b03909116036110fa578084146110b557604051630d5aaa5b60e41b8152600481018290525f81602481865afa9081156110445760019160ff915f91611094575b50160361104f57813b15610481575f91602483926040519485938492630852cd8d60e31b845260048401525af1801561104457611031575b50600154909182916001600160a01b031690813b1561102d578291602483926040519485938492630e0f043b60e41b845260048401525af1801561048d57611018575b5060015f516020612b7c5f395f51905f525580f35b81611022916113c2565b61015557805f611003565b5050fd5b61103d91505f906113c2565b5f5f610fc0565b6040513d5f823e3d90fd5b60405162461bcd60e51b815260206004820152601a60248201527f526570616972206675656c206d75737420626520436f6d6d6f6e0000000000006044820152606490fd5b6110a891503d805f833e6104ac81836113c2565b505050505090505f610f88565b60405162461bcd60e51b815260206004820152601a60248201527f43616e6e6f742066656564206361726420746f20697473656c660000000000006044820152606490fd5b60405162461bcd60e51b815260206004820152600e60248201526d2737ba10333ab2b61037bbb732b960911b6044820152606490fd5b611149915060203d60201161054a5761053c81836113c2565b5f610f3f565b60405162461bcd60e51b815260206004820152601060248201526f2737ba103a30b933b2ba1037bbb732b960811b6044820152606490fd5b6111a0915060203d60201161054a5761053c81836113c2565b5f610f02565b34610481576020366003190112610481576004356001600160a01b03811690819003610481575f526003602052602060405f2054604051908152f35b34610481575f366003190112610481576111fa611a57565b5f80546001600160a01b0319811682556001600160a01b03167f8be0079c531659141344cd1fd0a4f28419497f9722a3daafe3b4186f6b6457e08280a3005b34610481575f36600319011261048157602060405160648152f35b34610481575f36600319011261048157602060405160058152f35b34610481576020366003190112610481576004356001600160a01b03811690819003610481575f526002602052602060405f2054604051908152f35b34610481575f366003190112610481576001546040516001600160a01b039091168152602090f35b34610481576020366003190112610481576004355f526004602052606060405f2080549060ff600260018301549201541690604051928352602083015215156040820152f35b3461048157602061133261132c3661133c565b9061152e565b6040519015158152f35b6040906003190112610481576004359060243590565b805180835260209291819084018484015e5f828201840152601f01601f1916010190565b6060810190811067ffffffffffffffff82111761139257604052565b634e487b7160e01b5f52604160045260245ffd5b60a0810190811067ffffffffffffffff82111761139257604052565b90601f8019910116810190811067ffffffffffffffff82111761139257604052565b90816020910312610481575180151581036104815790565b9081602091031261048157516001600160a01b03811681036104815790565b81601f820112156104815780519067ffffffffffffffff82116113925760405192611450601f8401601f1916602001856113c2565b8284526020838301011161048157815f9260208093018386015e8301015290565b519060ff8216820361048157565b519061ffff8216820361048157565b60e08183031261048157805167ffffffffffffffff811161048157826114b591830161141b565b926114c260208301611471565b92604083015167ffffffffffffffff811161048157816114e391850161141b565b926114f06060820161147f565b926114fd6080830161147f565b9260a08301519067ffffffffffffffff82116104815761152460c09161152b93860161141b565b9301611471565b90565b8181146117925760015460405163f6aacfb160e01b8152600481018390526001600160a01b039091169290602081602481875afa908115611044575f91611773575b508015611712575b6116c2576040516331a9108f60e11b815260048101839052602081602481875afa908115611044575f916116f3575b506040516331a9108f60e11b81526004810183905290602082602481885afa918215611044575f926116d2575b506001600160a01b0390811691168114801591906116c9575b506116c25760405191630d5aaa5b60e41b835260048301525f82602481865afa918215611044575f9261169d575b505f90602460405180958193630d5aaa5b60e41b835260048301525afa918215611044575f92611674575b5060ff600591161090811591611665575b5061166157600190565b5f90565b6005915060ff1610155f611657565b600591925061168e60ff913d805f833e6104ac81836113c2565b95505050505050929150611646565b5f9192506116b4903d8084833e6104ac81836113c2565b95505050505050919061161b565b5050505f90565b9050155f6115ed565b6116ec91925060203d60201161054a5761053c81836113c2565b905f6115d4565b61170c915060203d60201161054a5761053c81836113c2565b5f6115a7565b5060405163f6aacfb160e01b815260048101829052602081602481875afa908115611044575f91611744575b50611578565b611766915060203d60201161176c575b61175e81836113c2565b8101906113e4565b5f61173e565b503d611754565b61178c915060203d60201161176c5761175e81836113c2565b5f611570565b50505f90565b1561179f57565b60405162461bcd60e51b815260206004820152600f60248201526e436f6f6c646f776e2061637469766560881b6044820152606490fd5b156117dd57565b60405162461bcd60e51b815260206004820152601360248201527224b73b30b634b21031b7b6b134b730ba34b7b760691b6044820152606490fd5b1561181f57565b60405162461bcd60e51b81526020600482015260096024820152682737ba1037bbb732b960b91b6044820152606490fd5b91908110156118605760051b0190565b634e487b7160e01b5f52603260045260245ffd5b96919561ffff6118c360ff97956118dd976101209c9f9e9d9a6118af8b916101408f889a60018060a01b031681528160208201520190611352565b921660408d01528b820360608d0152611352565b941660808901521660a087015285820360c0870152611352565b961660e08301526101008201520152565b5f1981146118fc5760010190565b634e487b7160e01b5f52601160045260245ffd5b9160018060a01b03600154169160405193630d5aaa5b60e41b855260048501525f84602481865afa8015611044575f945f925f905f925f94611a28575b505f90602460405180998193630d5aaa5b60e41b835260048301525afa918215611044575f945f935f955f995f926119ef575b5061198f60019260ff92611ab5565b16019060ff82116118fc5781946119a591611e14565b97889687519a6020890151958460808b0151998484336119c6908383611ace565b9d6040015161ffff16926119d995612a3e565b9a6060015161ffff16926119ec95612a3e565b94565b9095506001995061198f975060ff9650611a1391503d805f833e6104ac81836113c2565b919d50939a9199509197919350909150611980565b92509650505f9250611a4491503d8084833e6104ac81836113c2565b949993969495509093919291905061194d565b5f546001600160a01b03163303611a6a57565b63118cdaa760e01b5f523360045260245ffd5b60025f516020612b7c5f395f51905f525414611aa65760025f516020612b7c5f395f51905f5255565b633ee5aeb560e01b5f5260045ffd5b9060ff811660ff8316115f14611ac9575090565b905090565b9091606460ff9182851693838116948086105f14611ce35781955b1115611cdd5780955b6040519160208301935f85526bffffffffffffffffffffffff199060601b1660408401528560f81b9060f81b1660548301528460f81b9060f81b16605582015260368152611b416056826113c2565b5190200691169060018214808091611cd0575b611cb8578080611cab575b611ca2578080611c95575b611c825780611c75575b611c6d57600282148080611c60575b611c48578080611c3b575b611c325780611c25575b611c135760038214908180611c06575b611bee575080611be1575b611bda5760041480611bcd575b611bc75790565b50600490565b50600460ff821614611bc0565b5050600490565b50600460ff831614611bb3565b91505060149150105f14611c0157600390565b600490565b50600360ff851614611ba8565b905060469150105f14611c0157600390565b50600460ff841614611b98565b50505050600390565b50600360ff851614611b8e565b50905060289150105f14611c5b57600290565b600390565b50600260ff851614611b83565b505050600390565b50600460ff841614611b74565b50905060469150105f14611c5b57600290565b50600360ff851614611b6a565b50505050600290565b50600260ff851614611b5f565b50905060329150105f14611ccb57600190565b600290565b50600160ff851614611b54565b85611af2565b8695611ae9565b9260ff8085169390926064929080851680871015611d5d5787965b1115611d5657865b604080516020810195865260609490941b6bffffffffffffffffffffffff191690840152851660f890811b6054840152908516901b605582015260368152611b416056826113c2565b8096611d0d565b8196611d05565b60405190611d736040836113c2565b60048252634669726560e01b6020830152565b60405190611d956040836113c2565b60058252642bb0ba32b960d91b6020830152565b60405190611db86040836113c2565b600582526408ac2e4e8d60db1b6020830152565b60405190611ddb6040836113c2565b600382526220b4b960e91b6020830152565b60405190611dfc6040836113c2565b60098252684c696768746e696e6760b81b6020830152565b90604051611e21816113a6565b60608152606060208201525f60408201525f60608201526060608082015250611e51611e4b611d64565b83612ab4565b80612a17575b61297757611e66611e4b611d86565b80612966575b6128c857611e7b611e4b611da9565b806128b7575b61281157611e90611e4b611dcc565b80612800575b61275b57611ea5611e4b611ded565b80612744575b6126a357611eca611eba611d64565b611ec2611d86565b908385612b17565b6125ee57611ee1611ed9611da9565b611ec2611d64565b61253857611ef0611ed9611dcc565b6124a757611eff611eba611da9565b61240157611f0e611eba611dcc565b61234f57611f25611f1d611dcc565b611ec2611da9565b6122ab57611f3c611f34611d64565b611ec2611ded565b61220757611f4b611eba611ded565b61216257611f5a611f34611da9565b6120a857611f7990611f6a611dcc565b611f72611ded565b9184612b17565b6120035760405190611f8a826113a6565b815260408051611f9a82826113c2565b600e81526d556e6b6e6f776e20456e7469747960901b602082015260208301525f818301525f6060830152611fd1815191826113c2565b602081527f4d69736d6174636865643a20556e737461626c6520636f6d62696e6174696f6e6020820152608082015290565b50604051612010816113a6565b6040805161201e82826113c2565b60078152662a343ab73232b960c91b60208201528252805161204082826113c2565b600c81526b151a1d5b99195c88131bdc9960a21b602082015260208301526006818301525f6060830152612076815191826113c2565b601881527f536f6e69633a2043616e6e6f7420626520626c6f636b656400000000000000006020820152608082015290565b50506040516120b6816113a6565b604080516120c482826113c2565b60098152684d61676e657469736d60b81b6020820152825280516120e882826113c2565b60118152704d61676e6574696320436f6c6f7373757360781b602082015260208301526002818301526002606083015262796f7560e81b81519161212d6060846113c2565b602383527f436f6e74726f6c3a2050756c6c206f70706f6e656e7420636172647320746f206020840152820152608082015290565b5050604051612170816113a6565b6040805161217e82826113c2565b600581526453746f726d60d81b60208201528252805161219e82826113c2565b600c81526b14dd1bdc9b4812195c985b1960a21b60208201526020830152600381830152600360608301526121d5815191826113c2565b601f81527f4368616f733a2052616e646f6d20656666656374732065616368207475726e006020820152608082015290565b5050604051612215816113a6565b6040805161222382826113c2565b6006815265506c61736d6160d01b60208201528252805161224482826113c2565b600b81526a506c61736d6120436f726560a81b602082015260208301526005818301525f6060830152612279815191826113c2565b601d81527f556e737461626c653a2052616e646f6d2064616d6167652031352d32350000006020820152608082015290565b50506040516122b9816113a6565b604080516122c782826113c2565b6004815263111d5cdd60e21b6020820152825280516122e682826113c2565b600c81526b44757374205068616e746f6d60a01b602082015260208301526001818301526001606083015261231d815191826113c2565b601c81527f426c696e643a2033302520656e656d79206d697373206368616e6365000000006020820152608082015290565b505060405161235d816113a6565b6040805161236b82826113c2565b600381526249636560e81b60208201528252805161238982826113c2565b600e81526d119c9bdcdd0814d95b9d1a5b995b60921b6020820152602083015260018183015260016060830152632035302560e01b8151916123cc6060846113c2565b602483527f467265657a653a20526564756365206f70706f6e656e742073706565642062796020840152820152608082015290565b505060405161240f816113a6565b6040805161241d82826113c2565b60068152654e617475726560d01b60208201528252805161243e82826113c2565b600d81526c2730ba3ab932902bb0b93232b760991b602082015260208301525f8183015260026060830152612475815191826113c2565b601e81527f526567656e65726174653a204865616c203120485020706572207475726e00006020820152608082015290565b50506040516124b5816113a6565b6124bd611ded565b8152604080516124cd82826113c2565b600f81526e2a343ab73232b91029ba3934b5b2b960891b602082015260208301526004818301525f6060830152612506815191826113c2565b601981527f53686f636b3a20333025206368616e636520746f207374756e000000000000006020820152608082015290565b5050604051612546816113a6565b6040805161255482826113c2565b60048152634c61766160e01b60208201528252805161257382826113c2565b600a8152692630bb30902a34ba30b760b11b60208201526020830152600281830152600160608301526a33b2903832b9103a3ab93760a91b8151916125b96060846113c2565b602b83527f4d6f6c74656e3a204275726e206f70706f6e656e7420666f7220322064616d616020840152820152608082015290565b50506040516125fc816113a6565b6040805161260a82826113c2565b6005815264537465616d60d81b60208201528252805161262a82826113c2565b600b81526a537465616d20476f6c656d60a81b602082015260208301526001818301526001606083015267792062792032302560c01b81519161266e6060846113c2565b602883527f4f6273637572653a20526564756365206f70706f6e656e7420616363757261636020840152820152608082015290565b50506040516126b1816113a6565b6126b9611ded565b8152604080516126c982826113c2565b600b81526a2d32bab9902932b137b93760a91b6020820152602083015260048183015260026060830152696c6c20656e656d69657360b01b81519161270f6060846113c2565b602a83527f4f7665726c6f61643a20436861696e206c696768746e696e67206869747320616020840152820152608082015290565b50612756612750611ded565b82612ab4565b611eab565b5050604051612769816113a6565b612771611dcc565b81526040805161278182826113c2565b600d81526c29b5bc9029b7bb32b932b4b3b760991b60208201526020830152600281830152600260608301526b6d756c74616e656f75736c7960a01b8151916127cb6060846113c2565b602c83527f546f726e61646f3a2041747461636b20616c6c206f70706f6e656e74732073696020840152820152608082015290565b5061280c612750611dcc565b611e96565b505060405161281f816113a6565b612827611da9565b81526040805161283782826113c2565b600e81526d53746f6e6520466f72747265737360901b602082015260208301525f81830152600460608301526c672064616d616765206279203360981b8151916128826060846113c2565b602d83527f4469616d6f6e6420536b696e3a2052656475636520616c6c20696e636f6d696e6020840152820152608082015290565b506128c3612750611da9565b611e81565b50506040516128d6816113a6565b6128de611d86565b8152604080516128ee82826113c2565b601081526f088cacae040a6cac2409adedcc2e4c6d60831b602082015260208301525f81830152600360608301526261636b60e81b8151916129316060846113c2565b602383527f546964616c20576176653a205075736820616c6c206f70706f6e656e747320626020840152820152608082015290565b50612972612750611d86565b611e6c565b5050604051612985816113a6565b61298d611d64565b81526040805161299d82826113c2565b601081526f24b73332b937379021b430b6b834b7b760811b602082015260208301526003818301525f606083015264616d61676560d81b8151916129e26060846113c2565b602583527f446f75626c6520466c616d653a204465616c20646f75626c65206275726e20646020840152820152608082015290565b50612a23612750611d64565b611e57565b9061ffff8091169116019061ffff82116118fc57565b60ff617fff612a5f612a6b94612a59612a7098859a98611ab5565b94612a28565b60011c16911690612a28565b612a28565b911680612a88575b5061ffff811661152b5750600190565b908161ffff8216115f14612aab5761ffff160361ffff81116118fc575b5f612a78565b50506001612aa5565b604051612ae06020828180820195805191829101875e81015f838201520301601f1981018352826113c2565b51902090604051612b106020828180820195805191829101875e81015f838201520301601f1981018352826113c2565b5190201490565b92919091612b258285612ab4565b9384612b69575b8415612b3a575b5050505090565b612b4692939450612ab4565b9182612b58575b50505f808080612b33565b612b629250612ab4565b5f80612b4d565b9350612b758184612ab4565b93612b2c56fe9b779b17422d0df92223018b32b4d1fa46e071723d6817e2486d003becc55f00a2646970667358221220d55a85b56c5cf5b3d0dbcdc8d4fd5551e6b853c20e265f024ec3b220a40ad7a064736f6c634300081c0033",
  "linkReferences": {},
  "deployedLinkReferences": {}
}